2024102619175500000000000034300000000000000000000000000000000000000000000000000000000000000000000000000000000000000000000000000000000000000000000000000000000000000000000000000000000000000000000000000000000000000000000000000000000000000000000000000000000000000000000000000000000000000000000000000000000000000000000000000000000000000000000000000000000000000000000000000000000000000000000000000000000
1910000071000001020301A00050505050GOBIERNO                      00040404040GARCIA                                                      ALAN                          AV MOLINA 123 DPT 101 OF A00 PSO 020 MZ 03Q LT 0 INT 05A SECICA                   I  000110101CAL LECARABAYA 0000 DPT 01DE01 OF 1 OFI PSO 11000110101CASTILLO                                               0000000000000000000000000000
1910000191000000000000A00050505050GOBIERNO                      00040404040ZARATE   BENDEZU                                            MIRIAM                        AV MOLINA 123 DPT 101 OF A00 PSO 020 MZ 03Q LT 0 INT 05A SEC.                     .  000110101CAL LECARABAYA 0000 DPT 01DE01 OF 1 OFI PSO 11000110101CASTILLO                                               0000000000000000000000000000
1910000191000006009468A00001212121MINISTERIO DE RELACIONES EXTER00104273860CHAFLOQUE RAMIREZ                                           PEDRO PABLO                   CALLE LOS CRISANTEMOS 380 UR B. OF 000 PSO 000 MZ 000 LT 00 CORRALES              C  000240102000 00JR LAMPA 535 LIMA OF 000 PSO 000 MZ 000 000040506                                                       0000000000000000000000000000
1910000191000006578456A00000132323COMISION DE PROMOCION DEL PERU00106167300SANCHEZ ESLAVA                                              EMILIANO                      OF 000 PSO 000 MZ 000 LT 00                                 ETEN                  E  000140103000 00AV. REPUBLICA DE PANAMA 3647 3 OF 000 PS000150131                                                       0000000000000000000000000000
1910000191000006629603A00977777777COMISION DE PROMOCION DEL PERU00016167300CORDOVA RAMIREZ                                             EDGAR JULIO                   0161 - CUSCO OF 000 PSO 000 MZ 000 LT 00                    .                     .  000140115000 00AV. REPUBLICA DE PANAMA 3647 3 OF 000 PS000150131                                                       0000000000000000000000000000
1910000191000006717955A00009333333COMISION DE PROMOCION DEL PERU00016167300DE LA CRUZ FERRUZO                                          LOLA                          SAN LU IS OF 000 PSO 000 MZ 00                              LIMA                  PER000140140                                                                                                              0000000000000000000000000000
1910000191000006801952A00999999794MEF ADMINISTRACION DE LA DEUDA00013115930TRIGOSO SANCHEZ                                             FRANCISCA VILMALUZ            0012 - BRENA OF 000 PSO 000 MZ 000 LT 00                    .                     .  000140110000 00AV. BOULEVARD S N OF 000 PSO 000 MZ 000 000150101                                                       0000000000000000000000000000
1910000191000007001967A00001234567COMISION DE PROMOCION DEL PERU00016167300MORALES URBINA                                              MARIBEL                       AV.FERNANDO TERAN 128-A 57 OF                               LIMA                  PER000140108                                                                                                              0000000000000000000000000000
1910000191000007601347A00000143524SUPERINTENDENCIA NACIONAL DE A00106343600MANDUJANO NEYRA                                             DEMETRIO HUGO                 FRANCISCO LAZO 15 71 OF 000 PSO 000 MZ 000 LT 00            PICSI                 P  000140111000 00MA GRAU S N PROLOGACION LA C AL OF 000 P000150101                                                       0000000000000000000000000000
1910000191000007641852A00999999851MINISTERIO DE RELACIONES EXTER00014273860PAREDES NEYRA                                               JUAN ANTONIO                  0401 - AYACUCHO OF 000 PSO 000 MZ 000 LT 00                 .                     .  000140111000 00JR LAMPA 535 LIMA OF 000 PSO 000 MZ 000 000010306                                                       0000000000000000000000000000
1910000191000007718154A00999999978MEF ADMINISTRACION DE LA DEUDA00013115930MONTERO KONG                                                BEATRIZ JUANA                 0525 - YURIMAGUAS OF 000 PSO 000 MZ 000 LT 00               .                     .  000140127000 00AV. BOULEVARD S N OF 000 PSO 000 MZ 000 000150101                                                       0000000000000000000000000000
1910000191000007726762A00999999876MEF ADMINISTRACION DE LA DEUDA00013115930GOICOCHEA CRESPO                                            OFELIA DEL ROSARIO            0182 - ANDAHUAYLAS OF 000 PSO 000 MZ 000 LT 00              .                     .  000140117000 00AV. BOULEVARD S N OF 000 PSO 000 MZ 000 000150101                                                       0000000000000000000000000000
1910000191000007765692A00999999882MEF ADMINISTRACION DE LA DEUDA00013115930GARCIA PASTOR                                               RAFAEL                        0601 - ICA OF 000 PSO 000 MZ 000 LT 00                      .                     .  000140130000 00AV. BOULEVARD S N OF 000 PSO 000 MZ 000 000150101                                                       0000000000000000000000000000
1910000191000007818155A00999999978MEF ADMINISTRACION DE LA DEUDA00013115930MONTERO KONG                                                BETTSSY JUANA                  0525 - PUEBLO LIBRE                                        .                     .  000140121AV. BOULEVARD 454 DPT 201 OF 12               000150101                                                       0000000000000000000000000000
1910000191000007918156A00999999978MEF ADMINISTRACION DE LA DEUDA00013115930MONTERO KONG                                                BETTSSY JUANA                 0525 - PUEBLO LIBRE                                         PATAPO                P  000140121AV. BOULEVARD 454 DPT 201 OF 12               000150101                                                       0000000000000000000000000000
1910000191000007939908A00999999998MEF ADMINISTRACION DE LA DEUDA00013115930YBAZETA YBAZETA                                             FERNANDO ARTURO               0042 - GRIFO GRACO OF 000 PSO 000 MZ 000 LT 00              .                     .  000140114000 00AV. BOULEVARD S N OF 000 PSO 000 MZ 000 000150101                                                       0000000000000000000000000000
1910000191000008842422A00999999779MEF ADMINISTRACION DE LA DEUDA00013115930VILCHEZ SANCHEZ                                             MARILYN MARGOT                0101 - AREQUIPA OF 000 PSO 000 MZ 000 LT 00                 .                     .  000140130000 00AV. BOULEVARD S N OF 000 PSO 000 MZ 000 000150101                                                       0000000000000000000000000000
1910000191000009478423A00050505050GOBIERNO                      00040404040MERINO   TAVARA                                             JOEL                          AV MOLINA 123 DPT 101 OF A00 PSO 020 MZ 03Q LT 0 INT 05A SEC.                     .  000110101CAL LECARABAYA 0000 DPT 01DE01 OF 1 OFI PSO 11000110101CASTILLO                                               0000000000000000000000000000
1910000191000009478424A00050505050GOBIERNO                      00040404040GALESSE  SANCHEZ                                            CINDY                         AV MOLINA 123 DPT 101 OF A00 PSO 020 MZ 03Q LT 0 INT 05A SEC.                     .  000110101CAL LECARABAYA 0000 DPT 01DE01 OF 1 OFI PSO 11000110101CASTILLO                                               0000000000000000000000000000
1910000191000009478425A00050505050GOBIERNO                      00040404040SUAREZ   RIOS                                               MARIA                         AV MOLINA 123 DPT 101 OF A00 PSO 020 MZ 03Q LT 0 INT 05A SEC.                     .  000110101CAL LECARABAYA 0000 DPT 01DE01 OF 1 OFI PSO 11000110101CASTILLO                                               0000000000000000000000000000
1910000191000009478426A00050505050GOBIERNO                      00040404040TELLO    JIMENEZ                                            JUAN                          AV MOLINA 123 DPT 101 OF A00 PSO 020 MZ 03Q LT 0 INT 05A SEC.                     .  000110101CAL LECARABAYA 0000 DPT 01DE01 OF 1 OFI PSO 11000110101CASTILLO                                               0000000000000000000000000000
1910000191000009478427A00050505050GOBIERNO                      00040404040WONG     LIU                                                MARIO                         AV MOLINA 123 DPT 101 OF A00 PSO 020 MZ 03Q LT 0 INT 05A SEC.                     .  000110101CAL LECARABAYA 0000 DPT 01DE01 OF 1 OFI PSO 11000110101CASTILLO                                               0000000000000000000000000000
1910000191000009478428A00050505050GOBIERNO                      00040404040VARGAS   MACHUCA                                            VANESSA                       AV MOLINA 123 DPT 101 OF A00 PSO 020 MZ 03Q LT 0 INT 05A SEC.                     .  000110101CAL LECARABAYA 0000 DPT 01DE01 OF 1 OFI PSO 11000110101CASTILLO                                               0000000000000000000000000000
1910000191000009478429A00050505050GOBIERNO                      00040404040MESA     PACORA                                             JESUS                         AV MOLINA 123 DPT 101 OF A00 PSO 020 MZ 03Q LT 0 INT 05A SEC.                     .  000110101CAL LECARABAYA 0000 DPT 01DE01 OF 1 OFI PSO 11000110101CASTILLO                                               0000000000000000000000000000
1910000191000009478430A00050505050GOBIERNO                      00040404040PANTOJA  ZARATE                                             JULIO                         AV MOLINA 123 DPT 101 OF A00 PSO 020 MZ 03Q LT 0 INT 05A SEC.                     .  000110101CAL LECARABAYA 0000 DPT 01DE01 OF 1 OFI PSO 11000110101CASTILLO                                               0000000000000000000000000000
1910000191000009478431A00050505050GOBIERNO                      00040404040RAVINES  DEL CARPIO                                         CARMEN                        AV MOLINA 123 DPT 101 OF A00 PSO 020 MZ 03Q LT 0 INT 05A SEC.                     .  000110101CAL LECARABAYA 0000 DPT 01DE01 OF 1 OFI PSO 11000110101CASTILLO                                               0000000000000000000000000000
1910000191000009478432A00050505050GOBIERNO                      00040404040MENDIOLA GARCIA                                             KATTY                         AV MOLINA 123 DPT 101 OF A00 PSO 020 MZ 03Q LT 0 INT 05A SEC.                     .  000110101CAL LECARABAYA 0000 DPT 01DE01 OF 1 OFI PSO 11000110101CASTILLO                                               0000000000000000000000000000
1910000191000009478433A00050505050GOBIERNO                      00040404040PAREDEZ  INGA                                               PABLO                         AV MOLINA 123 DPT 101 OF A00 PSO 020 MZ 03Q LT 0 INT 05A SEC.                     .  000110101CAL LECARABAYA 0000 DPT 01DE01 OF 1 OFI PSO 11000110101CASTILLO                                               0000000000000000000000000000
1910000191000009478434A00050505050GOBIERNO                      00040404040MILLAGUI SIU                                                PEDRO                         AV MOLINA 123 DPT 101 OF A00 PSO 020 MZ 03Q LT 0 INT 05A SEC.                     .  000110101CAL LECARABAYA 0000 DPT 01DE01 OF 1 OFI PSO 11000110101CASTILLO                                               0000000000000000000000000000
1910000191000009478477A00050505050GOBIERNO                      00040404040MERINO   TAVARA                                             JOEL                          AV MOLINA 123 DPT 101 OF A00 PSO 020 MZ 03Q LT 0 INT 05A SECICA                   I  000110101CAL LECARABAYA 0000 DPT 01DE01 OF 1 OFI PSO 11000110101CASTILLO                                               0000000000000000000000000000
1910000191000009478478A00050505050GOBIERNO                      00040404040GALESSE  SANCHEZ                                            CINDY                         AV MOLINA 123 DPT 101 OF A00 PSO 020 MZ 03Q LT 0 INT 05A SECICA                   I  000110101CAL LECARABAYA 0000 DPT 01DE01 OF 1 OFI PSO 11000110101CASTILLO                                               0000000000000000000000000000
1910000191000009478479A00050505050GOBIERNO                      00040404040SUAREZ   RIOS                                               MARIA                         AV MOLINA 123 DPT 101 OF A00 PSO 020 MZ 03Q LT 0 INT 05A SECICA                   I  000110101CAL LECARABAYA 0000 DPT 01DE01 OF 1 OFI PSO 11000110101CASTILLO                                               0000000000000000000000000000
1910000191000009478480A00050505050GOBIERNO                      00040404040TELLO    JIMENEZ                                            JUAN                          AV MOLINA 123 DPT 101 OF A00 PSO 020 MZ 03Q LT 0 INT 05A SECICA                   I  000110101CAL LECARABAYA 0000 DPT 01DE01 OF 1 OFI PSO 11000110101CASTILLO                                               0000000000000000000000000000
1910000191000009478481A00050505050GOBIERNO                      00040404040WONG     LIU                                                MARIO                         AV MOLINA 123 DPT 101 OF A00 PSO 020 MZ 03Q LT 0 INT 05A SECICA                   I  000110101CAL LECARABAYA 0000 DPT 01DE01 OF 1 OFI PSO 11000110101CASTILLO                                               0000000000000000000000000000
1910000191000009478482A00050505050GOBIERNO                      00040404040VARGAS   MACHUCA                                            VANESSA                       AV MOLINA 123 DPT 101 OF A00 PSO 020 MZ 03Q LT 0 INT 05A SECICA                   I  000110101CAL LECARABAYA 0000 DPT 01DE01 OF 1 OFI PSO 11000110101CASTILLO                                               0000000000000000000000000000
1910000191000009478483A00050505050GOBIERNO                      00040404040MESA     PACORA                                             JESUS                         AV MOLINA 123 DPT 101 OF A00 PSO 020 MZ 03Q LT 0 INT 05A SECICA                   I  000110101CAL LECARABAYA 0000 DPT 01DE01 OF 1 OFI PSO 11000110101CASTILLO                                               0000000000000000000000000000
1910000191000009478484A00050505050GOBIERNO                      00040404040PANTOJA  ZARATE                                             JULIO                         AV MOLINA 123 DPT 101 OF A00 PSO 020 MZ 03Q LT 0 INT 05A SECICA                   I  000110101CAL LECARABAYA 0000 DPT 01DE01 OF 1 OFI PSO 11000110101CASTILLO                                               0000000000000000000000000000
1910000191000009478485A00050505050GOBIERNO                      00040404040RAVINES  DEL CARPIO                                         CARMEN                        AV MOLINA 123 DPT 101 OF A00 PSO 020 MZ 03Q LT 0 INT 05A SECICA                   I  000110101CAL LECARABAYA 0000 DPT 01DE01 OF 1 OFI PSO 11000110101CASTILLO                                               0000000000000000000000000000
1910000191000009478486A00050505050GOBIERNO                      00040404040MENDIOLA GARCIA                                             KATTY                         AV MOLINA 123 DPT 101 OF A00 PSO 020 MZ 03Q LT 0 INT 05A SECICA                   I  000110101CAL LECARABAYA 0000 DPT 01DE01 OF 1 OFI PSO 11000110101CASTILLO                                               0000000000000000000000000000
1910000191000009478487A00050505050GOBIERNO                      00040404040PAREDEZ  INGA                                               PABLO                         AV MOLINA 123 DPT 101 OF A00 PSO 020 MZ 03Q LT 0 INT 05A SECICA                   I  000110101CAL LECARABAYA 0000 DPT 01DE01 OF 1 OFI PSO 11000110101CASTILLO                                               0000000000000000000000000000
1910000191000009478488A00050505050GOBIERNO                      00040404040MILLAGUI SIU                                                PEDRO                         AV MOLINA 123 DPT 101 OF A00 PSO 020 MZ 03Q LT 0 INT 05A SECICA                   I  000110101CAL LECARABAYA 0000 DPT 01DE01 OF 1 OFI PSO 11000110101CASTILLO                                               0000000000000000000000000000
1910000191000009478490A00050505050GOBIERNO                      00040404040MESANO   TIRADO                                             JOSE                          AV MOLINA 123 DPT 101 OF A00 PSO 020 MZ 03Q LT 0 INT 05A SECICA                   I  000110101CAL LECARABAYA 0000 DPT 01DE01 OF 1 OFI PSO 11000110101CASTILLO                                               0000000000000000000000000000
1910000191000009478491A00050505050GOBIERNO                      00040404040GALLARDO SANCHEZ                                            CRISTEL                       AV MOLINA 123 DPT 101 OF A00 PSO 020 MZ 03Q LT 0 INT 05A SECICA                   I  000110101CAL LECARABAYA 0000 DPT 01DE01 OF 1 OFI PSO 11000110101CASTILLO                                               0000000000000000000000000000
1910000191000009478492A00050505050GOBIERNO                      00040404040SUAREZ   REPES                                              MIRIAM                        AV MOLINA 123 DPT 101 OF A00 PSO 020 MZ 03Q LT 0 INT 05A SECICA                   I  000110101CAL LECARABAYA 0000 DPT 01DE01 OF 1 OFI PSO 11000110101CASTILLO                                               0000000000000000000000000000
1910000191000009478493A00050505050GOBIERNO                      00040404040PAZ      JIMENEZ                                            PABLO                         AV MOLINA 123 DPT 101 OF A00 PSO 020 MZ 03Q LT 0 INT 05A SECICA                   I  000110101CAL LECARABAYA 0000 DPT 01DE01 OF 1 OFI PSO 11000110101CASTILLO                                               0000000000000000000000000000
1910000191000009478495A00050505050GOBIERNO                      00040404040BARTRA   MEJIA                                              VIVIANA                       AV MOLINA 123 DPT 101 OF A00 PSO 020 MZ 03Q LT 0 INT 05A SECICA                   I  000110101CAL LECARABAYA 0000 DPT 01DE01 OF 1 OFI PSO 11000110101CASTILLO                                               0000000000000000000000000000
1910000191000009478496A00050505050GOBIERNO                      00040404040MENDEZ   MESA                                               JESUS                         AV MOLINA 123 DPT 101 OF A00 PSO 020 MZ 03Q LT 0 INT 05A SECICA                   I  000110101CAL LECARABAYA 0000 DPT 01DE01 OF 1 OFI PSO 11000110101CASTILLO                                               0000000000000000000000000000
1910000191000009478497A00050505050GOBIERNO                      00040404040PINTO    ZORRILLA                                           GIULIANO                      AV MOLINA 123 DPT 101 OF A00 PSO 020 MZ 03Q LT 0 INT 05A SECICA                   I  000110101CAL LECARABAYA 0000 DPT 01DE01 OF 1 OFI PSO 11000110101CASTILLO                                               0000000000000000000000000000
1910000191000009478498A00050505050GOBIERNO                      00040404040RUBIO    DELGADO                                            CARMELA                       AV MOLINA 123 DPT 101 OF A00 PSO 020 MZ 03Q LT 0 INT 05A SECICA                   I  000110101CAL LECARABAYA 0000 DPT 01DE01 OF 1 OFI PSO 11000110101CASTILLO                                               0000000000000000000000000000
1910000191000009478499A00050505050GOBIERNO                      00040404040MENDEZ   GARECA                                             PATTY                         AV MOLINA 123 DPT 101 OF A00 PSO 020 MZ 03Q LT 0 INT 05A SECICA                   I  000110101CAL LECARABAYA 0000 DPT 01DE01 OF 1 OFI PSO 11000110101CASTILLO                                               0000000000000000000000000000
1910000191000009478500A00050505050GOBIERNO                      00040404040PITA     INGARUCA                                           PITER                         AV MOLINA 123 DPT 101 OF A00 PSO 020 MZ 03Q LT 0 INT 05A SECICA                   I  000110101CAL LECARABAYA 0000 DPT 01DE01 OF 1 OFI PSO 11000110101CASTILLO                                               0000000000000000000000000000
1910000191000009478501A00050505050GOBIERNO                      00040404040MILLA    ESCANOA                                            PABLO                         AV MOLINA 123 DPT 101 OF A00 PSO 020 MZ 03Q LT 0 INT 05A SECICA                   I  000110101CAL LECARABAYA 0000 DPT 01DE01 OF 1 OFI PSO 11000110101CASTILLO                                               0000000000000000000000000000
1910000191000009478502A00050505050GOBIERNO                      00040404040MURGIA   TELLO                                              JUAN                          AV MOLINA 123 DPT 101 OF A00 PSO 020 MZ 03Q LT 0 INT 05A SECICA                   I  000110101CAL LECARABAYA 0000 DPT 01DE01 OF 1 OFI PSO 11000110101CASTILLO                                               0000000000000000000000000000
1910000191000009478503A00050505050GOBIERNO                      00040404040ZAPATA   PINTO                                              CAROLA                        AV MOLINA 123 DPT 101 OF A00 PSO 020 MZ 03Q LT 0 INT 05A SECICA                   I  000110101CAL LECARABAYA 0000 DPT 01DE01 OF 1 OFI PSO 11000110101CASTILLO                                               0000000000000000000000000000
1910000191000009478504A00050505050GOBIERNO                      00040404040SUCCA    REVOLLEDO                                          JULIA                         AV MOLINA 123 DPT 101 OF A00 PSO 020 MZ 03Q LT 0 INT 05A SECICA                   I  000110101CAL LECARABAYA 0000 DPT 01DE01 OF 1 OFI PSO 11000110101CASTILLO                                               0000000000000000000000000000
1910000191000009478505A00050505050GOBIERNO                      00040404040TORERO   JUPITER                                            SAUL                          AV MOLINA 123 DPT 101 OF A00 PSO 020 MZ 03Q LT 0 INT 05A SECICA                   I  000110101CAL LECARABAYA 0000 DPT 01DE01 OF 1 OFI PSO 11000110101CASTILLO                                               0000000000000000000000000000
1910000191000009478506A00050505050GOBIERNO                      00040404040WINTER   LOPEZ                                              MARLON                        AV MOLINA 123 DPT 101 OF A00 PSO 020 MZ 03Q LT 0 INT 05A SECICA                   I  000110101CAL LECARABAYA 0000 DPT 01DE01 OF 1 OFI PSO 11000110101CASTILLO                                               0000000000000000000000000000
1910000191000009478507A00050505050GOBIERNO                      00040404040VERGARA  MACHAS                                             MACARENA                      AV MOLINA 123 DPT 101 OF A00 PSO 020 MZ 03Q LT 0 INT 05A SECICA                   I  000110101CAL LECARABAYA 0000 DPT 01DE01 OF 1 OFI PSO 11000110101CASTILLO                                               0000000000000000000000000000
1910000191000009478508A00050505050GOBIERNO                      00040404040MESONES  PARIONA                                            JUDA                          AV MOLINA 123 DPT 101 OF A00 PSO 020 MZ 03Q LT 0 INT 05A SECICA                   I  000110101CAL LECARABAYA 0000 DPT 01DE01 OF 1 OFI PSO 11000110101CASTILLO                                               0000000000000000000000000000
1910000191000009478509A00050505050GOBIERNO                      00040404040ROJAS    ZARATE                                             SERAPIO                       AV MOLINA 123 DPT 101 OF A00 PSO 020 MZ 03Q LT 0 INT 05A SECICA                   I  000110101CAL LECARABAYA 0000 DPT 01DE01 OF 1 OFI PSO 11000110101CASTILLO                                               0000000000000000000000000000
1910000191000009478510A00050505050GOBIERNO                      00040404040RUBIO    DELGADO                                            CARMELA                       AV MOLINA 123 DPT 101 OF A00 PSO 020 MZ 03Q LT 0 INT 05A SECICA                   I  000110101CAL LECARABAYA 0000 DPT 01DE01 OF 1 OFI PSO 11000110101CASTILLO                                               0000000000000000000000000000
1910000191000009478511A00050505050GOBIERNO                      00040404040RAMIREZ  DEL CURRO                                          ESTEFANIA                     AV MOLINA 123 DPT 101 OF A00 PSO 020 MZ 03Q LT 0 INT 05A SECICA                   I  000110101CAL LECARABAYA 0000 DPT 01DE01 OF 1 OFI PSO 11000110101CASTILLO                                               0000000000000000000000000000
1910000191000009478512A00050505050GOBIERNO                      00040404040MENDIOLA GARATE                                             VIVIANA                       AV MOLINA 123 DPT 101 OF A00 PSO 020 MZ 03Q LT 0 INT 05A SECICA                   I  000110101CAL LECARABAYA 0000 DPT 01DE01 OF 1 OFI PSO 11000110101CASTILLO                                               0000000000000000000000000000
1910000191000009478513A00050505050GOBIERNO                      00040404040PANDURO  IGUANA                                             PITER                         AV MOLINA 123 DPT 101 OF A00 PSO 020 MZ 03Q LT 0 INT 05A SECICA                   I  000110101CAL LECARABAYA 0000 DPT 01DE01 OF 1 OFI PSO 11000110101CASTILLO                                               0000000000000000000000000000
1910000191000009478514A00050505050GOBIERNO                      00040404040RANCIO   SULCA                                              PAUL                          AV MOLINA 123 DPT 101 OF A00 PSO 020 MZ 03Q LT 0 INT 05A SECICA                   I  000110101CAL LECARABAYA 0000 DPT 01DE01 OF 1 OFI PSO 11000110101CASTILLO                                               0000000000000000000000000000
1910000191000009478515A00050505050GOBIERNO                      00040404040MERCURIO TAVARA                                             MAX                           AV MOLINA 123 DPT 101 OF A00 PSO 020 MZ 03Q LT 0 INT 05A SECICA                   I  000110101CAL LECARABAYA 0000 DPT 01DE01 OF 1 OFI PSO 11000110101CASTILLO                                               0000000000000000000000000000
1910000191000009478516A00050505050GOBIERNO                      00040404040GALLEGOS SANCHEZ                                            URSULA                        AV MOLINA 123 DPT 101 OF A00 PSO 020 MZ 03Q LT 0 INT 05A SECICA                   I  000110101CAL LECARABAYA 0000 DPT 01DE01 OF 1 OFI PSO 11000110101CASTILLO                                               0000000000000000000000000000
1910000191000009478517A00050505050GOBIERNO                      00040404040SANCHEZ  RAMOS                                              MARIANA                       AV MOLINA 123 DPT 101 OF A00 PSO 020 MZ 03Q LT 0 INT 05A SECICA                   I  000110101CAL LECARABAYA 0000 DPT 01DE01 OF 1 OFI PSO 11000110101CASTILLO                                               0000000000000000000000000000
1910000191000009478518A00050505050GOBIERNO                      00040404040PILLA    JIMENEZ                                            JUAN                          AV MOLINA 123 DPT 101 OF A00 PSO 020 MZ 03Q LT 0 INT 05A SECICA                   I  000110101CAL LECARABAYA 0000 DPT 01DE01 OF 1 OFI PSO 11000110101CASTILLO                                               0000000000000000000000000000
1910000191000009478519A00050505050GOBIERNO                      00040404040WONG     LIU                                                MARGARITO                     AV MOLINA 123 DPT 101 OF A00 PSO 020 MZ 03Q LT 0 INT 05A SECICA                   I  000110101CAL LECARABAYA 0000 DPT 01DE01 OF 1 OFI PSO 11000110101CASTILLO                                               0000000000000000000000000000
1910000191000009478520A00050505050GOBIERNO                      00040404040VARGAS   MELCHOR                                            DINA                          AV MOLINA 123 DPT 101 OF A00 PSO 020 MZ 03Q LT 0 INT 05A SECICA                   I  000110101CAL LECARABAYA 0000 DPT 01DE01 OF 1 OFI PSO 11000110101CASTILLO                                               0000000000000000000000000000
1910000191000009478521A00050505050GOBIERNO                      00040404040MESA     PINATEA                                            JEREMIAS                      AV MOLINA 123 DPT 101 OF A00 PSO 020 MZ 03Q LT 0 INT 05A SECICA                   I  000110101CAL LECARABAYA 0000 DPT 01DE01 OF 1 OFI PSO 11000110101CASTILLO                                               0000000000000000000000000000
1910000191000009478522A00050505050GOBIERNO                      00040404040POMA     ZARATE                                             JESUS                         AV MOLINA 123 DPT 101 OF A00 PSO 020 MZ 03Q LT 0 INT 05A SECICA                   I  000110101CAL LECARABAYA 0000 DPT 01DE01 OF 1 OFI PSO 11000110101CASTILLO                                               0000000000000000000000000000
1910000191000009478523A00050505050GOBIERNO                      00040404040RAMOS    DURAND                                             ROSARIO                       AV MOLINA 123 DPT 101 OF A00 PSO 020 MZ 03Q LT 0 INT 05A SECICA                   I  000110101CAL LECARABAYA 0000 DPT 01DE01 OF 1 OFI PSO 11000110101CASTILLO                                               0000000000000000000000000000
1910000191000009478524A00050505050GOBIERNO                      00040404040MENDIOLA GARCIA                                             KATTY                         AV MOLINA 123 DPT 101 OF A00 PSO 020 MZ 03Q LT 0 INT 05A SECICA                   I  000110101CAL LECARABAYA 0000 DPT 01DE01 OF 1 OFI PSO 11000110101CASTILLO                                               0000000000000000000000000000
1910000191000009478525A00050505050GOBIERNO                      00040404040IANES    INGA                                               PERICO                        AV MOLINA 123 DPT 101 OF A00 PSO 020 MZ 03Q LT 0 INT 05A SECICA                   I  000110101CAL LECARABAYA 0000 DPT 01DE01 OF 1 OFI PSO 11000110101CASTILLO                                               0000000000000000000000000000
1910000191000009478526A00050505050GOBIERNO                      00040404040MILLAGUI SUECO                                              MALANIAS                      AV MOLINA 123 DPT 101 OF A00 PSO 020 MZ 03Q LT 0 INT 05A SECICA                   I  000110101CAL LECARABAYA 0000 DPT 01DE01 OF 1 OFI PSO 11000110101CASTILLO                                               0000000000000000000000000000
1910000191000009478527A00050505050GOBIERNO                      00040404040MERCURIO TANG                                               JUDA                          AV MOLINA 123 DPT 101 OF A00 PSO 020 MZ 03Q LT 0 INT 05A SECICA                   I  000110101CAL LECARABAYA 0000 DPT 01DE01 OF 1 OFI PSO 11000110101CASTILLO                                               0000000000000000000000000000
1910000191000009478528A00050505050GOBIERNO                      00040404040GAMMA    SANCHEZ                                            GISELA                        AV MOLINA 123 DPT 101 OF A00 PSO 020 MZ 03Q LT 0 INT 05A SECICA                   I  000110101CAL LECARABAYA 0000 DPT 01DE01 OF 1 OFI PSO 11000110101CASTILLO                                               0000000000000000000000000000
1910000191000009478529A00050505050GOBIERNO                      00040404040PEREZ    RIOS                                               MARIA                         AV MOLINA 123 DPT 101 OF A00 PSO 020 MZ 03Q LT 0 INT 05A SECICA                   I  000110101CAL LECARABAYA 0000 DPT 01DE01 OF 1 OFI PSO 11000110101CASTILLO                                               0000000000000000000000000000
1910000191000009478530A00050505050GOBIERNO                      00040404040MESA     JIMENEZ                                            RAMON                         AV MOLINA 123 DPT 101 OF A00 PSO 020 MZ 03Q LT 0 INT 05A SECICA                   I  000110101CAL LECARABAYA 0000 DPT 01DE01 OF 1 OFI PSO 11000110101CASTILLO                                               0000000000000000000000000000
1910000191000009478531A00050505050GOBIERNO                      00040404040PAREDEZ  LIU                                                LUCAS                         AV MOLINA 123 DPT 101 OF A00 PSO 020 MZ 03Q LT 0 INT 05A SECICA                   I  000110101CAL LECARABAYA 0000 DPT 01DE01 OF 1 OFI PSO 11000110101CASTILLO                                               0000000000000000000000000000
1910000191000009478532A00050505050GOBIERNO                      00040404040VIZCARRA MACHAS                                             ROCIO                         AV MOLINA 123 DPT 101 OF A00 PSO 020 MZ 03Q LT 0 INT 05A SECICA                   I  000110101CAL LECARABAYA 0000 DPT 01DE01 OF 1 OFI PSO 11000110101CASTILLO                                               0000000000000000000000000000
1910000191000009478533A00050505050GOBIERNO                      00040404040MATTOS   PARNA                                              JULIAN                        AV MOLINA 123 DPT 101 OF A00 PSO 020 MZ 03Q LT 0 INT 05A SECICA                   I  000110101CAL LECARABAYA 0000 DPT 01DE01 OF 1 OFI PSO 11000110101CASTILLO                                               0000000000000000000000000000
1910000191000009478534A00050505050GOBIERNO                      00040404040PANTOJA  ROA                                                WILMAR                        AV MOLINA 123 DPT 101 OF A00 PSO 020 MZ 03Q LT 0 INT 05A SECICA                   I  000110101CAL LECARABAYA 0000 DPT 01DE01 OF 1 OFI PSO 11000110101CASTILLO                                               0000000000000000000000000000
1910000191000009478535A00050505050GOBIERNO                      00040404040TELLO    DELGADO                                            CARMIN                        AV MOLINA 123 DPT 101 OF A00 PSO 020 MZ 03Q LT 0 INT 05A SECICA                   I  000110101CAL LECARABAYA 0000 DPT 01DE01 OF 1 OFI PSO 11000110101CASTILLO                                               0000000000000000000000000000
1910000191000009478536A00050505050GOBIERNO                      00040404040MENDEZ   GARRIDO                                            MIRIAM                        AV MOLINA 123 DPT 101 OF A00 PSO 020 MZ 03Q LT 0 INT 05A SECICA                   I  000110101CAL LECARABAYA 0000 DPT 01DE01 OF 1 OFI PSO 11000110101CASTILLO                                               0000000000000000000000000000
1910000191000009478537A00050505050GOBIERNO                      00040404040PAZ      ARAUJO                                             PEDRO                         AV MOLINA 123 DPT 101 OF A00 PSO 020 MZ 03Q LT 0 INT 05A SECICA                   I  000110101CAL LECARABAYA 0000 DPT 01DE01 OF 1 OFI PSO 11000110101CASTILLO                                               0000000000000000000000000000
1910000191000009478538A00050505050GOBIERNO                      00040404040MENDEZ   SIU                                                MARIANO                       AV MOLINA 123 DPT 101 OF A00 PSO 020 MZ 03Q LT 0 INT 05A SECICA                   I  000110101CAL LECARABAYA 0000 DPT 01DE01 OF 1 OFI PSO 11000110101CASTILLO                                               0000000000000000000000000000
1910000191000009478539A00050505050GOBIERNO                      00040404040MESA     TORNAOLA                                           PABLO                         AV MOLINA 123 DPT 101 OF A00 PSO 020 MZ 03Q LT 0 INT 05A SECICA                   I  000110101CAL LECARABAYA 0000 DPT 01DE01 OF 1 OFI PSO 11000110101CASTILLO                                               0000000000000000000000000000
1910000191000009478540A00050505050GOBIERNO                      00040404040PEREZ    SAVIA                                              LUCIANA                       AV MOLINA 123 DPT 101 OF A00 PSO 020 MZ 03Q LT 0 INT 05A SECICA                   I  000110101CAL LECARABAYA 0000 DPT 01DE01 OF 1 OFI PSO 11000110101CASTILLO                                               0000000000000000000000000000
1910000191000009478541A00050505050GOBIERNO                      00040404040PERALTA  RIOS                                               URSULA                        AV MOLINA 123 DPT 101 OF A00 PSO 020 MZ 03Q LT 0 INT 05A SECICA                   I  000110101CAL LECARABAYA 0000 DPT 01DE01 OF 1 OFI PSO 11000110101CASTILLO                                               0000000000000000000000000000
1910000191000009478542A00050505050GOBIERNO                      00040404040PERNO    TORO                                               MARCOS                        AV MOLINA 123 DPT 101 OF A00 PSO 020 MZ 03Q LT 0 INT 05A SECICA                   I  000110101CAL LECARABAYA 0000 DPT 01DE01 OF 1 OFI PSO 11000110101CASTILLO                                               0000000000000000000000000000
1910000191000009478543A00050505050GOBIERNO                      00040404040TORINO   LEE                                                MICHAEL                       AV MOLINA 123 DPT 101 OF A00 PSO 020 MZ 03Q LT 0 INT 05A SECICA                   I  000110101CAL LECARABAYA 0000 DPT 01DE01 OF 1 OFI PSO 11000110101CASTILLO                                               0000000000000000000000000000
1910000191000009478544A00050505050GOBIERNO                      00040404040VACA     MATOS                                              GRISELDA                      AV MOLINA 123 DPT 101 OF A00 PSO 020 MZ 03Q LT 0 INT 05A SECICA                   I  000110101CAL LECARABAYA 0000 DPT 01DE01 OF 1 OFI PSO 11000110101CASTILLO                                               0000000000000000000000000000
1910000191000009478545A00050505050GOBIERNO                      00040404040MESARINE PAZ                                                CESAR                         AV MOLINA 123 DPT 101 OF A00 PSO 020 MZ 03Q LT 0 INT 05A SECICA                   I  000110101CAL LECARABAYA 0000 DPT 01DE01 OF 1 OFI PSO 11000110101CASTILLO                                               0000000000000000000000000000
1910000191000009478546A00050505050GOBIERNO                      00040404040PANTOJA  VENTANILLA                                         JORGE                         AV MOLINA 123 DPT 101 OF A00 PSO 020 MZ 03Q LT 0 INT 05A SECICA                   I  000110101CAL LECARABAYA 0000 DPT 01DE01 OF 1 OFI PSO 11000110101CASTILLO                                               0000000000000000000000000000
1910000191000009478547A00050505050GOBIERNO                      00040404040RAVINES  ROSELL                                             KARINA                        AV MOLINA 123 DPT 101 OF A00 PSO 020 MZ 03Q LT 0 INT 05A SECICA                   I  000110101CAL LECARABAYA 0000 DPT 01DE01 OF 1 OFI PSO 11000110101CASTILLO                                               0000000000000000000000000000
1910000191000009478548A00050505050GOBIERNO                      00040404040MENDIOLA PITA                                               TEOFILA                       AV MOLINA 123 DPT 101 OF A00 PSO 020 MZ 03Q LT 0 INT 05A SECICA                   I  000110101CAL LECARABAYA 0000 DPT 01DE01 OF 1 OFI PSO 11000110101CASTILLO                                               0000000000000000000000000000
1910000191000009478549A00050505050GOBIERNO                      00040404040PEREZ    PIZARRO                                            LUIS                          AV MOLINA 123 DPT 101 OF A00 PSO 020 MZ 03Q LT 0 INT 05A SECICA                   I  000110101CAL LECARABAYA 0000 DPT 01DE01 OF 1 OFI PSO 11000110101CASTILLO                                               0000000000000000000000000000
1910000191000009478550A00050505050GOBIERNO                      00040404040SUAREZ   PERON                                              MARTIN                        AV MOLINA 123 DPT 101 OF A00 PSO 020 MZ 03Q LT 0 INT 05A SECICA                   I  000110101CAL LECARABAYA 0000 DPT 01DE01 OF 1 OFI PSO 11000110101CASTILLO                                               0000000000000000000000000000
1910000191000009478551A00050505050GOBIERNO                      00040404040FLOREZ   HUAMAN                                             RAUL                          AV MOLINA 123 DPT 101 OF A00 PSO 020 MZ 03Q LT 0 INT 05A SECICA                   I  000110101CAL LECARABAYA 0000 DPT 01DE01 OF 1 OFI PSO 11000110101CASTILLO                                               0000000000000000000000000000
1910000191000009478552A00050505050GOBIERNO                      00040404040GARCIA   VASQUEZ                                            CARMELA                       AV MOLINA 123 DPT 101 OF A00 PSO 020 MZ 03Q LT 0 INT 05A SECICA                   I  000110101CAL LECARABAYA 0000 DPT 01DE01 OF 1 OFI PSO 11000110101CASTILLO                                               0000000000000000000000000000
1910000191000009478553A00050505050GOBIERNO                      00040404040ROJAS    MAMANI                                             STEFANY                       AV MOLINA 123 DPT 101 OF A00 PSO 020 MZ 03Q LT 0 INT 05A SECICA                   I  000110101CAL LECARABAYA 0000 DPT 01DE01 OF 1 OFI PSO 11000110101CASTILLO                                               0000000000000000000000000000
1910000191000009478554A00050505050GOBIERNO                      00040404040DIAZ     GONZALEZ                                           ELIAS                         AV MOLINA 123 DPT 101 OF A00 PSO 020 MZ 03Q LT 0 INT 05A SECICA                   I  000110101CAL LECARABAYA 0000 DPT 01DE01 OF 1 OFI PSO 11000110101CASTILLO                                               0000000000000000000000000000
1910000191000009478555A00050505050GOBIERNO                      00040404040CHAVEZ   CASTILLO                                           LUCAS                         AV MOLINA 123 DPT 101 OF A00 PSO 020 MZ 03Q LT 0 INT 05A SECICA                   I  000110101CAL LECARABAYA 0000 DPT 01DE01 OF 1 OFI PSO 11000110101CASTILLO                                               0000000000000000000000000000
1910000191000009478556A00050505050GOBIERNO                      00040404040VARGAS   MACHUCA                                            VANESSA                       AV MOLINA 123 DPT 101 OF A00 PSO 020 MZ 03Q LT 0 INT 05A SECICA                   I  000110101CAL LECARABAYA 0000 DPT 01DE01 OF 1 OFI PSO 11000110101CASTILLO                                               0000000000000000000000000000
1910000191000009478557A00050505050GOBIERNO                      00040404040MESA     PACORA                                             JESUS                         AV MOLINA 123 DPT 101 OF A00 PSO 020 MZ 03Q LT 0 INT 05A SECICA                   I  000110101CAL LECARABAYA 0000 DPT 01DE01 OF 1 OFI PSO 11000110101CASTILLO                                               0000000000000000000000000000
1910000191000009478558A00050505050GOBIERNO                      00040404040PANTOJA  ZARATE                                             JULIO                         AV MOLINA 123 DPT 101 OF A00 PSO 020 MZ 03Q LT 0 INT 05A SECICA                   I  000110101CAL LECARABAYA 0000 DPT 01DE01 OF 1 OFI PSO 11000110101CASTILLO                                               0000000000000000000000000000
1910000191000009478559A00050505050GOBIERNO                      00040404040RAVINES  DEL CARPIO                                         CARMEN                        AV MOLINA 123 DPT 101 OF A00 PSO 020 MZ 03Q LT 0 INT 05A SECICA                   I  000110101CAL LECARABAYA 0000 DPT 01DE01 OF 1 OFI PSO 11000110101CASTILLO                                               0000000000000000000000000000
1910000191000009478560A00050505050GOBIERNO                      00040404040MENDIOLA GARCIA                                             KATTY                         AV MOLINA 123 DPT 101 OF A00 PSO 020 MZ 03Q LT 0 INT 05A SECICA                   I  000110101CAL LECARABAYA 0000 DPT 01DE01 OF 1 OFI PSO 11000110101CASTILLO                                               0000000000000000000000000000
1910000191000009478561A00050505050GOBIERNO                      00040404040PAREDEZ  INGA                                               PABLO                         AV MOLINA 123 DPT 101 OF A00 PSO 020 MZ 03Q LT 0 INT 05A SECICA                   I  000110101CAL LECARABAYA 0000 DPT 01DE01 OF 1 OFI PSO 11000110101CASTILLO                                               0000000000000000000000000000
1910000191000009478562A00050505050GOBIERNO                      00040404040MILLAGUI SIU                                                PEDRO                         AV MOLINA 123 DPT 101 OF A00 PSO 020 MZ 03Q LT 0 INT 05A SECICA                   I  000110101CAL LECARABAYA 0000 DPT 01DE01 OF 1 OFI PSO 11000110101CASTILLO                                               0000000000000000000000000000
1910000191000009478563A00050505050GOBIERNO                      00040404040GUARDIA  RIVADENEYRA                                        PIERO                         AV MOLINA 123 DPT 101 OF A00 PSO 020 MZ 03Q LT 0 INT 05A SECICA                   I  000110101CAL LECARABAYA 0000 DPT 01DE01 OF 1 OFI PSO 11000110101CASTILLO                                               0000000000000000000000000000
1910000191000009478564A00050505050GOBIERNO                      00040404040TARAZONA CASTILLO                                           MARIA                         AV MOLINA 123 DPT 101 OF A00 PSO 020 MZ 03Q LT 0 INT 05A SECICA                   I  000110101CAL LECARABAYA 0000 DPT 01DE01 OF 1 OFI PSO 11000110101CASTILLO                                               0000000000000000000000000000
1910000191000009478565A00050505050GOBIERNO                      00040404040CHAVEZ   RIOS                                               MARY                          AV MOLINA 123 DPT 101 OF A00 PSO 020 MZ 03Q LT 0 INT 05A SECICA                   I  000110101CAL LECARABAYA 0000 DPT 01DE01 OF 1 OFI PSO 11000110101CASTILLO                                               0000000000000000000000000000
1910000191000009478566A00050505050GOBIERNO                      00040404040TELLO    JIMENEZ                                            JUAN                          AV MOLINA 123 DPT 101 OF A00 PSO 020 MZ 03Q LT 0 INT 05A SECICA                   I  000110101CAL LECARABAYA 0000 DPT 01DE01 OF 1 OFI PSO 11000110101CASTILLO                                               0000000000000000000000000000
1910000191000009478567A00050505050GOBIERNO                      00040404040TALAVERA LLAMA                                              MIRKO                         AV MOLINA 123 DPT 101 OF A00 PSO 020 MZ 03Q LT 0 INT 05A SECICA                   I  000110101CAL LECARABAYA 0000 DPT 01DE01 OF 1 OFI PSO 11000110101CASTILLO                                               0000000000000000000000000000
1910000191000009478568A00050505050GOBIERNO                      00040404040ROSALES  MENA                                               VERENISE                      AV MOLINA 123 DPT 101 OF A00 PSO 020 MZ 03Q LT 0 INT 05A SECICA                   I  000110101CAL LECARABAYA 0000 DPT 01DE01 OF 1 OFI PSO 11000110101CASTILLO                                               0000000000000000000000000000
1910000191000009478569A00050505050GOBIERNO                      00040404040SIFUENTESPACORA                                             MARCELO                       AV MOLINA 123 DPT 101 OF A00 PSO 020 MZ 03Q LT 0 INT 05A SECICA                   I  000110101CAL LECARABAYA 0000 DPT 01DE01 OF 1 OFI PSO 11000110101CASTILLO                                               0000000000000000000000000000
1910000191000009478570A00050505050GOBIERNO                      00040404040PAZ      KUKURELLO                                          DUILIO                        AV MOLINA 123 DPT 101 OF A00 PSO 020 MZ 03Q LT 0 INT 05A SECICA                   I  000110101CAL LECARABAYA 0000 DPT 01DE01 OF 1 OFI PSO 11000110101CASTILLO                                               0000000000000000000000000000
1910000191000009478571A00050505050GOBIERNO                      00040404040PEREZ    LESCANO                                            MARTHA                        AV MOLINA 123 DPT 101 OF A00 PSO 020 MZ 03Q LT 0 INT 05A SECICA                   I  000110101CAL LECARABAYA 0000 DPT 01DE01 OF 1 OFI PSO 11000110101CASTILLO                                               0000000000000000000000000000
1910000191000009478572A00050505050GOBIERNO                      00040404040MERINO   SOCRATES                                           DINA                          AV MOLINA 123 DPT 101 OF A00 PSO 020 MZ 03Q LT 0 INT 05A SECICA                   I  000110101CAL LECARABAYA 0000 DPT 01DE01 OF 1 OFI PSO 11000110101CASTILLO                                               0000000000000000000000000000
1910000191000009478573A00050505050GOBIERNO                      00040404040RAVELLO  PAZ                                                FRANCISCO                     AV MOLINA 123 DPT 101 OF A00 PSO 020 MZ 03Q LT 0 INT 05A SECICA                   I  000110101CAL LECARABAYA 0000 DPT 01DE01 OF 1 OFI PSO 11000110101CASTILLO                                               0000000000000000000000000000
1910000191000009478574A00050505050GOBIERNO                      00040404040MINA     TELLO                                              PABLO                         AV MOLINA 123 DPT 101 OF A00 PSO 020 MZ 03Q LT 0 INT 05A SECICA                   I  000110101CAL LECARABAYA 0000 DPT 01DE01 OF 1 OFI PSO 11000110101CASTILLO                                               0000000000000000000000000000
1910000191000009478575A00050505050GOBIERNO                      00040404040BARAKUS  MERINO                                             MARIO                         AV MOLINA 123 DPT 101 OF A00 PSO 020 MZ 03Q LT 0 INT 05A SECICA                   I  000110101CAL LECARABAYA 0000 DPT 01DE01 OF 1 OFI PSO 11000110101CASTILLO                                               0000000000000000000000000000
1910000191000009478576A00050505050GOBIERNO                      00040404040QUISPE   PEREZ                                              CAROL                         AV MOLINA 123 DPT 101 OF A00 PSO 020 MZ 03Q LT 0 INT 05A SECICA                   I  000110101CAL LECARABAYA 0000 DPT 01DE01 OF 1 OFI PSO 11000110101CASTILLO                                               0000000000000000000000000000
1910000191000009478577A00050505050GOBIERNO                      00040404040TAPIA    RIOS                                               HILDA                         AV MOLINA 123 DPT 101 OF A00 PSO 020 MZ 03Q LT 0 INT 05A SECICA                   I  000110101CAL LECARABAYA 0000 DPT 01DE01 OF 1 OFI PSO 11000110101CASTILLO                                               0000000000000000000000000000
1910000191000009478578A00050505050GOBIERNO                      00040404040CARRILLO PAZ                                                CESAR                         AV MOLINA 123 DPT 101 OF A00 PSO 020 MZ 03Q LT 0 INT 05A SECICA                   I  000110101CAL LECARABAYA 0000 DPT 01DE01 OF 1 OFI PSO 11000110101CASTILLO                                               0000000000000000000000000000
1910000191000009478579A00050505050GOBIERNO                      00040404040WONG     PACORA                                             KENNETH                       AV MOLINA 123 DPT 101 OF A00 PSO 020 MZ 03Q LT 0 INT 05A SECICA                   I  000110101CAL LECARABAYA 0000 DPT 01DE01 OF 1 OFI PSO 11000110101CASTILLO                                               0000000000000000000000000000
1910000191000009478580A00050505050GOBIERNO                      00040404040VARILLAS ROSALES                                            ROMULO                        AV MOLINA 123 DPT 101 OF A00 PSO 020 MZ 03Q LT 0 INT 05A SECICA                   I  000110101CAL LECARABAYA 0000 DPT 01DE01 OF 1 OFI PSO 11000110101CASTILLO                                               0000000000000000000000000000
1910000191000009478581A00050505050GOBIERNO                      00040404040DESSA    DIAZ                                               TOMAS                         AV MOLINA 123 DPT 101 OF A00 PSO 020 MZ 03Q LT 0 INT 05A SECICA                   I  000110101CAL LECARABAYA 0000 DPT 01DE01 OF 1 OFI PSO 11000110101CASTILLO                                               0000000000000000000000000000
1910000191000009478582A00050505050GOBIERNO                      00040404040PINO     SALAS                                              JULIO                         AV MOLINA 123 DPT 101 OF A00 PSO 020 MZ 03Q LT 0 INT 05A SECICA                   I  000110101CAL LECARABAYA 0000 DPT 01DE01 OF 1 OFI PSO 11000110101CASTILLO                                               0000000000000000000000000000
1910000191000009478583A00050505050GOBIERNO                      00040404040MONTOYA  DEL NILO                                           JULIA                         AV MOLINA 123 DPT 101 OF A00 PSO 020 MZ 03Q LT 0 INT 05A SECICA                   I  000110101CAL LECARABAYA 0000 DPT 01DE01 OF 1 OFI PSO 11000110101CASTILLO                                               0000000000000000000000000000
1910000191000009478584A00050505050GOBIERNO                      00040404040MIRO     GARCIA                                             ROCIO                         AV MOLINA 123 DPT 101 OF A00 PSO 020 MZ 03Q LT 0 INT 05A SECICA                   I  000110101CAL LECARABAYA 0000 DPT 01DE01 OF 1 OFI PSO 11000110101CASTILLO                                               0000000000000000000000000000
1910000191000009478585A00050505050GOBIERNO                      00040404040PAYTA    INGA                                               JULIAN                        AV MOLINA 123 DPT 101 OF A00 PSO 020 MZ 03Q LT 0 INT 05A SECICA                   I  000110101CAL LECARABAYA 0000 DPT 01DE01 OF 1 OFI PSO 11000110101CASTILLO                                               0000000000000000000000000000
1910000191000009478586A00050505050GOBIERNO                      00040404040MILLAGUI REVOREDO                                           SANDRO                        AV MOLINA 123 DPT 101 OF A00 PSO 020 MZ 03Q LT 0 INT 05A SECICA                   I  000110101CAL LECARABAYA 0000 DPT 01DE01 OF 1 OFI PSO 11000110101CASTILLO                                               0000000000000000000000000000
1910000191000009478587A00050505050GOBIERNO                      00040404040CLEMENTE TAVARA                                             GEORGE                        AV MOLINA 123 DPT 101 OF A00 PSO 020 MZ 03Q LT 0 INT 05A SECICA                   I  000110101CAL LECARABAYA 0000 DPT 01DE01 OF 1 OFI PSO 11000110101CASTILLO                                               0000000000000000000000000000
1910000191000009478589A00050505050GOBIERNO                      00040404040JUAREZ   ROA                                                VANIA                         AV MOLINA 123 DPT 101 OF A00 PSO 020 MZ 03Q LT 0 INT 05A SECICA                   I  000110101CAL LECARABAYA 0000 DPT 01DE01 OF 1 OFI PSO 11000110101CASTILLO                                               0000000000000000000000000000
1910000191000009478590A00050505050GOBIERNO                      00040404040IBARRA   JIMENEZ                                            CHECHO                        AV MOLINA 123 DPT 101 OF A00 PSO 020 MZ 03Q LT 0 INT 05A SECICA                   I  000110101CAL LECARABAYA 0000 DPT 01DE01 OF 1 OFI PSO 11000110101CASTILLO                                               0000000000000000000000000000
1910000191000009478591A00050505050GOBIERNO                      00040404040LEE      CARBAJAL                                           DINO                          AV MOLINA 123 DPT 101 OF A00 PSO 020 MZ 03Q LT 0 INT 05A SECICA                   I  000110101CAL LECARABAYA 0000 DPT 01DE01 OF 1 OFI PSO 11000110101CASTILLO                                               0000000000000000000000000000
1910000191000009478592A00050505050GOBIERNO                      00040404040KOO      SIU                                                MARCIA                        AV MOLINA 123 DPT 101 OF A00 PSO 020 MZ 03Q LT 0 INT 05A SECICA                   I  000110101CAL LECARABAYA 0000 DPT 01DE01 OF 1 OFI PSO 11000110101CASTILLO                                               0000000000000000000000000000
1910000191000009478593A00050505050GOBIERNO                      00040404040MESA     KUKURELLO                                          IVAN                          AV MOLINA 123 DPT 101 OF A00 PSO 020 MZ 03Q LT 0 INT 05A SECICA                   I  000110101CAL LECARABAYA 0000 DPT 01DE01 OF 1 OFI PSO 11000110101CASTILLO                                               0000000000000000000000000000
1910000191000009478594A00050505050GOBIERNO                      00040404040RIVERA   LEE                                                DARIO                         AV MOLINA 123 DPT 101 OF A00 PSO 020 MZ 03Q LT 0 INT 05A SECICA                   I  000110101CAL LECARABAYA 0000 DPT 01DE01 OF 1 OFI PSO 11000110101CASTILLO                                               0000000000000000000000000000
1910000191000009478595A00050505050GOBIERNO                      00040404040RIOJA    DEL POZO                                           LUCIA                         AV MOLINA 123 DPT 101 OF A00 PSO 020 MZ 03Q LT 0 INT 05A SECICA                   I  000110101CAL LECARABAYA 0000 DPT 01DE01 OF 1 OFI PSO 11000110101CASTILLO                                               0000000000000000000000000000
1910000191000009478596A00050505050GOBIERNO                      00040404040MENA     TELLO                                              ROSARIO                       AV MOLINA 123 DPT 101 OF A00 PSO 020 MZ 03Q LT 0 INT 05A SECICA                   I  000110101CAL LECARABAYA 0000 DPT 01DE01 OF 1 OFI PSO 11000110101CASTILLO                                               0000000000000000000000000000
1910000191000009478597A00050505050GOBIERNO                      00040404040PERES    CHUNGA                                             PABLO                         AV MOLINA 123 DPT 101 OF A00 PSO 020 MZ 03Q LT 0 INT 05A SECICA                   I  000110101CAL LECARABAYA 0000 DPT 01DE01 OF 1 OFI PSO 11000110101CASTILLO                                               0000000000000000000000000000
1910000191000009478598A00050505050GOBIERNO                      00040404040MITO     DURAND                                             JOSUE                         AV MOLINA 123 DPT 101 OF A00 PSO 020 MZ 03Q LT 0 INT 05A SECICA                   I  000110101CAL LECARABAYA 0000 DPT 01DE01 OF 1 OFI PSO 11000110101CASTILLO                                               0000000000000000000000000000
1910000191000009478599A00050505050GOBIERNO                      00040404040CRUZ     CRUZ                                               IVAN                          AV MOLINA 123 DPT 101 OF A00 PSO 020 MZ 03Q LT 0 INT 05A SECICA                   I  000110101CAL LECARABAYA 0000 DPT 01DE01 OF 1 OFI PSO 11000110101CASTILLO                                               0000000000000000000000000000
1910000191000009478601A00050505050GOBIERNO                      00040404040PERALES  MESA                                               JOSE LUIS                     AV MOLINA 123 DPT 101 OF A00 PSO 020 MZ 03Q LT 0 INT 05A SECICA                   I  000110101CAL LECARABAYA 0000 DPT 01DE01 OF 1 OFI PSO 11000110101CASTILLO                                               0000000000000000000000000000
1910000191000009478602A00050505050GOBIERNO                      00040404040MERINO   PINZON                                             RAUL                          AV MOLINA 123 DPT 101 OF A00 PSO 020 MZ 03Q LT 0 INT 05A SEC.                     .  000110101CAL LECARABAYA 0000 DPT 01DE01 OF 1 OFI PSO 11000110101CASTILLO                                               0000000000000000000000000000
1910000191000009478603A00050505050GOBIERNO                      00040404040GALENO   SANCHEZ                                            CARLA                         AV MOLINA 123 DPT 101 OF A00 PSO 020 MZ 03Q LT 0 INT 05A SEC.                     .  000110101CAL LECARABAYA 0000 DPT 01DE01 OF 1 OFI PSO 11000110101CASTILLO                                               0000000000000000000000000000
1910000191000009478604A00050505050GOBIERNO                      00040404040SAENZ    ROJAS                                              MARIA                         AV MOLINA 123 DPT 101 OF A00 PSO 020 MZ 03Q LT 0 INT 05A SEC.                     .  000110101CAL LECARABAYA 0000 DPT 01DE01 OF 1 OFI PSO 11000110101CASTILLO                                               0000000000000000000000000000
1910000191000009478605A00050505050GOBIERNO                      00040404040PAZ      JIMENEZ                                            PABLO                         AV MOLINA 123 DPT 101 OF A00 PSO 020 MZ 03Q LT 0 INT 05A SEC.                     .  000110101CAL LECARABAYA 0000 DPT 01DE01 OF 1 OFI PSO 11000110101CASTILLO                                               0000000000000000000000000000
1910000191000009478607A00050505050GOBIERNO                      00040404040BACA     MEJIA                                              VIVIANA                       AV MOLINA 123 DPT 101 OF A00 PSO 020 MZ 03Q LT 0 INT 05A SEC.                     .  000110101CAL LECARABAYA 0000 DPT 01DE01 OF 1 OFI PSO 11000110101CASTILLO                                               0000000000000000000000000000
1910000191000009478608A00050505050GOBIERNO                      00040404040MENDO    MESA                                               JESUS                         AV MOLINA 123 DPT 101 OF A00 PSO 020 MZ 03Q LT 0 INT 05A SEC.                     .  000110101CAL LECARABAYA 0000 DPT 01DE01 OF 1 OFI PSO 11000110101CASTILLO                                               0000000000000000000000000000
1910000191000009478609A00050505050GOBIERNO                      00040404040PINO     ZOGA                                               GIULIANO                      AV MOLINA 123 DPT 101 OF A00 PSO 020 MZ 03Q LT 0 INT 05A SEC.                     .  000110101CAL LECARABAYA 0000 DPT 01DE01 OF 1 OFI PSO 11000110101CASTILLO                                               0000000000000000000000000000
1910000191000009478610A00050505050GOBIERNO                      00040404040RUPA     DELGADO                                            CARMELA                       AV MOLINA 123 DPT 101 OF A00 PSO 020 MZ 03Q LT 0 INT 05A SEC.                     .  000110101CAL LECARABAYA 0000 DPT 01DE01 OF 1 OFI PSO 11000110101CASTILLO                                               0000000000000000000000000000
1910000191000009478611A00050505050GOBIERNO                      00040404040MESA     TAVARA                                             PATTY                         AV MOLINA 123 DPT 101 OF A00 PSO 020 MZ 03Q LT 0 INT 05A SEC.                     .  000110101CAL LECARABAYA 0000 DPT 01DE01 OF 1 OFI PSO 11000110101CASTILLO                                               0000000000000000000000000000
1910000191000009478612A00050505050GOBIERNO                      00040404040PITIN    MENA                                               PITER                         AV MOLINA 123 DPT 101 OF A00 PSO 020 MZ 03Q LT 0 INT 05A SEC.                     .  000110101CAL LECARABAYA 0000 DPT 01DE01 OF 1 OFI PSO 11000110101CASTILLO                                               0000000000000000000000000000
1910000191000009478613A00050505050GOBIERNO                      00040404040MILPA    ROSADO                                             PABLO                         AV MOLINA 123 DPT 101 OF A00 PSO 020 MZ 03Q LT 0 INT 05A SEC.                     .  000110101CAL LECARABAYA 0000 DPT 01DE01 OF 1 OFI PSO 11000110101CASTILLO                                               0000000000000000000000000000
1910000191000009478614A00050505050GOBIERNO                      00040404040MASO     TELLO                                              PEDRO                         AV MOLINA 123 DPT 101 OF A00 PSO 020 MZ 03Q LT 0 INT 05A SEC.                     .  000110101CAL LECARABAYA 0000 DPT 01DE01 OF 1 OFI PSO 11000110101CASTILLO                                               0000000000000000000000000000
1910000191000009478615A00050505050GOBIERNO                      00040404040ZACAPA   PINO                                               CAROLA                        AV MOLINA 123 DPT 101 OF A00 PSO 020 MZ 03Q LT 0 INT 05A SEC.                     .  000110101CAL LECARABAYA 0000 DPT 01DE01 OF 1 OFI PSO 11000110101CASTILLO                                               0000000000000000000000000000
1910000191000009478616A00050505050GOBIERNO                      00040404040SUMA     RAVELLO                                            JULIA                         AV MOLINA 123 DPT 101 OF A00 PSO 020 MZ 03Q LT 0 INT 05A SEC.                     .  000110101CAL LECARABAYA 0000 DPT 01DE01 OF 1 OFI PSO 11000110101CASTILLO                                               0000000000000000000000000000
1910000191000009478617A00050505050GOBIERNO                      00040404040SOTERO   HERRERA                                            SAUL                          AV MOLINA 123 DPT 101 OF A00 PSO 020 MZ 03Q LT 0 INT 05A SEC.                     .  000110101CAL LECARABAYA 0000 DPT 01DE01 OF 1 OFI PSO 11000110101CASTILLO                                               0000000000000000000000000000
1910000191000009478618A00050505050GOBIERNO                      00040404040STUAR    LINO                                               MARLON                        AV MOLINA 123 DPT 101 OF A00 PSO 020 MZ 03Q LT 0 INT 05A SEC.                     .  000110101CAL LECARABAYA 0000 DPT 01DE01 OF 1 OFI PSO 11000110101CASTILLO                                               0000000000000000000000000000
1910000191000009478619A00050505050GOBIERNO                      00040404040VEGA     MENDO                                              MACARENA                      AV MOLINA 123 DPT 101 OF A00 PSO 020 MZ 03Q LT 0 INT 05A SEC.                     .  000110101CAL LECARABAYA 0000 DPT 01DE01 OF 1 OFI PSO 11000110101CASTILLO                                               0000000000000000000000000000
1910000191000009478620A00050505050GOBIERNO                      00040404040MIU      PARCO                                              JUDA                          AV MOLINA 123 DPT 101 OF A00 PSO 020 MZ 03Q LT 0 INT 05A SEC.                     .  000110101CAL LECARABAYA 0000 DPT 01DE01 OF 1 OFI PSO 11000110101CASTILLO                                               0000000000000000000000000000
1910000191000009478621A00050505050GOBIERNO                      00040404040ROA      ZAENS                                              SERAPIO                       AV MOLINA 123 DPT 101 OF A00 PSO 020 MZ 03Q LT 0 INT 05A SEC.                     .  000110101CAL LECARABAYA 0000 DPT 01DE01 OF 1 OFI PSO 11000110101CASTILLO                                               0000000000000000000000000000
1910000191000009478622A00050505050GOBIERNO                      00040404040CASTRO   DELGADO                                            CARMELA                       AV MOLINA 123 DPT 101 OF A00 PSO 020 MZ 03Q LT 0 INT 05A SEC.                     .  000110101CAL LECARABAYA 0000 DPT 01DE01 OF 1 OFI PSO 11000110101CASTILLO                                               0000000000000000000000000000
1910000191000009478623A00050505050GOBIERNO                      00040404040PEREZ    PRADO                                              ESTEFANIA                     AV MOLINA 123 DPT 101 OF A00 PSO 020 MZ 03Q LT 0 INT 05A SEC.                     .  000110101CAL LECARABAYA 0000 DPT 01DE01 OF 1 OFI PSO 11000110101CASTILLO                                               0000000000000000000000000000
1910000191000009478624A00050505050GOBIERNO                      00040404040MINA     GUTIERRES                                          VIVIANA                       AV MOLINA 123 DPT 101 OF A00 PSO 020 MZ 03Q LT 0 INT 05A SEC.                     .  000110101CAL LECARABAYA 0000 DPT 01DE01 OF 1 OFI PSO 11000110101CASTILLO                                               0000000000000000000000000000
1910000191000009478625A00050505050GOBIERNO                      00040404040PANTOJA  GUERRERO                                           PITER                         AV MOLINA 123 DPT 101 OF A00 PSO 020 MZ 03Q LT 0 INT 05A SEC.                     .  000110101CAL LECARABAYA 0000 DPT 01DE01 OF 1 OFI PSO 11000110101CASTILLO                                               0000000000000000000000000000
1910000191000009478626A00050505050GOBIERNO                      00040404040MERINO   CASTRO                                             PAUL                          AV MOLINA 123 DPT 101 OF A00 PSO 020 MZ 03Q LT 0 INT 05A SEC.                     .  000110101CAL LECARABAYA 0000 DPT 01DE01 OF 1 OFI PSO 11000110101CASTILLO                                               0000000000000000000000000000
1910000191000009478627A00050505050GOBIERNO                      00040404040MALTA    TAVARA                                             MAX                           AV MOLINA 123 DPT 101 OF A00 PSO 020 MZ 03Q LT 0 INT 05A SEC.                     .  000110101CAL LECARABAYA 0000 DPT 01DE01 OF 1 OFI PSO 11000110101CASTILLO                                               0000000000000000000000000000
1910000191000009478628A00050505050GOBIERNO                      00040404040GALLEGOS MURO                                               URSULA                        AV MOLINA 123 DPT 101 OF A00 PSO 020 MZ 03Q LT 0 INT 05A SEC.                     .  000110101CAL LECARABAYA 0000 DPT 01DE01 OF 1 OFI PSO 11000110101CASTILLO                                               0000000000000000000000000000
1910000191000009478629A00050505050GOBIERNO                      00040404040SANCHO   RAMIREZ                                            MARIANA                       AV MOLINA 123 DPT 101 OF A00 PSO 020 MZ 03Q LT 0 INT 05A SEC.                     .  000110101CAL LECARABAYA 0000 DPT 01DE01 OF 1 OFI PSO 11000110101CASTILLO                                               0000000000000000000000000000
1910000191000009478630A00050505050GOBIERNO                      00040404040PINO     FUSTER                                             JUAN                          AV MOLINA 123 DPT 101 OF A00 PSO 020 MZ 03Q LT 0 INT 05A SEC.                     .  000110101CAL LECARABAYA 0000 DPT 01DE01 OF 1 OFI PSO 11000110101CASTILLO                                               0000000000000000000000000000
1910000191000009478631A00050505050GOBIERNO                      00040404040SERVAT   LIU                                                MARGARITO                     AV MOLINA 123 DPT 101 OF A00 PSO 020 MZ 03Q LT 0 INT 05A SEC.                     .  000110101CAL LECARABAYA 0000 DPT 01DE01 OF 1 OFI PSO 11000110101CASTILLO                                               0000000000000000000000000000
1910000191000009478632A00050505050GOBIERNO                      00040404040TELLO    MESA                                               DINA                          AV MOLINA 123 DPT 101 OF A00 PSO 020 MZ 03Q LT 0 INT 05A SEC.                     .  000110101CAL LECARABAYA 0000 DPT 01DE01 OF 1 OFI PSO 11000110101CASTILLO                                               0000000000000000000000000000
1910000191000009478633A00050505050GOBIERNO                      00040404040MICA     PINO                                               JEREMIAS                      AV MOLINA 123 DPT 101 OF A00 PSO 020 MZ 03Q LT 0 INT 05A SEC.                     .  000110101CAL LECARABAYA 0000 DPT 01DE01 OF 1 OFI PSO 11000110101CASTILLO                                               0000000000000000000000000000
1910000191000009478634A00050505050GOBIERNO                      00040404040PASOS    ZOSA                                               JESUS                         AV MOLINA 123 DPT 101 OF A00 PSO 020 MZ 03Q LT 0 INT 05A SEC.                     .  000110101CAL LECARABAYA 0000 DPT 01DE01 OF 1 OFI PSO 11000110101CASTILLO                                               0000000000000000000000000000
1910000191000009478635A00050505050GOBIERNO                      00040404040DENEGRI  DUAARTE                                            ROSARIO                       AV MOLINA 123 DPT 101 OF A00 PSO 020 MZ 03Q LT 0 INT 05A SEC.                     .  000110101CAL LECARABAYA 0000 DPT 01DE01 OF 1 OFI PSO 11000110101CASTILLO                                               0000000000000000000000000000
1910000191000009478636A00050505050GOBIERNO                      00040404040VACA     GARRIDO                                            KATTY                         AV MOLINA 123 DPT 101 OF A00 PSO 020 MZ 03Q LT 0 INT 05A SEC.                     .  000110101CAL LECARABAYA 0000 DPT 01DE01 OF 1 OFI PSO 11000110101CASTILLO                                               0000000000000000000000000000
1910000191000009478637A00050505050GOBIERNO                      00040404040ILLANES  SEGURA                                             PERICO                        AV MOLINA 123 DPT 101 OF A00 PSO 020 MZ 03Q LT 0 INT 05A SEC.                     .  000110101CAL LECARABAYA 0000 DPT 01DE01 OF 1 OFI PSO 11000110101CASTILLO                                               0000000000000000000000000000
1910000191000009478638A00050505050GOBIERNO                      00040404040MORENO   MUNOZ                                              MALANIAS                      AV MOLINA 123 DPT 101 OF A00 PSO 020 MZ 03Q LT 0 INT 05A SEC.                     .  000110101CAL LECARABAYA 0000 DPT 01DE01 OF 1 OFI PSO 11000110101CASTILLO                                               0000000000000000000000000000
1910000191000009478639A00050505050GOBIERNO                      00040404040PAZ      PAZ                                                JUDA                          AV MOLINA 123 DPT 101 OF A00 PSO 020 MZ 03Q LT 0 INT 05A SEC.                     .  000110101CAL LECARABAYA 0000 DPT 01DE01 OF 1 OFI PSO 11000110101CASTILLO                                               0000000000000000000000000000
1910000191000009478640A00050505050GOBIERNO                      00040404040GARRIDO  LEDESMA                                            GISELA                        AV MOLINA 123 DPT 101 OF A00 PSO 020 MZ 03Q LT 0 INT 05A SEC.                     .  000110101CAL LECARABAYA 0000 DPT 01DE01 OF 1 OFI PSO 11000110101CASTILLO                                               0000000000000000000000000000
1910000191000009478641A00050505050GOBIERNO                      00040404040TORRES   CASTILLO                                           MARIA                         AV MOLINA 123 DPT 101 OF A00 PSO 020 MZ 03Q LT 0 INT 05A SEC.                     .  000110101CAL LECARABAYA 0000 DPT 01DE01 OF 1 OFI PSO 11000110101CASTILLO                                               0000000000000000000000000000
1910000191000009478642A00050505050GOBIERNO                      00040404040BLADES   DEL CARPIO                                         RAMON                         AV MOLINA 123 DPT 101 OF A00 PSO 020 MZ 03Q LT 0 INT 05A SEC.                     .  000110101CAL LECARABAYA 0000 DPT 01DE01 OF 1 OFI PSO 11000110101CASTILLO                                               0000000000000000000000000000
1910000191000009478643A00050505050GOBIERNO                      00040404040DANTE    WONG                                               LUCAS                         AV MOLINA 123 DPT 101 OF A00 PSO 020 MZ 03Q LT 0 INT 05A SEC.                     .  000110101CAL LECARABAYA 0000 DPT 01DE01 OF 1 OFI PSO 11000110101CASTILLO                                               0000000000000000000000000000
1910000191000009478644A00050505050GOBIERNO                      00040404040VIZO     BACA                                               ROCIO                         AV MOLINA 123 DPT 101 OF A00 PSO 020 MZ 03Q LT 0 INT 05A SEC.                     .  000110101CAL LECARABAYA 0000 DPT 01DE01 OF 1 OFI PSO 11000110101CASTILLO                                               0000000000000000000000000000
1910000191000009478645A00050505050GOBIERNO                      00040404040MANSILLA PERES                                              JULIAN                        AV MOLINA 123 DPT 101 OF A00 PSO 020 MZ 03Q LT 0 INT 05A SEC.                     .  000110101CAL LECARABAYA 0000 DPT 01DE01 OF 1 OFI PSO 11000110101CASTILLO                                               0000000000000000000000000000
1910000191000009478646A00050505050GOBIERNO                      00040404040ZUMARAN  REYNOSO                                            WILMAR                        AV MOLINA 123 DPT 101 OF A00 PSO 020 MZ 03Q LT 0 INT 05A SEC.                     .  000110101CAL LECARABAYA 0000 DPT 01DE01 OF 1 OFI PSO 11000110101CASTILLO                                               0000000000000000000000000000
1910000191000009478651A00050505050GOBIERNO                      00040404040MESA     PINZON                                             CARLOS                        AV MOLINA 123 DPT 101 OF A00 PSO 020 MZ 03Q LT 0 INT 05A SEC.                     .  000110101CAL LECARABAYA 0000 DPT 01DE01 OF 1 OFI PSO 11000110101CASTILLO                                               0000000000000000000000000000
1910000191000009478652A00050505050GOBIERNO                      00040404040GARZA    SANCHEZ                                            KARINA                        AV MOLINA 123 DPT 101 OF A00 PSO 020 MZ 03Q LT 0 INT 05A SEC.                     .  000110101CAL LECARABAYA 0000 DPT 01DE01 OF 1 OFI PSO 11000110101CASTILLO                                               0000000000000000000000000000
1910000191000009478653A00050505050GOBIERNO                      00040404040SANTOS   ROJAS                                              MARIELA                       AV MOLINA 123 DPT 101 OF A00 PSO 020 MZ 03Q LT 0 INT 05A SEC.                     .  000110101CAL LECARABAYA 0000 DPT 01DE01 OF 1 OFI PSO 11000110101CASTILLO                                               0000000000000000000000000000
1910000191000009478654A00050505050GOBIERNO                      00040404040POTRO    JIMENEZ                                            JUAN                          AV MOLINA 123 DPT 101 OF A00 PSO 020 MZ 03Q LT 0 INT 05A SEC.                     .  000110101CAL LECARABAYA 0000 DPT 01DE01 OF 1 OFI PSO 11000110101CASTILLO                                               0000000000000000000000000000
1910000191000009478655A00050505050GOBIERNO                      00040404040SERPA    LEE                                                MARIANO                       AV MOLINA 123 DPT 101 OF A00 PSO 020 MZ 03Q LT 0 INT 05A SEC.                     .  000110101CAL LECARABAYA 0000 DPT 01DE01 OF 1 OFI PSO 11000110101CASTILLO                                               0000000000000000000000000000
1910000191000009478656A00050505050GOBIERNO                      00040404040SALAZAR  MEJIA                                              TATIANA                       AV MOLINA 123 DPT 101 OF A00 PSO 020 MZ 03Q LT 0 INT 05A SEC.                     .  000110101CAL LECARABAYA 0000 DPT 01DE01 OF 1 OFI PSO 11000110101CASTILLO                                               0000000000000000000000000000
1910000191000009478657A00050505050GOBIERNO                      00040404040MORENO   MESA                                               TOMAS                         AV MOLINA 123 DPT 101 OF A00 PSO 020 MZ 03Q LT 0 INT 05A SEC.                     .  000110101CAL LECARABAYA 0000 DPT 01DE01 OF 1 OFI PSO 11000110101CASTILLO                                               0000000000000000000000000000
1910000191000009478658A00050505050GOBIERNO                      00040404040PEREZ    ZOGA                                               JAVIER                        AV MOLINA 123 DPT 101 OF A00 PSO 020 MZ 03Q LT 0 INT 05A SEC.                     .  000110101CAL LECARABAYA 0000 DPT 01DE01 OF 1 OFI PSO 11000110101CASTILLO                                               0000000000000000000000000000
1910000191000009478659A00050505050GOBIERNO                      00040404040ROA      DELGADO                                            ANGELA                        AV MOLINA 123 DPT 101 OF A00 PSO 020 MZ 03Q LT 0 INT 05A SEC.                     .  000110101CAL LECARABAYA 0000 DPT 01DE01 OF 1 OFI PSO 11000110101CASTILLO                                               0000000000000000000000000000
1910000191000009478660A00050505050GOBIERNO                      00040404040NUA      TAVARA                                             PARIS                         AV MOLINA 123 DPT 101 OF A00 PSO 020 MZ 03Q LT 0 INT 05A SEC.                     .  000110101CAL LECARABAYA 0000 DPT 01DE01 OF 1 OFI PSO 11000110101CASTILLO                                               0000000000000000000000000000
1910000191000009478661A00050505050GOBIERNO                      00040404040POMA     MENA                                               MARCO                         AV MOLINA 123 DPT 101 OF A00 PSO 020 MZ 03Q LT 0 INT 05A SEC.                     .  000110101CAL LECARABAYA 0000 DPT 01DE01 OF 1 OFI PSO 11000110101CASTILLO                                               0000000000000000000000000000
1910000191000009478662A00050505050GOBIERNO                      00040404040MILLA    ROSADO                                             TOBIAS                        AV MOLINA 123 DPT 101 OF A00 PSO 020 MZ 03Q LT 0 INT 05A SEC.                     .  000110101CAL LECARABAYA 0000 DPT 01DE01 OF 1 OFI PSO 11000110101CASTILLO                                               0000000000000000000000000000
1910000191000009478663A00050505050GOBIERNO                      00040404040AQUINO   TELLO                                              JULIO                         AV MOLINA 123 DPT 101 OF A00 PSO 020 MZ 03Q LT 0 INT 05A SEC.                     .  000110101CAL LECARABAYA 0000 DPT 01DE01 OF 1 OFI PSO 11000110101CASTILLO                                               0000000000000000000000000000
1910000191000009478664A00050505050GOBIERNO                      00040404040ZADIAZ   PINO                                               KAREN                         AV MOLINA 123 DPT 101 OF A00 PSO 020 MZ 03Q LT 0 INT 05A SEC.                     .  000110101CAL LECARABAYA 0000 DPT 01DE01 OF 1 OFI PSO 11000110101CASTILLO                                               0000000000000000000000000000
1910000191000009478665A00050505050GOBIERNO                      00040404040SAENZ    RAVELLO                                            RINA                          AV MOLINA 123 DPT 101 OF A00 PSO 020 MZ 03Q LT 0 INT 05A SEC.                     .  000110101CAL LECARABAYA 0000 DPT 01DE01 OF 1 OFI PSO 11000110101CASTILLO                                               0000000000000000000000000000
1910000191000009478666A00050505050GOBIERNO                      00040404040SOLORZANOHERRERA                                            SANTIAGO                      AV MOLINA 123 DPT 101 OF A00 PSO 020 MZ 03Q LT 0 INT 05A SEC.                     .  000110101CAL LECARABAYA 0000 DPT 01DE01 OF 1 OFI PSO 11000110101CASTILLO                                               0000000000000000000000000000
1910000191000009478667A00050505050GOBIERNO                      00040404040SILVA    LINO                                               MARIO                         AV MOLINA 123 DPT 101 OF A00 PSO 020 MZ 03Q LT 0 INT 05A SEC.                     .  000110101CAL LECARABAYA 0000 DPT 01DE01 OF 1 OFI PSO 11000110101CASTILLO                                               0000000000000000000000000000
1910000191000009478668A00050505050GOBIERNO                      00040404040SALAS    MENDO                                              MARINA                        AV MOLINA 123 DPT 101 OF A00 PSO 020 MZ 03Q LT 0 INT 05A SEC.                     .  000110101CAL LECARABAYA 0000 DPT 01DE01 OF 1 OFI PSO 11000110101CASTILLO                                               0000000000000000000000000000
1910000191000009478669A00050505050GOBIERNO                      00040404040PRADO    PAZ                                                JUAN                          AV MOLINA 123 DPT 101 OF A00 PSO 020 MZ 03Q LT 0 INT 05A SEC.                     .  000110101CAL LECARABAYA 0000 DPT 01DE01 OF 1 OFI PSO 11000110101CASTILLO                                               0000000000000000000000000000
1910000191000009478670A00050505050GOBIERNO                      00040404040RODRIGUEZSALAS                                              TOMAS                         AV MOLINA 123 DPT 101 OF A00 PSO 020 MZ 03Q LT 0 INT 05A SEC.                     .  000110101CAL LECARABAYA 0000 DPT 01DE01 OF 1 OFI PSO 11000110101CASTILLO                                               0000000000000000000000000000
1910000191000009478671A00050505050GOBIERNO                      00040404040CASO     DELGADO                                            ANA                           AV MOLINA 123 DPT 101 OF A00 PSO 020 MZ 03Q LT 0 INT 05A SEC.                     .  000110101CAL LECARABAYA 0000 DPT 01DE01 OF 1 OFI PSO 11000110101CASTILLO                                               0000000000000000000000000000
1910000191000009478672A00050505050GOBIERNO                      00040404040PINO     PRADO                                              ESTELA                        AV MOLINA 123 DPT 101 OF A00 PSO 020 MZ 03Q LT 0 INT 05A SEC.                     .  000110101CAL LECARABAYA 0000 DPT 01DE01 OF 1 OFI PSO 11000110101CASTILLO                                               0000000000000000000000000000
1910000191000009478673A00050505050GOBIERNO                      00040404040COPELLO  GUTIERRES                                          AMY                           AV MOLINA 123 DPT 101 OF A00 PSO 020 MZ 03Q LT 0 INT 05A SEC.                     .  000110101CAL LECARABAYA 0000 DPT 01DE01 OF 1 OFI PSO 11000110101CASTILLO                                               0000000000000000000000000000
1910000191000009478674A00050505050GOBIERNO                      00040404040PINTO    GUERRERO                                           PAUL                          AV MOLINA 123 DPT 101 OF A00 PSO 020 MZ 03Q LT 0 INT 05A SEC.                     .  000110101CAL LECARABAYA 0000 DPT 01DE01 OF 1 OFI PSO 11000110101CASTILLO                                               0000000000000000000000000000
1910000191000009478675A00050505050GOBIERNO                      00040404040MESA     CASTRO                                             JOEL                          AV MOLINA 123 DPT 101 OF A00 PSO 020 MZ 03Q LT 0 INT 05A SEC.                     .  000110101CAL LECARABAYA 0000 DPT 01DE01 OF 1 OFI PSO 11000110101CASTILLO                                               0000000000000000000000000000
1910000191000009478676A00050505050GOBIERNO                      00040404040MASA     TAVARA                                             MAXIMILIANO                   AV MOLINA 123 DPT 101 OF A00 PSO 020 MZ 03Q LT 0 INT 05A SEC.                     .  000110101CAL LECARABAYA 0000 DPT 01DE01 OF 1 OFI PSO 11000110101CASTILLO                                               0000000000000000000000000000
1910000191000009478677A00050505050GOBIERNO                      00040404040GALENO   MURO                                               VALERIA                       AV MOLINA 123 DPT 101 OF A00 PSO 020 MZ 03Q LT 0 INT 05A SEC.                     .  000110101CAL LECARABAYA 0000 DPT 01DE01 OF 1 OFI PSO 11000110101CASTILLO                                               0000000000000000000000000000
1910000191000009478678A00050505050GOBIERNO                      00040404040SANTOS   RAMIREZ                                            MARIELLA                      AV MOLINA 123 DPT 101 OF A00 PSO 020 MZ 03Q LT 0 INT 05A SEC.                     .  000110101CAL LECARABAYA 0000 DPT 01DE01 OF 1 OFI PSO 11000110101CASTILLO                                               0000000000000000000000000000
1910000191000009478679A00050505050GOBIERNO                      00040404040PEREZ    FUSTER                                             JOEL                          AV MOLINA 123 DPT 101 OF A00 PSO 020 MZ 03Q LT 0 INT 05A SEC.                     .  000110101CAL LECARABAYA 0000 DPT 01DE01 OF 1 OFI PSO 11000110101CASTILLO                                               0000000000000000000000000000
1910000191000009478680A00050505050GOBIERNO                      00040404040SENKO    LEE                                                DARIO                         AV MOLINA 123 DPT 101 OF A00 PSO 020 MZ 03Q LT 0 INT 05A SEC.                     .  000110101CAL LECARABAYA 0000 DPT 01DE01 OF 1 OFI PSO 11000110101CASTILLO                                               0000000000000000000000000000
1910000191000009478681A00050505050GOBIERNO                      00040404040TASSO    MURGIA                                             CARMEN                        AV MOLINA 123 DPT 101 OF A00 PSO 020 MZ 03Q LT 0 INT 05A SEC.                     .  000110101CAL LECARABAYA 0000 DPT 01DE01 OF 1 OFI PSO 11000110101CASTILLO                                               0000000000000000000000000000
1910000191000009478682A00050505050GOBIERNO                      00040404040TORO     PINO                                               JEFRI                         AV MOLINA 123 DPT 101 OF A00 PSO 020 MZ 03Q LT 0 INT 05A SEC.                     .  000110101CAL LECARABAYA 0000 DPT 01DE01 OF 1 OFI PSO 11000110101CASTILLO                                               0000000000000000000000000000
1910000191000009478683A00050505050GOBIERNO                      00040404040RIOS     ZOSA                                               JEREMIAS                      AV MOLINA 123 DPT 101 OF A00 PSO 020 MZ 03Q LT 0 INT 05A SEC.                     .  000110101CAL LECARABAYA 0000 DPT 01DE01 OF 1 OFI PSO 11000110101CASTILLO                                               0000000000000000000000000000
1910000191000009478684A00050505050GOBIERNO                      00040404040DESSA    DUAARTE                                            DANIELA                       AV MOLINA 123 DPT 101 OF A00 PSO 020 MZ 03Q LT 0 INT 05A SEC.                     .  000110101CAL LECARABAYA 0000 DPT 01DE01 OF 1 OFI PSO 11000110101CASTILLO                                               0000000000000000000000000000
1910000191000009478685A00050505050GOBIERNO                      00040404040SIU      GARAY                                              KAREN                         AV MOLINA 123 DPT 101 OF A00 PSO 020 MZ 03Q LT 0 INT 05A SEC.                     .  000110101CAL LECARABAYA 0000 DPT 01DE01 OF 1 OFI PSO 11000110101CASTILLO                                               0000000000000000000000000000
1910000191000009478686A00050505050GOBIERNO                      00040404040COLLADO  SEGURA                                             PEDRO                         AV MOLINA 123 DPT 101 OF A00 PSO 020 MZ 03Q LT 0 INT 05A SEC.                     .  000110101CAL LECARABAYA 0000 DPT 01DE01 OF 1 OFI PSO 11000110101CASTILLO                                               0000000000000000000000000000
1910000191000009478687A00050505050GOBIERNO                      00040404040MONROY   SOTO                                               JORGE                         AV MOLINA 123 DPT 101 OF A00 PSO 020 MZ 03Q LT 0 INT 05A SEC.                     .  000110101CAL LECARABAYA 0000 DPT 01DE01 OF 1 OFI PSO 11000110101CASTILLO                                               0000000000000000000000000000
1910000191000009478688A00050505050GOBIERNO                      00040404040POZO     PAZ                                                LUCIO                         AV MOLINA 123 DPT 101 OF A00 PSO 020 MZ 03Q LT 0 INT 05A SEC.                     .  000110101CAL LECARABAYA 0000 DPT 01DE01 OF 1 OFI PSO 11000110101CASTILLO                                               0000000000000000000000000000
1910000191000009478689A00050505050GOBIERNO                      00040404040TAVARA   LECCA                                              LUCIA                         AV MOLINA 123 DPT 101 OF A00 PSO 020 MZ 03Q LT 0 INT 05A SEC.                     .  000110101CAL LECARABAYA 0000 DPT 01DE01 OF 1 OFI PSO 11000110101CASTILLO                                               0000000000000000000000000000
1910000191000009478690A00050505050GOBIERNO                      00040404040CARPIO   CASTILLO                                           MERCEDES                      AV MOLINA 123 DPT 101 OF A00 PSO 020 MZ 03Q LT 0 INT 05A SEC.                     .  000110101CAL LECARABAYA 0000 DPT 01DE01 OF 1 OFI PSO 11000110101CASTILLO                                               0000000000000000000000000000
1910000191000009478691A00050505050GOBIERNO                      00040404040WARTHON  DELGADO                                            ALDO                          AV MOLINA 123 DPT 101 OF A00 PSO 020 MZ 03Q LT 0 INT 05A SEC.                     .  000110101CAL LECARABAYA 0000 DPT 01DE01 OF 1 OFI PSO 11000110101CASTILLO                                               0000000000000000000000000000
1910000191000009478692A00050505050GOBIERNO                      00040404040DANTE    WONG                                               PEDRO                         AV MOLINA 123 DPT 101 OF A00 PSO 020 MZ 03Q LT 0 INT 05A SEC.                     .  000110101CAL LECARABAYA 0000 DPT 01DE01 OF 1 OFI PSO 11000110101CASTILLO                                               0000000000000000000000000000
1910000191000009478693A00050505050GOBIERNO                      00040404040VIZO     BACA                                               ROSMERY                       AV MOLINA 123 DPT 101 OF A00 PSO 020 MZ 03Q LT 0 INT 05A SEC.                     .  000110101CAL LECARABAYA 0000 DPT 01DE01 OF 1 OFI PSO 11000110101CASTILLO                                               0000000000000000000000000000
1910000191000009478694A00050505050GOBIERNO                      00040404040MANSILLA PERES                                              JULIO                         AV MOLINA 123 DPT 101 OF A00 PSO 020 MZ 03Q LT 0 INT 05A SEC.                     .  000110101CAL LECARABAYA 0000 DPT 01DE01 OF 1 OFI PSO 11000110101CASTILLO                                               0000000000000000000000000000
1910000191000009478695A00050505050GOBIERNO                      00040404040ZUMARAN  REYNOSO                                            WILLLIAM                      AV MOLINA 123 DPT 101 OF A00 PSO 020 MZ 03Q LT 0 INT 05A SEC.                     .  000110101CAL LECARABAYA 0000 DPT 01DE01 OF 1 OFI PSO 11000110101CASTILLO                                               0000000000000000000000000000
1910000191000009478696A00050505050GOBIERNO                      00040404040FERRO    DEZA                                               CARMEN                        AV MOLINA 123 DPT 101 OF A00 PSO 020 MZ 03Q LT 0 INT 05A SEC.                     .  000110101CAL LECARABAYA 0000 DPT 01DE01 OF 1 OFI PSO 11000110101CASTILLO                                               0000000000000000000000000000
1910000191000009478697A00050505050GOBIERNO                      00040404040ZARATE   BENDEZU                                            MARY                          AV MOLINA 123 DPT 101 OF A00 PSO 020 MZ 03Q LT 0 INT 05A SEC.                     .  000110101CAL LECARABAYA 0000 DPT 01DE01 OF 1 OFI PSO 11000110101CASTILLO                                               0000000000000000000000000000
1910000191000009478698A00050505050GOBIERNO                      00040404040PERLA    ARAUJO                                             RODRIGO                       AV MOLINA 123 DPT 101 OF A00 PSO 020 MZ 03Q LT 0 INT 05A SEC.                     .  000110101CAL LECARABAYA 0000 DPT 01DE01 OF 1 OFI PSO 11000110101CASTILLO                                               0000000000000000000000000000
1910000191000009478699A00050505050GOBIERNO                      00040404040SOTO     SANCHEZ                                            MARIO                         AV MOLINA 123 DPT 101 OF A00 PSO 020 MZ 03Q LT 0 INT 05A SEC.                     .  000110101CAL LECARABAYA 0000 DPT 01DE01 OF 1 OFI PSO 11000110101CASTILLO                                               0000000000000000000000000000
1910000191000009478918A00050505050GOBIERNO                      00040404040SANCHEZ  SANCHEZ                                            KARINA                        AV MOLINA 123 DPT 101 OF A00 PSO 020 MZ 03Q LT 0 INT 05A SEC.                     .  000110101CAL LECARABAYA 0000 DPT 01DE01 OF 1 OFI PSO 11000110101CASTILLO                                               0000000000000000000000000000
1910000191000009478920A00050505050GOBIERNO                      00040404040SANCHEZ  SUSANIBAR                                          CARLOS                        AV MOLINA 123 DPT 101 OF A00 PSO 020 MZ 03Q LT 0 INT 05A SEC.                     .  000110101CAL LECARABAYA 0000 DPT 01DE01 OF 1 OFI PSO 11000110101CASTILLO                                               0000000000000000000000000000
1910000191000009478921A00050505050GOBIERNO                      00040404040SANCHEZ  SANCHEZ                                            KARINA                        AV MOLINA 123 DPT 101 OF A00 PSO 020 MZ 03Q LT 0 INT 05A SEC.                     .  000110101CAL LECARABAYA 0000 DPT 01DE01 OF 1 OFI PSO 11000110101CASTILLO                                               0000000000000000000000000000
1910000191000009478922A00050505050GOBIERNO                      00040404040SANCHEZ  SUSANIBAR                                          CARLOS                        AV MOLINA 123 DPT 101 OF A00 PSO 020 MZ 03Q LT 0 INT 05A SEC.                     .  000110101CAL LECARABAYA 0000 DPT 01DE01 OF 1 OFI PSO 11000110101CASTILLO                                               0000000000000000000000000000
1910000191000009480004A00050505050GOBIERNO                      00040404040KU       ROSAS                                              LUZ                           AV MOLINA 123 DPT 101 OF A00 PSO 020 MZ 03Q LT 0 INT 05A SEC.                     .  000110101CAL LECARABAYA 0000 DPT 01DE01 OF 1 OFI PSO 11000110101CASTILLO                                               0000000000000000000000000000
1910000191000009480016A00050505050GOBIERNO                      00040404040SEGOVIA  MARTICORENA                                        CARLA                         AV MOLINA 123 DPT 101 OF A00 PSO 020 MZ 03Q LT 0 INT 05A SEC.                     .  000110101CAL LECARABAYA 0000 DPT 01DE01 OF 1 OFI PSO 11000110101CASTILLO                                               0000000000000000000000000000
1910000191000009480017A00050505050GOBIERNO                      00040404040POMA     PASOS                                              EDUARDO                       AV MOLINA 123 DPT 101 OF A00 PSO 020 MZ 03Q LT 0 INT 05A SEC.                     .  000110101CAL LECARABAYA 0000 DPT 01DE01 OF 1 OFI PSO 11000110101CASTILLO                                               0000000000000000000000000000
