202410261917550000000000003790000000000000000000000000000000000000000000000000000000000000000000000000000000000000000000000000000000000000000000000000000000000000000000000000000000000000000000000000000000000000000000000000000000000000000000000000000000000000000000000000000000000000000000000000000000000000000000000000000000000000000000000000000000000000000000000000000000000000000000000000000000000000000000000000000000000000000000000000000000000000000000000000000000000000000000000000000000000000000000000000000000000000000000000000000000000000000000000000000000000000000000000000000000000000000000000000000000000000000000000000000000000000000000000000000000000000000000000000000000000000000000000000000000000000000000000000000000000000000000000000000000000000000000000000000                                                                
60419100053092701000000130010191000041525017001PRUEBA         0000191000041525017STD0000000000000000000000000PA0NN0820231231202312312023123100000000000000000000000020241026202410082024110820240101000000002024010100000000000000000000000001000+0000000100000+0000000000000+000000010000000000000000000000000000000000000000000000000000000000000000000000000000000000000000000000000000000100000+0000000000000+0000000100000+0000000100000+0000000000000+0000000100000+0000000100000+002480014800000000000005309270100000021202312312026013100000000T                   000000000000000000000000                    000000000000000000000000                    000000000000000000000000                    000000000000000000000000 200000000000000000000000000000000    00000000000000000000000000019100000000000000000000000000000000000000000000002024010120240201
60419100053092701000000240010191000009678953001ALAN GARCES    0000191000009678953STD0000000000000000000000000PD0NN0520240209202402122024021200000000000000000000000020241026202402050000000000000000000000002024101819840330202902280000000010000+0000000000000+0000000000000+000000000000000000000000000000000000000000000000000000000000000000000000000000000000000000000000000000000000000000000+0000000009145+0000000000000+0000000000000+0000000009145+0000000000000+0000001000000+000020000100000032150005309270100000658202402092029022800000000T                   000000000000000000000000                    000000000000000000000000                    000000000000000000000000                    000000000000000000000000 000000000000000000000000000000000    00000000SSS000000000000000321500000000000000000000000000000000000000000000002024021420241114
60419100053092701000000250010191000009678954001LUNA SEGURA    0000191000009678954STD0000000000000000000000000PD0NI1620240209202402102024101700000000000000000000000020241026202402040000000000000000000000002024091919740305202902280000000010000+0000000000000+0000000000000+000000000000000000000000000000000000000000000000000000000000000000000000000000000000000000000000000000000000000000000+0000000010000+0000000000000+0000000000000+0000000000000+0000000000000+0000000000000+00002000010000003215                   000000000000000000000000                    000000000000000000000000                    000000000000000000000000                    000000000000000000000000                    000000000000000000000000 000000000000000000000000000000000    00000000SSS000000000000000321500000000000000000000000000000000000000000000002024021220240302
60419100053092701000000570010191000009478477001JOEL MERINO    0000191000009478477STD0000000000000000000000000PD0RI0920240210202402252024101700000000000000000000000020241026202402050000000000000000000000002024090519840330202902280000000010000+0000000000000+0000000000000+000000000000000000000000000000000000000000000000000000000000000000000000000000000000000000000000000000000000000000000+0000000010000+0000000000000+0000000000000+0000000000000+0000000000000+0000000000000+002480014800000032150005309270100000955202402102029022800000000T                   000000000000000000000000                    000000000000000000000000                    000000000000000000000000                    000000000000000000000000 000000000000000000000000000000000    00000000999999999999999990321500000000000000000000000000000000000000000000002024022520240302
60419100053092701000000580010191000009478478001CINDY GALESSE  0000191000009478478STD0000000000000000000000000PD0RI1020240210202402252024101700000000000000000000000020241026202402050000000000000000000000002024090519740305202902280000000012000+0000000000000+0000000000000+000000000000000000000000000000000000000000000000000000000000000000000000000000000000000000000000000000000000000000000+0000000012000+0000000000000+0000000000000+0000000000000+0000000000000+0000000000000+002480014800000032150005309270100000963202402102029022800000000T                   000000000000000000000000                    000000000000000000000000                    000000000000000000000000                    000000000000000000000000 000000000000000000000000000000000    00000000999999999999999990321500000000000000000000000000000000000000000000002024022520240303
60419100053092701000000590010191000009478479001MARIA SUAREZ   0000191000009478479STD0000000000000000000000000PN0RR0020240210202402102024022500000000000000000000000000000000000000000000000000000000000000002024090519740305202902280000000000000+0000000000000+0000000000000+000000000000000000000000000000000000000000000000000000000000000000000000000000000000000000000000000000000000000000000+0000000000000+0000000000000+0000000000000+0000000000000+0000000000000+0000000000000+002480014800000032150005309270100000971202402102029022800000000T                   000000000000000000000000                    000000000000000000000000                    000000000000000000000000                    000000000000000000000000 000000000000000000000000000000000    00000000999999999999999990321500000000000000000000000000000000000000000000000000000000000000
60419100053092701000000750010191000032483106001ABIGAIL ARANDA 0000191000032483106STD0000000000000000000000000PA0NN1620240211202402132024021300000000000000000000000020241026202410162024111620241019000000002024101619250820202910310000001000000+0000000200000+0000000050000+000000015000000000000000000000000000000000000000000000000000000000000000000000000000000000000000000000000000000240000+0000000995770+0000000016000+0000000029000+0000000995770+0000000090000+0000100000000+002480014800000000000005309270100001110202402132029022800000000T0005309270100006390202410262029103100000000T                   000000000000000000000000                    000000000000000000000000                    000000000000000000000000 200000000000000000000000000000000    00000000999999999999999990000000000000000000000000000000000000000000000000002024021520240320
60419100053092701000000760010191000070548130001WESLEY PERALTA 0000191000070548130STD0000000000000000000000000PN0RR0020240211202402112024021100000000000000000000000000000000000000000000000000000000000000002024021619900825202902280000000800000+0000000000000+0000000000000+000000000000000000000000000000000000000000000000000000000000000000000000000000000000000000000000000000000000000000000+0000000798250+0000000000000+0000000000000+0000000798250+0000000000000+0000080000000+002480014800000000000005309270100001128202402112029022800000000T                   000000000000000000000000                    000000000000000000000000                    000000000000000000000000                    000000000000000000000000 000000000000000000000000000000000    00000000999999999999999990000000000000000000000000000000000000000000000000000000000000000000
60419100053092701000000770010191000006009468001PEDRO CHAFLOQUE0000191000006009468STD0000000000000000000000000PA0NK0720240211202410162024102500000000000000000000000020241026202410070000000020241019000000002024102219560412202902280000000750000+0000000000000+0000000000000+000000000000000000000000000000000000000000000000000000000000000000000000000000000000000000000000000000000000000089000+0000000747540+0000000038000+0000000074000+0000000747540+0000000089000+0000075000000+002480014800000000000005309270100001136202402112029022800000000T                   000000000000000000000000                    000000000000000000000000                    000000000000000000000000                    000000000000000000000000 000000000000000000000000000000000    00000000999999999999999990000000000000000000000000000000000000000000000000002024100120241025
60419100053092701000000780010191000007601347001DEMETRIO MANDUJ0000191000007601347STD0000000000000000000000000PA0NN0720240211202410162024101600000000000000000000000020241026202410070000000020241019000000002024102219441017202902280000000900000+0000000000000+0000000000000+000000000000000000000000000000000000000000000000000000000000000000000000000000000000000000000000000000000000000094000+0000000896450+0000000027000+0000000078000+0000000896450+0000000094000+0000090000000+002480014800000000000005309270100001144202402112029022800000000T                   000000000000000000000000                    000000000000000000000000                    000000000000000000000000                    000000000000000000000000 000000000000000000000000000000000    00000000999999999999999990000000000000000000000000000000000000000000000000002024100120241031
60419100053092701000000790010191000006578456001EMILIANO SANCHE0000191000006578456STD0000000000000000000000000PA0NN0720240211202410162024101600000000000000000000000020241026202410070000000020241019000000002024101719480718202902280000000458550+0000000000000+0000000000000+000000000000000000000000000000000000000000000000000000000000000000000000000000000000000000000000000000000000000071000+0000000455980+0000000045000+0000000057000+0000000455980+0000000071000+0000045855000+002480014800000000000005309270100001151202402112029022800000000T                   000000000000000000000000                    000000000000000000000000                    000000000000000000000000                    000000000000000000000000 000000000000000000000000000000000    00000000999999999999999990000000000000000000000000000000000000000000000000000000000000000000
60419100053092701000005430010191000009478490001JOSE MESANO    0000191000009478490STD0000000000000000000000000PN0RR0020240212202402122024021200000000000000000000000000000000000000000000000000000000000000002024021219840330202902280000000000000+0000000000000+0000000000000+000000000000000000000000000000000000000000000000000000000000000000000000000000000000000000000000000000000000000000000+0000000000000+0000000000000+0000000000000+0000000000000+0000000000000+0000000000000+002480014800000012890005309270100005061202402122029022800000000T                   000000000000000000000000                    000000000000000000000000                    000000000000000000000000                    000000000000000000000000 000000000000000000000000000000000    00000000999999999999999990321500000000000000000000000000000000000000000000000000000000000000
60419100053092701000005440010191000009478491001CRISTEL GALLARD0000191000009478491STD0000000000000000000000000PN0RR0020240212202402122024021200000000000000000000000000000000000000000000000000000000000000002024021219740305202902280000000000000+0000000000000+0000000000000+000000000000000000000000000000000000000000000000000000000000000000000000000000000000000000000000000000000000000000000+0000000000000+0000000000000+0000000000000+0000000000000+0000000000000+0000000000000+002480014800000012890005309270100005079202402122029022800000000T                   000000000000000000000000                    000000000000000000000000                    000000000000000000000000                    000000000000000000000000 000000000000000000000000000000000    00000000999999999999999990321500000000000000000000000000000000000000000000000000000000000000
60419100053092701000005450010191000009478492001MIRIAM SUAREZ  0000191000009478492STD0000000000000000000000000PN0RR0020240212202402122024021200000000000000000000000000000000000000000000000000000000000000002024021219740305202902280000000000000+0000000000000+0000000000000+000000000000000000000000000000000000000000000000000000000000000000000000000000000000000000000000000000000000000000000+0000000000000+0000000000000+0000000000000+0000000000000+0000000000000+0000000000000+002480014800000012890005309270100005087202402122029022800000000T                   000000000000000000000000                    000000000000000000000000                    000000000000000000000000                    000000000000000000000000 000000000000000000000000000000000    00000000999999999999999990321500000000000000000000000000000000000000000000000000000000000000
60419100053092701000005460010191000009478502001JUAN MURGIA    0000191000009478502STD0000000000000000000000000PN0RR0020240212202402122024021200000000000000000000000000000000000000000000000000000000000000002024021219840330202902280000000000000+0000000000000+0000000000000+000000000000000000000000000000000000000000000000000000000000000000000000000000000000000000000000000000000000000000000+0000000000000+0000000000000+0000000000000+0000000000000+0000000000000+0000000000000+002480014800000012890005309270100005095202402122029022800000000T                   000000000000000000000000                    000000000000000000000000                    000000000000000000000000                    000000000000000000000000 000000000000000000000000000000000    00000000999999999999999990321500000000000000000000000000000000000000000000000000000000000000
60419100053092701000005470010191000009478503001CAROLA ZAPATA  0000191000009478503STD0000000000000000000000000PN0RR0020240212202402122024021200000000000000000000000000000000000000000000000000000000000000002024021219740305202902280000000000000+0000000000000+0000000000000+000000000000000000000000000000000000000000000000000000000000000000000000000000000000000000000000000000000000000000000+0000000000000+0000000000000+0000000000000+0000000000000+0000000000000+0000000000000+002480014800000012890005309270100005103202402122029022800000000T                   000000000000000000000000                    000000000000000000000000                    000000000000000000000000                    000000000000000000000000 000000000000000000000000000000000    00000000999999999999999990321500000000000000000000000000000000000000000000000000000000000000
60419100053092701000005480010191000009478504001JULIA SUCCA    0000191000009478504STD0000000000000000000000000PN0RR0020240212202402122024021200000000000000000000000000000000000000000000000000000000000000002024021219740305202902280000000000000+0000000000000+0000000000000+000000000000000000000000000000000000000000000000000000000000000000000000000000000000000000000000000000000000000000000+0000000000000+0000000000000+0000000000000+0000000000000+0000000000000+0000000000000+002480014800000012890005309270100005111202402122029022800000000T                   000000000000000000000000                    000000000000000000000000                    000000000000000000000000                    000000000000000000000000 000000000000000000000000000000000    00000000999999999999999990321500000000000000000000000000000000000000000000000000000000000000
60419100053092701000005490010191000009478515001MAX MERCURIO   0000191000009478515STD0000000000000000000000000PN0RR0020240212202402122024021200000000000000000000000000000000000000000000000000000000000000002024021219840330202902280000000000000+0000000000000+0000000000000+000000000000000000000000000000000000000000000000000000000000000000000000000000000000000000000000000000000000000000000+0000000000000+0000000000000+0000000000000+0000000000000+0000000000000+0000000000000+002480014800000012890005309270100005129202402122029022800000000T                   000000000000000000000000                    000000000000000000000000                    000000000000000000000000                    000000000000000000000000 000000000000000000000000000000000    00000000999999999999999990321500000000000000000000000000000000000000000000000000000000000000
60419100053092701000005500010191000009478516001URSULA GALLEGOS0000191000009478516STD0000000000000000000000000PN0RR0020240212202402122024021200000000000000000000000000000000000000000000000000000000000000002024021219740305202902280000000000000+0000000000000+0000000000000+000000000000000000000000000000000000000000000000000000000000000000000000000000000000000000000000000000000000000000000+0000000000000+0000000000000+0000000000000+0000000000000+0000000000000+0000000000000+002480014800000012890005309270100005137202402122029022800000000T                   000000000000000000000000                    000000000000000000000000                    000000000000000000000000                    000000000000000000000000 000000000000000000000000000000000    00000000999999999999999990321500000000000000000000000000000000000000000000000000000000000000
60419100053092701000005510010191000009478517001MARIANA SANCHEZ0000191000009478517STD0000000000000000000000000PN0RR0020240212202402122024021200000000000000000000000000000000000000000000000000000000000000002024021219740305202902280000000000000+0000000000000+0000000000000+000000000000000000000000000000000000000000000000000000000000000000000000000000000000000000000000000000000000000000000+0000000000000+0000000000000+0000000000000+0000000000000+0000000000000+0000000000000+002480014800000012890005309270100005145202402122029022800000000T                   000000000000000000000000                    000000000000000000000000                    000000000000000000000000                    000000000000000000000000 000000000000000000000000000000000    00000000999999999999999990321500000000000000000000000000000000000000000000000000000000000000
60419100053092701000005520010191000009478528001GISELA GAMMA   0000191000009478528STD0000000000000000000000000PN0RR0020240212202402122024021200000000000000000000000000000000000000000000000000000000000000002024021219840330202902280000000000000+0000000000000+0000000000000+000000000000000000000000000000000000000000000000000000000000000000000000000000000000000000000000000000000000000000000+0000000000000+0000000000000+0000000000000+0000000000000+0000000000000+0000000000000+002480014800000012890005309270100005152202402122029022800000000T                   000000000000000000000000                    000000000000000000000000                    000000000000000000000000                    000000000000000000000000 000000000000000000000000000000000    00000000999999999999999990321500000000000000000000000000000000000000000000000000000000000000
60419100053092701000005530010191000009478529001MARIA PEREZ    0000191000009478529STD0000000000000000000000000PN0RR0020240212202402122024021200000000000000000000000000000000000000000000000000000000000000002024021219740305202902280000000000000+0000000000000+0000000000000+000000000000000000000000000000000000000000000000000000000000000000000000000000000000000000000000000000000000000000000+0000000000000+0000000000000+0000000000000+0000000000000+0000000000000+0000000000000+002480014800000012890005309270100005160202402122029022800000000T                   000000000000000000000000                    000000000000000000000000                    000000000000000000000000                    000000000000000000000000 000000000000000000000000000000000    00000000999999999999999990321500000000000000000000000000000000000000000000000000000000000000
60419100053092701000005540010191000009478530001RAMON MESA     0000191000009478530STD0000000000000000000000000PN0RR0020240212202402122024021200000000000000000000000000000000000000000000000000000000000000002024021219740305202902280000000000000+0000000000000+0000000000000+000000000000000000000000000000000000000000000000000000000000000000000000000000000000000000000000000000000000000000000+0000000000000+0000000000000+0000000000000+0000000000000+0000000000000+0000000000000+002480014800000012890005309270100005178202402122029022800000000T                   000000000000000000000000                    000000000000000000000000                    000000000000000000000000                    000000000000000000000000 000000000000000000000000000000000    00000000999999999999999990321500000000000000000000000000000000000000000000000000000000000000
60419100053092701000005550010191000009478540001LUCIANA PEREZ  0000191000009478540STD0000000000000000000000000PN0RR0020240212202402122024021200000000000000000000000000000000000000000000000000000000000000002024021219840330202902280000000000000+0000000000000+0000000000000+000000000000000000000000000000000000000000000000000000000000000000000000000000000000000000000000000000000000000000000+0000000000000+0000000000000+0000000000000+0000000000000+0000000000000+0000000000000+002480014800000012890005309270100005186202402122029022800000000T                   000000000000000000000000                    000000000000000000000000                    000000000000000000000000                    000000000000000000000000 000000000000000000000000000000000    00000000999999999999999990321500000000000000000000000000000000000000000000000000000000000000
60419100053092701000005560010191000009478541001URSULA PERALTA 0000191000009478541STD0000000000000000000000000PN0RR0020240212202402122024021200000000000000000000000000000000000000000000000000000000000000002024021219740305202902280000000000000+0000000000000+0000000000000+000000000000000000000000000000000000000000000000000000000000000000000000000000000000000000000000000000000000000000000+0000000000000+0000000000000+0000000000000+0000000000000+0000000000000+0000000000000+002480014800000012890005309270100005194202402122029022800000000T                   000000000000000000000000                    000000000000000000000000                    000000000000000000000000                    000000000000000000000000 000000000000000000000000000000000    00000000999999999999999990321500000000000000000000000000000000000000000000000000000000000000
60419100053092701000005570010191000009478542001MARCOS PERNO   0000191000009478542STD0000000000000000000000000PN0RR0020240212202402122024021200000000000000000000000000000000000000000000000000000000000000002024021219740305202902280000000000000+0000000000000+0000000000000+000000000000000000000000000000000000000000000000000000000000000000000000000000000000000000000000000000000000000000000+0000000000000+0000000000000+0000000000000+0000000000000+0000000000000+0000000000000+002480014800000012890005309270100005202202402122029022800000000T                   000000000000000000000000                    000000000000000000000000                    000000000000000000000000                    000000000000000000000000 000000000000000000000000000000000    00000000999999999999999990321500000000000000000000000000000000000000000000000000000000000000
60419100053092701000005580010191000009478552001CARMELA GARCIA 0000191000009478552STD0000000000000000000000000PN0RR0020240212202402122024021200000000000000000000000000000000000000000000000000000000000000002024021219840330202902280000000000000+0000000000000+0000000000000+000000000000000000000000000000000000000000000000000000000000000000000000000000000000000000000000000000000000000000000+0000000000000+0000000000000+0000000000000+0000000000000+0000000000000+0000000000000+002480014800000012890005309270100005210202402122029022800000000T                   000000000000000000000000                    000000000000000000000000                    000000000000000000000000                    000000000000000000000000 000000000000000000000000000000000    00000000999999999999999990321500000000000000000000000000000000000000000000000000000000000000
60419100053092701000005600010191000009478553001STEFANY ROJAS  0000191000009478553STD0000000000000000000000000PN0RR0020240212202402122024021200000000000000000000000000000000000000000000000000000000000000002024021219740305202902280000000000000+0000000000000+0000000000000+000000000000000000000000000000000000000000000000000000000000000000000000000000000000000000000000000000000000000000000+0000000000000+0000000000000+0000000000000+0000000000000+0000000000000+0000000000000+002480014800000012890005309270100005228202402122029022800000000T                   000000000000000000000000                    000000000000000000000000                    000000000000000000000000                    000000000000000000000000 000000000000000000000000000000000    00000000999999999999999990321500000000000000000000000000000000000000000000000000000000000000
60419100053092701000005610010191000009478554001ELIAS DIAZ     0000191000009478554STD0000000000000000000000000PA0NN1820240212202402132024021300000000000000000000000020241026202410182024111820240213000000002024021419740305202902280000000015000+0000000100000+0000000000000+000000010000000000000000000000000000000000000000000000000000000000000000000000000000000000000000000000000000000100000+0000000014000+0000000100000+0000000100000+0000000000000+0000000000000+0000000000000+002480014800000012890005309270100005236202402132029022800000000T                   000000000000000000000000                    000000000000000000000000                    000000000000000000000000                    000000000000000000000000 200000000000000000000000000000000    00000000999999999999999990321500000000000000000000000000000000000000000000000000000000000000
60419100053092701000005620010191000009478564001MARIA TARAZONA 0000191000009478564STD0000000000000000000000000PN0RR0020240212202402122024021200000000000000000000000000000000000000000000000000000000000000002024021219840330202902280000000000000+0000000000000+0000000000000+000000000000000000000000000000000000000000000000000000000000000000000000000000000000000000000000000000000000000000000+0000000000000+0000000000000+0000000000000+0000000000000+0000000000000+0000000000000+002480014800000012890005309270100005244202402122029022800000000T                   000000000000000000000000                    000000000000000000000000                    000000000000000000000000                    000000000000000000000000 000000000000000000000000000000000    00000000999999999999999990321500000000000000000000000000000000000000000000000000000000000000
60419100053092701000005630010191000009478565001MARY CHAVEZ    0000191000009478565STD0000000000000000000000000PN0RR0020240212202402122024021200000000000000000000000000000000000000000000000000000000000000002024021219740305202902280000000000000+0000000000000+0000000000000+000000000000000000000000000000000000000000000000000000000000000000000000000000000000000000000000000000000000000000000+0000000000000+0000000000000+0000000000000+0000000000000+0000000000000+0000000000000+002480014800000012890005309270100005251202402122029022800000000T                   000000000000000000000000                    000000000000000000000000                    000000000000000000000000                    000000000000000000000000 000000000000000000000000000000000    00000000999999999999999990321500000000000000000000000000000000000000000000000000000000000000
60419100053092701000005640010191000009478566001JUAN TELLO     0000191000009478566STD0000000000000000000000000PN0RR0020240212202402122024021200000000000000000000000000000000000000000000000000000000000000002024021219740305202902280000000000000+0000000000000+0000000000000+000000000000000000000000000000000000000000000000000000000000000000000000000000000000000000000000000000000000000000000+0000000000000+0000000000000+0000000000000+0000000000000+0000000000000+0000000000000+002480014800000012890005309270100005269202402122029022800000000T                   000000000000000000000000                    000000000000000000000000                    000000000000000000000000                    000000000000000000000000 000000000000000000000000000000000    00000000999999999999999990321500000000000000000000000000000000000000000000000000000000000000
60419100053092701000005650010191000009478576001CAROL QUISPE   0000191000009478576STD0000000000000000000000000PN0RR0020240212202402122024021200000000000000000000000000000000000000000000000000000000000000002024021219840330202902280000000000000+0000000000000+0000000000000+000000000000000000000000000000000000000000000000000000000000000000000000000000000000000000000000000000000000000000000+0000000000000+0000000000000+0000000000000+0000000000000+0000000000000+0000000000000+002480014800000012890005309270100005277202402122029022800000000T                   000000000000000000000000                    000000000000000000000000                    000000000000000000000000                    000000000000000000000000 000000000000000000000000000000000    00000000999999999999999990321500000000000000000000000000000000000000000000000000000000000000
60419100053092701000005660010191000009478577001HILDA TAPIA    0000191000009478577STD0000000000000000000000000PN0RR0020240212202402122024021200000000000000000000000000000000000000000000000000000000000000002024021219740305202902280000000000000+0000000000000+0000000000000+000000000000000000000000000000000000000000000000000000000000000000000000000000000000000000000000000000000000000000000+0000000000000+0000000000000+0000000000000+0000000000000+0000000000000+0000000000000+002480014800000012890005309270100005285202402122029022800000000T                   000000000000000000000000                    000000000000000000000000                    000000000000000000000000                    000000000000000000000000 000000000000000000000000000000000    00000000999999999999999990321500000000000000000000000000000000000000000000000000000000000000
60419100053092701000005680010191000009478578001CESAR CARRILLO 0000191000009478578STD0000000000000000000000000PN0RR0020240212202402122024021200000000000000000000000000000000000000000000000000000000000000002024021219740305202902280000000000000+0000000000000+0000000000000+000000000000000000000000000000000000000000000000000000000000000000000000000000000000000000000000000000000000000000000+0000000000000+0000000000000+0000000000000+0000000000000+0000000000000+0000000000000+002480014800000012890005309270100005293202402122029022800000000T                   000000000000000000000000                    000000000000000000000000                    000000000000000000000000                    000000000000000000000000 000000000000000000000000000000000    00000000999999999999999990321500000000000000000000000000000000000000000000000000000000000000
60419100053092701000005690010191000009478589001VANIA JUAREZ   0000191000009478589STD0000000000000000000000000PN0RR0020240212202402122024021200000000000000000000000000000000000000000000000000000000000000002024021219740305202902280000000000000+0000000000000+0000000000000+000000000000000000000000000000000000000000000000000000000000000000000000000000000000000000000000000000000000000000000+0000000000000+0000000000000+0000000000000+0000000000000+0000000000000+0000000000000+002480014800000012890005309270100005301202402122029022800000000T                   000000000000000000000000                    000000000000000000000000                    000000000000000000000000                    000000000000000000000000 000000000000000000000000000000000    00000000999999999999999990321500000000000000000000000000000000000000000000000000000000000000
60419100053092701000005700010191000009478590001CHECHO IBARRA  0000191000009478590STD0000000000000000000000000PN0RR0020240212202402122024021200000000000000000000000000000000000000000000000000000000000000002024021219740305202902280000000000000+0000000000000+0000000000000+000000000000000000000000000000000000000000000000000000000000000000000000000000000000000000000000000000000000000000000+0000000000000+0000000000000+0000000000000+0000000000000+0000000000000+0000000000000+002480014800000012890005309270100005319202402122029022800000000T                   000000000000000000000000                    000000000000000000000000                    000000000000000000000000                    000000000000000000000000 000000000000000000000000000000000    00000000999999999999999990321500000000000000000000000000000000000000000000000000000000000000
60419100053092701000006240010191000009478602001RAUL MERINO    0000191000009478602STD0000000000000000000000000PN0RR1820240213202402132024021300000000000000000000000000000000000000000000000000000000000000002024021519840330202902280000000010000+0000000000000+0000000000000+000000000000000000000000000000000000000000000000000000000000000000000000000000000000000000000000000000000000000000000+0000000000000+0000000000000+0000000000000+0000000000000+0000000000000+0000000000000+002480014800000012890005309270100005806202402132029022800000000T                   000000000000000000000000                    000000000000000000000000                    000000000000000000000000                    000000000000000000000000 000000000000000000000000000000000    00000000999999999999999990321500000000000000000000000000000000000000000000002024021620240218
60419100053092701000006260010191000009478603001CARLA GALENO   0000191000009478603STD0000000000000000000000000PN0RR1020240213202402132024021300000000000000000000000000000000000000000000000000000000000000002024021519740305202902280000000015000+0000000000000+0000000000000+000000000000000000000000000000000000000000000000000000000000000000000000000000000000000000000000000000000000000000000+0000000000000+0000000000000+0000000000000+0000000000000+0000000000000+0000000000000+002480014800000012890005309270100005814202402132029022800000000T                   000000000000000000000000                    000000000000000000000000                    000000000000000000000000                    000000000000000000000000 000000000000000000000000000000000    00000000999999999999999990321500000000000000000000000000000000000000000000002024021620240218
60419100053092701000006270010191000009478604001MARIA SAENZ    0000191000009478604STD0000000000000000000000000PN0RR1220240213202402132024021300000000000000000000000000000000000000000000000000000000000000002024021519740305202902280000000015000+0000000000000+0000000000000+000000000000000000000000000000000000000000000000000000000000000000000000000000000000000000000000000000000000000000000+0000000000000+0000000000000+0000000000000+0000000000000+0000000000000+0000000000000+002480014800000012890005309270100005822202402132029022800000000T                   000000000000000000000000                    000000000000000000000000                    000000000000000000000000                    000000000000000000000000 000000000000000000000000000000000    00000000999999999999999990321500000000000000000000000000000000000000000000002024021620240218
60419100053092701000006280010191000009478614001PEDRO MASO     0000191000009478614STD0000000000000000000000000PN0RR0020240213202402132024021300000000000000000000000000000000000000000000000000000000000000002024021319840330202902280000000000000+0000000000000+0000000000000+000000000000000000000000000000000000000000000000000000000000000000000000000000000000000000000000000000000000000000000+0000000000000+0000000000000+0000000000000+0000000000000+0000000000000+0000000000000+002480014800000012890005309270100005830202402132029022800000000T                   000000000000000000000000                    000000000000000000000000                    000000000000000000000000                    000000000000000000000000 000000000000000000000000000000000    00000000999999999999999990321500000000000000000000000000000000000000000000000000000000000000
60419100053092701000006290010191000009478615001CAROLA ZACAPA  0000191000009478615STD0000000000000000000000000PN0RR0020240213202402132024021300000000000000000000000000000000000000000000000000000000000000002024021319740305202902280000000000000+0000000000000+0000000000000+000000000000000000000000000000000000000000000000000000000000000000000000000000000000000000000000000000000000000000000+0000000000000+0000000000000+0000000000000+0000000000000+0000000000000+0000000000000+002480014800000012890005309270100005848202402132029022800000000T                   000000000000000000000000                    000000000000000000000000                    000000000000000000000000                    000000000000000000000000 000000000000000000000000000000000    00000000999999999999999990321500000000000000000000000000000000000000000000000000000000000000
60419100053092701000006300010191000009478616001JULIA SUMA     0000191000009478616STD0000000000000000000000000PN0RR2620240213202402132024021300000000000000000000000000000000000000000000000000000000000000002024021719740305202902280000000010000+0000000000000+0000000000000+000000000000000000000000000000000000000000000000000000000000000000000000000000000000000000000000000000000000000000000+0000000000000+0000000000000+0000000000000+0000000000000+0000000000000+0000000000000+002480014800000012890005309270100005855202402132029022800000000T                   000000000000000000000000                    000000000000000000000000                    000000000000000000000000                    000000000000000000000000 000000000000000000000000000000000    00000000999999999999999990321500000000000000000000000000000000000000000000002024021920240319
60419100053092701000006310010191000009478627001MAX MALTA      0000191000009478627STD0000000000000000000000000PN0RR2620240213202402132024021300000000000000000000000000000000000000000000000000000000000000002024021719840330202902280000000020000+0000000000000+0000000000000+000000000000000000000000000000000000000000000000000000000000000000000000000000000000000000000000000000000000000000000+0000000000000+0000000000000+0000000000000+0000000000000+0000000000000+0000000000000+002480014800000012890005309270100005863202402132029022800000000T                   000000000000000000000000                    000000000000000000000000                    000000000000000000000000                    000000000000000000000000 000000000000000000000000000000000    00000000999999999999999990321500000000000000000000000000000000000000000000002024021920240319
60419100053092701000006320010191000009478628001URSULA GALLEGOS0000191000009478628STD0000000000000000000000000PN0RR2520240213202402132024021300000000000000000000000000000000000000000000000000000000000000002024021719740305202902280000000015000+0000000000000+0000000000000+000000000000000000000000000000000000000000000000000000000000000000000000000000000000000000000000000000000000000000000+0000000000000+0000000000000+0000000000000+0000000000000+0000000000000+0000000000000+002480014800000012890005309270100005871202402132029022800000000T                   000000000000000000000000                    000000000000000000000000                    000000000000000000000000                    000000000000000000000000 000000000000000000000000000000000    00000000999999999999999990321500000000000000000000000000000000000000000000002024021820240318
60419100053092701000006340010191000009478629001MARIANA SANCHO 0000191000009478629STD0000000000000000000000000PN0RR2620240213202402132024021300000000000000000000000000000000000000000000000000000000000000002024021919740305202902280000000010000+0000000000000+0000000000000+000000000000000000000000000000000000000000000000000000000000000000000000000000000000000000000000000000000000000000000+0000000000000+0000000000000+0000000000000+0000000000000+0000000000000+0000000000000+002480014800000012890005309270100005889202402132029022800000000T                   000000000000000000000000                    000000000000000000000000                    000000000000000000000000                    000000000000000000000000 000000000000000000000000000000000    00000000999999999999999990321500000000000000000000000000000000000000000000002024021920240319
60419100053092701000006350010191000009478640001GISELA GARRIDO 0000191000009478640STD0000000000000000000000000PN0RR2620240213202402132024021300000000000000000000000000000000000000000000000000000000000000002024021919840330202902280000000020000+0000000000000+0000000000000+000000000000000000000000000000000000000000000000000000000000000000000000000000000000000000000000000000000000000000000+0000000000000+0000000000000+0000000000000+0000000000000+0000000000000+0000000000000+002480014800000012890005309270100005897202402132029022800000000T                   000000000000000000000000                    000000000000000000000000                    000000000000000000000000                    000000000000000000000000 000000000000000000000000000000000    00000000999999999999999990321500000000000000000000000000000000000000000000002024021920240319
60419100053092701000006360010191000009478641001MARIA TORRES   0000191000009478641STD0000000000000000000000000PN0RR2620240213202402132024021300000000000000000000000000000000000000000000000000000000000000002024021919740305202902280000000015000+0000000000000+0000000000000+000000000000000000000000000000000000000000000000000000000000000000000000000000000000000000000000000000000000000000000+0000000000000+0000000000000+0000000000000+0000000000000+0000000000000+0000000000000+002480014800000012890005309270100005905202402132029022800000000T                   000000000000000000000000                    000000000000000000000000                    000000000000000000000000                    000000000000000000000000 000000000000000000000000000000000    00000000999999999999999990321500000000000000000000000000000000000000000000002024021920240319
60419100053092701000006370010191000009478642001RAMON BLADES   0000191000009478642STD0000000000000000000000000PN0RR0020240213202402132024021300000000000000000000000000000000000000000000000000000000000000002024021319740305202902280000000000000+0000000000000+0000000000000+000000000000000000000000000000000000000000000000000000000000000000000000000000000000000000000000000000000000000000000+0000000000000+0000000000000+0000000000000+0000000000000+0000000000000+0000000000000+002480014800000012890005309270100005913202402132029022800000000T                   000000000000000000000000                    000000000000000000000000                    000000000000000000000000                    000000000000000000000000 000000000000000000000000000000000    00000000999999999999999990321500000000000000000000000000000000000000000000000000000000000000
60419100053092701000006450010191000009478423001JOEL MERINO    0000191000009478423STD0000000000000000000000000PN0RR0020240218202402182024021800000000000000000000000000000000000000000000000000000000000000002024021819840330202902280000000000000+0000000000000+0000000000000+000000000000000000000000000000000000000000000000000000000000000000000000000000000000000000000000000000000000000000000+0000000000000+0000000000000+0000000000000+0000000000000+0000000000000+0000000000000+002480014800000012890005309270100005954202402182029022800000000T                   000000000000000000000000                    000000000000000000000000                    000000000000000000000000                    000000000000000000000000 000000000000000000000000000000000    00000000999999999999999990321500000000000000000000000000000000000000000000000000000000000000
60419100053092701000006460010191000009478424001CINDY GALESSE  0000191000009478424STD0000000000000000000000000PN0RR0020240218202402182024021800000000000000000000000000000000000000000000000000000000000000002024021819740305202902280000000000000+0000000000000+0000000000000+000000000000000000000000000000000000000000000000000000000000000000000000000000000000000000000000000000000000000000000+0000000000000+0000000000000+0000000000000+0000000000000+0000000000000+0000000000000+002480014800000012890005309270100005962202402182029022800000000T                   000000000000000000000000                    000000000000000000000000                    000000000000000000000000                    000000000000000000000000 000000000000000000000000000000000    00000000999999999999999990321500000000000000000000000000000000000000000000000000000000000000
60419100053092701000006470010191000009478425001MARIA SUAREZ   0000191000009478425STD0000000000000000000000000PN0RR0020240218202402182024021800000000000000000000000000000000000000000000000000000000000000002024021819740305202902280000000000000+0000000000000+0000000000000+000000000000000000000000000000000000000000000000000000000000000000000000000000000000000000000000000000000000000000000+0000000000000+0000000000000+0000000000000+0000000000000+0000000000000+0000000000000+002480014800000012890005309270100005970202402182029022800000000T                   000000000000000000000000                    000000000000000000000000                    000000000000000000000000                    000000000000000000000000 000000000000000000000000000000000    00000000999999999999999990321500000000000000000000000000000000000000000000000000000000000000
60419100053092701000006480010191000015743653001MARIO NAKAMA   0000191000015743653STD0000000000000000000000000PA0NN2020240223202410162024101600000000000000000000000020241026202410202024112020241022000000002024102119751225202902280000000900000+0000000666000+0000000077000+000000058900000000000000000000000000000000000000000000000000000000000000000000000000000000000000000000000000000681000+0000000892140+0000000012000+0000000015000+0000000892140+0000000681000+0000090000000+002480014800000060010005309270100005988202402232029022800000000T                   000000000000000000000000                    000000000000000000000000                    000000000000000000000000                    000000000000000000000000 200000000000000000000000000000000    00000000999999999999999990000000000000000000000000000000000000000000000000002024090920240926
60419100053092701000006490010191000010135089001KARINA CHAFLOQU0000191000010135089STD0000000000000000000000000PA0NN1820240223202402272024022700000000000000000000000020241026202410182024111820241019000000002024091219740301202902280000000700000+0000000700000+0000000700000+000000000000000000000000000000000000000000000000000000000000000000000000000000000000000000000000000000000000000741000+0000000691500+0000000040000+0000000041000+0000000691500+0000000741000+0000070000000+002480014800000060010005309270100005996202402232029022800000000T                   000000000000000000000000                    000000000000000000000000                    000000000000000000000000                    000000000000000000000000 100000000000000000000000000000000    00000000999999999999999990000000000000000000000000000000000000000000000000002024090920240926
60419100053092701000006500010191000016727214001JORGE BENEL    0000191000016727214STD0000000000000000000000000PA0NN2020240223202402252024101600000000000000000000000020241026202410202024112020241022000000002024101619741115202902280000000010000+0000000792500+0000000792500+000000000000000000000000000000000000000000000000000000000000000000000000000000000000000000000000000000000000000807500+0000000000215+0000000010000+0000000015000+0000000000215+0000000807500+0000001000000+002480014800000060010005309270100006002202402232029022800000000T                   000000000000000000000000                    000000000000000000000000                    000000000000000000000000                    000000000000000000000000 100000000000000000000000000000000    00000000999999999999999990000000000000000000000000000000000000000000000000002024022720240303
60419100053092701000006600010191000010162096001MARIBEL MEDINA 0000191000010162096STD0000000000000000000000000PD0NN0320240302202410252024102500000000000000000000000020241026202410030000000000000000000000002024030219760523202903310000000007000+0000000000000+0000000000000+000000000000000000000000000000000000000000000000000000000000000000000000000000000000000000000000000000000000000000000+0000000007000+0000000000000+0000000000000+0000000007000+0000000000000+0000000700000+002480014800000012660005309270100006069202403022029033100000000T                   000000000000000000000000                    000000000000000000000000                    000000000000000000000000                    000000000000000000000000 000000000000000000000000000000000    00000000999999999999999990000000000000000000000000000000000000000000000000002024102520241027
60419100053092701000006610010191000070546986001MARIA VELASQUEZ0000191000070546986STD0000000000000000000000000PD0NN0320240302202410252024102500000000000000000000000020241026202410030000000000000000000000002024111919911001202903310000000009722+0000000000000+0000000000000+000000000000000000000000000000000000000000000000000000000000000000000000000000000000000000000000000000000000000000000+0000000009362+0000000000000+0000000000000+0000000009362+0000000000000+0000000972200+002480014800000014480005309270100006077202403022029033100000000T                   000000000000000000000000                    000000000000000000000000                    000000000000000000000000                    000000000000000000000000 000000000000000000000000000000000    00000000999999999999999990000000000000000000000000000000000000000000000000002024102520241027
60419100053092701000006670010191000032483106001ABIGAIL ARANDA 0000191000032483106STD000000                    A NN0720240304202403042024030500000000000000000000000020241026202402070000000000000000000000002024101519250820202902280000000009741+0000000000000+0000000000000+000000000000000000000000000000000000000000000000000000000000000000000000000000000000000000000000000000000000000000000+0000000009741+0000000000000+0000000000000+0000000009741+0000000000000+0000000974100+00248001480000000000                   000000000000000000000000                    000000000000000000000000                    000000000000000000000000                    000000000000000000000000                    000000000000000000000000 000000000000000000000000000000000    00000000999999999999999990000000000000000000000000000000000000000000000000002024030520240331
60419100053092701000006680010191000016727214001JORGE BENEL    0000191000016727214STD000000                    D NN1820240304202403042024030500000000000000000000000020241026202402180000000000000000000000002024101519741115202902280000000007500+0000000000000+0000000000000+000000000000000000000000000000000000000000000000000000000000000000000000000000000000000000000000000000000000000000000+0000000007500+0000000000000+0000000000000+0000000007500+0000000000000+0000000750000+00248001480000000000                   000000000000000000000000                    000000000000000000000000                    000000000000000000000000                    000000000000000000000000                    000000000000000000000000 000000000000000000000000000000000    00000000999999999999999990000000000000000000000000000000000000000000000000002024030520240311
60419100053092701000006720010191000032483106001ABIGAIL ARANDA 0000191000032483106STD000000                    D RR0720240306202403062024030600000000000000000000000000000000000000000000000000000000000000002024030619250820202902280000000009741+0000000000000+0000000000000+000000000000000000000000000000000000000000000000000000000000000000000000000000000000000000000000000000000000000000000+0000000000000+0000000000000+0000000000000+0000000009741+0000000000000+0000000974100+00248001480000000000                   000000000000000000000000                    000000000000000000000000                    000000000000000000000000                    000000000000000000000000                    000000000000000000000000 000000000000000000000000000000000    00000000999999999999999990000000000000000000000000000000000000000000000000002024030520240331
60419100053092701000006730010191000016727214001JORGE BENEL    0000191000016727214STD000000                    D RR1820240306202403062024030600000000000000000000000000000000000000000000000000000000000000002024030619741115202902280000000007500+0000000000000+0000000000000+000000000000000000000000000000000000000000000000000000000000000000000000000000000000000000000000000000000000000000000+0000000000000+0000000000000+0000000000000+0000000007500+0000000000000+0000000750000+00248001480000000000                   000000000000000000000000                    000000000000000000000000                    000000000000000000000000                    000000000000000000000000                    000000000000000000000000 000000000000000000000000000000000    00000000999999999999999990000000000000000000000000000000000000000000000000002024030520240311
60419100053092701000006880010191000055555551001TTONI PEREYRA  0000191000055555551STD0000000000000000000000000PN0RR0020241018202410182024101800000000000000000000000000000000000000000000000000000000000000002024101819840518202910310000000000000+0000000000000+0000000000000+000000000000000000000000000000000000000000000000000000000000000000000000000000000000000000000000000000000000000000000+0000000000000+0000000000000+0000000000000+0000000000000+0000000000000+0000000000000+002480014800000001530005309270100006101202410182029103100000000T                   000000000000000000000000                    000000000000000000000000                    000000000000000000000000                    000000000000000000000000 000000000000000000000000000000000    00000000999999999999999990000000000000000000000000000000000000000000000000000000000000000000
60419100053092701000006890010191000055555552001VERONICA QUISPE0000191000055555552STD0000000000000000000000000PN0RR0020241018202410182024101800000000000000000000000000000000000000000000000000000000000000002024101819821025202910310000000000000+0000000000000+0000000000000+000000000000000000000000000000000000000000000000000000000000000000000000000000000000000000000000000000000000000000000+0000000000000+0000000000000+0000000000000+0000000000000+0000000000000+0000000000000+002480014800000001530005309270100006119202410182029103100000000T                   000000000000000000000000                    000000000000000000000000                    000000000000000000000000                    000000000000000000000000 000000000000000000000000000000000    00000000999999999999999990000000000000000000000000000000000000000000000000000000000000000000
60419100053092701000006910010191000055555553001CESAR RAMOS    0000191000055555553STD0000000000000000000000000PN0RR0020241018202410182024101800000000000000000000000000000000000000000000000000000000000000002024101819830211202910310000000000000+0000000000000+0000000000000+000000000000000000000000000000000000000000000000000000000000000000000000000000000000000000000000000000000000000000000+0000000000000+0000000000000+0000000000000+0000000000000+0000000000000+0000000000000+002480014800000001530005309270100006127202410182029103100000000T                   000000000000000000000000                    000000000000000000000000                    000000000000000000000000                    000000000000000000000000 000000000000000000000000000000000    00000000999999999999999990000000000000000000000000000000000000000000000000000000000000000000
60419100053092701000006920010191000055555554001EDGAR CANALES  0000191000055555554STD0000000000000000000000000PN0RR0020241018202410182024101800000000000000000000000000000000000000000000000000000000000000002024101819851205202910310000000000000+0000000000000+0000000000000+000000000000000000000000000000000000000000000000000000000000000000000000000000000000000000000000000000000000000000000+0000000000000+0000000000000+0000000000000+0000000000000+0000000000000+0000000000000+002480014800000001530005309270100006135202410182029103100000000T                   000000000000000000000000                    000000000000000000000000                    000000000000000000000000                    000000000000000000000000 000000000000000000000000000000000    00000000999999999999999990000000000000000000000000000000000000000000000000000000000000000000
60419100053092701000006930010193000055555555001PLACIDO MARTINE0000193000055555555STD0000000000000000000000000PN0RR0020241018202410182024101800000000000000000000000000000000000000000000000000000000000000002024101819840724202910310000000000000+0000000000000+0000000000000+000000000000000000000000000000000000000000000000000000000000000000000000000000000000000000000000000000000000000000000+0000000000000+0000000000000+0000000000000+0000000000000+0000000000000+0000000000000+002480014800000060010005309270100006143202410182029103100000000T                   000000000000000000000000                    000000000000000000000000                    000000000000000000000000                    000000000000000000000000 000000000000000000000000000000000    00000000999999999999999990000000000000000000000000000000000000000000000000000000000000000000
60419100053092701000006940010193000055555556001LUZ RIVADENEIRA0000193000055555556STD0000000000000000000000000PN0RR0020241018202410182024101800000000000000000000000000000000000000000000000000000000000000002024101819740502202910310000000000000+0000000000000+0000000000000+000000000000000000000000000000000000000000000000000000000000000000000000000000000000000000000000000000000000000000000+0000000000000+0000000000000+0000000000000+0000000000000+0000000000000+0000000000000+002480014800000060010005309270100006150202410182029103100000000T                   000000000000000000000000                    000000000000000000000000                    000000000000000000000000                    000000000000000000000000 000000000000000000000000000000000    00000000999999999999999990000000000000000000000000000000000000000000000000000000000000000000
60419100053092701000006950010191000055555557001MARIO NAKAMA   0000191000055555557STD0000000000000000000000000PN0RR0020241018202410182024101800000000000000000000000000000000000000000000000000000000000000002024101819751225202910310000000000000+0000000000000+0000000000000+000000000000000000000000000000000000000000000000000000000000000000000000000000000000000000000000000000000000000000000+0000000000000+0000000000000+0000000000000+0000000000000+0000000000000+0000000000000+002480014800000060010005309270100006168202410182029103100000000T                   000000000000000000000000                    000000000000000000000000                    000000000000000000000000                    000000000000000000000000 000000000000000000000000000000000    00000000999999999999999990000000000000000000000000000000000000000000000000000000000000000000
60419100053092701000006960010191000055555558001JORGE BENEL    0000191000055555558STD0000000000000000000000000PN0RR0020241018202410182024101800000000000000000000000000000000000000000000000000000000000000002024101819741115202910310000000000000+0000000000000+0000000000000+000000000000000000000000000000000000000000000000000000000000000000000000000000000000000000000000000000000000000000000+0000000000000+0000000000000+0000000000000+0000000000000+0000000000000+0000000000000+002480014800000060010005309270100006176202410182029103100000000T                   000000000000000000000000                    000000000000000000000000                    000000000000000000000000                    000000000000000000000000 000000000000000000000000000000000    00000000999999999999999990000000000000000000000000000000000000000000000000000000000000000000
60419100053092701000006970010191000055555559001ESTHER CANGALAY0000191000055555559STD0000000000000000000000000PN0RR0020241018202410182024101800000000000000000000000000000000000000000000000000000000000000002024101819810114202910310000000000000+0000000000000+0000000000000+000000000000000000000000000000000000000000000000000000000000000000000000000000000000000000000000000000000000000000000+0000000000000+0000000000000+0000000000000+0000000000000+0000000000000+0000000000000+002480014800000012660005309270100006184202410182029103100000000T                   000000000000000000000000                    000000000000000000000000                    000000000000000000000000                    000000000000000000000000 000000000000000000000000000000000    00000000999999999999999990000000000000000000000000000000000000000000000000000000000000000000
60419100053092701000006980010191000055555560001ESTHER CANGALAY0000191000055555560STD0000000000000000000000000PN0RR0020241018202410182024101800000000000000000000000000000000000000000000000000000000000000002024101819810114202910310000000000000+0000000000000+0000000000000+000000000000000000000000000000000000000000000000000000000000000000000000000000000000000000000000000000000000000000000+0000000000000+0000000000000+0000000000000+0000000000000+0000000000000+0000000000000+002480014800000012660005309270100006192202410182029103100000000T                   000000000000000000000000                    000000000000000000000000                    000000000000000000000000                    000000000000000000000000 000000000000000000000000000000000    00000000999999999999999990000000000000000000000000000000000000000000000000000000000000000000
60419100053092701000006990010191000007939908001FERNANDO YBAZET0000191000007939908STD0000000000000000000000000PN0RR0020241020202410202024102000000000000000000000000000000000000000000000000000000000000000002024102019550722202910310000000000000+0000000000000+0000000000000+000000000000000000000000000000000000000000000000000000000000000000000000000000000000000000000000000000000000000000000+0000000000000+0000000000000+0000000000000+0000000000000+0000000000000+0000000000000+002480014800000001530005309270100006200202410202029103100000000T                   000000000000000000000000                    000000000000000000000000                    000000000000000000000000                    000000000000000000000000 000000000000000000000000000000000    00000000999999999999999990000000000000000000000000000000000000000000000000000000000000000000
60419100053092701000007000010191000009948188001MARIA FUNEZ    0000191000009948188STD0000000000000000000000000PN0RR0020241020202410202024102000000000000000000000000000000000000000000000000000000000000000002024102019750412202910310000000000000+0000000000000+0000000000000+000000000000000000000000000000000000000000000000000000000000000000000000000000000000000000000000000000000000000000000+0000000000000+0000000000000+0000000000000+0000000000000+0000000000000+0000000000000+002480014800000001530005309270100006218202410202029103100000000T                   000000000000000000000000                    000000000000000000000000                    000000000000000000000000                    000000000000000000000000 000000000000000000000000000000000    00000000999999999999999990000000000000000000000000000000000000000000000000000000000000000000
60419100053092701000007010010193000001112311001RAMIREZ ARTURO 0000193000001112311STD0000000000000000000000000PN0RR0020241020202410202024102000000000000000000000000000000000000000000000000000000000000000002024102019840716202910310000000000000+0000000000000+0000000000000+000000000000000000000000000000000000000000000000000000000000000000000000000000000000000000000000000000000000000000000+0000000000000+0000000000000+0000000000000+0000000000000+0000000000000+0000000000000+002480014800000001530005309270100006226202410202029103100000000T                   000000000000000000000000                    000000000000000000000000                    000000000000000000000000                    000000000000000000000000 000000000000000000000000000000000    00000000999999999999999990000000000000000000000000000000000000000000000000000000000000000000
60419100053092701000007020010193000001077210001CESAR TORRES   0000193000001077210STD0000000000000000000000000PN0RR0020241020202410202024102000000000000000000000000000000000000000000000000000000000000000002024102019741020202910310000000000000+0000000000000+0000000000000+000000000000000000000000000000000000000000000000000000000000000000000000000000000000000000000000000000000000000000000+0000000000000+0000000000000+0000000000000+0000000000000+0000000000000+0000000000000+002480014800000001530005309270100006234202410202029103100000000T                   000000000000000000000000                    000000000000000000000000                    000000000000000000000000                    000000000000000000000000 000000000000000000000000000000000    00000000999999999999999990000000000000000000000000000000000000000000000000000000000000000000
60419100053092701000007030010191000041047729001LUDGARDO BARRED0000191000041047729STD0000000000000000000000000PN0RR0020241020202410202024102000000000000000000000000000000000000000000000000000000000000000002024102019790510202910310000000000000+0000000000000+0000000000000+000000000000000000000000000000000000000000000000000000000000000000000000000000000000000000000000000000000000000000000+0000000000000+0000000000000+0000000000000+0000000000000+0000000000000+0000000000000+002480014800000060010005309270100006242202410202029103100000000T                   000000000000000000000000                    000000000000000000000000                    000000000000000000000000                    000000000000000000000000 000000000000000000000000000000000    00000000999999999999999990000000000000000000000000000000000000000000000000000000000000000000
60419100053092701000007040010191000040081091001KATHERINE CHACO0000191000040081091STD0000000000000000000000000PN0RR0020241020202410202024102000000000000000000000000000000000000000000000000000000000000000002024102019790117202910310000000000000+0000000000000+0000000000000+000000000000000000000000000000000000000000000000000000000000000000000000000000000000000000000000000000000000000000000+0000000000000+0000000000000+0000000000000+0000000000000+0000000000000+0000000000000+002480014800000060010005309270100006259202410202029103100000000T                   000000000000000000000000                    000000000000000000000000                    000000000000000000000000                    000000000000000000000000 000000000000000000000000000000000    00000000999999999999999990000000000000000000000000000000000000000000000000000000000000000000
60419100053092701000007050010193000000093373001JOSE PAZ       0000193000000093373STD0000000000000000000000000PN0RR0020241020202410202024102000000000000000000000000000000000000000000000000000000000000000002024102019790131202910310000000000000+0000000000000+0000000000000+000000000000000000000000000000000000000000000000000000000000000000000000000000000000000000000000000000000000000000000+0000000000000+0000000000000+0000000000000+0000000000000+0000000000000+0000000000000+002480014800000060010005309270100006267202410202029103100000000T                   000000000000000000000000                    000000000000000000000000                    000000000000000000000000                    000000000000000000000000 000000000000000000000000000000000    00000000999999999999999990000000000000000000000000000000000000000000000000000000000000000000
60419100053092701000007060010193000000093221001ERNESTO TANZI  0000193000000093221STD0000000000000000000000000PN0RR0020241020202410202024102000000000000000000000000000000000000000000000000000000000000000002024102019791124202910310000000000000+0000000000000+0000000000000+000000000000000000000000000000000000000000000000000000000000000000000000000000000000000000000000000000000000000000000+0000000000000+0000000000000+0000000000000+0000000000000+0000000000000+0000000000000+002480014800000060010005309270100006275202410202029103100000000T                   000000000000000000000000                    000000000000000000000000                    000000000000000000000000                    000000000000000000000000 000000000000000000000000000000000    00000000999999999999999990000000000000000000000000000000000000000000000000000000000000000000
60419100053092701000007070010193000000092507001MANUEL BERNABE 0000193000000092507STD0000000000000000000000000PN0RR0020241020202410202024102000000000000000000000000000000000000000000000000000000000000000002024102019750530202910310000000000000+0000000000000+0000000000000+000000000000000000000000000000000000000000000000000000000000000000000000000000000000000000000000000000000000000000000+0000000000000+0000000000000+0000000000000+0000000000000+0000000000000+0000000000000+002480014800000060010005309270100006283202410202029103100000000T                   000000000000000000000000                    000000000000000000000000                    000000000000000000000000                    000000000000000000000000 000000000000000000000000000000000    00000000999999999999999990000000000000000000000000000000000000000000000000000000000000000000
60419100053092701000007090010191000074132882001MIGUEL SANCHEZ 0000191000074132882STD0000000000000000000000000PN0RR0020241020202410202024102000000000000000000000000000000000000000000000000000000000000000002024102020011024202910310000000000000+0000000000000+0000000000000+000000000000000000000000000000000000000000000000000000000000000000000000000000000000000000000000000000000000000000000+0000000000000+0000000000000+0000000000000+0000000000000+0000000000000+0000000000000+002480014800000014480005309270100006291202410202029103100000000T                   000000000000000000000000                    000000000000000000000000                    000000000000000000000000                    000000000000000000000000 000000000000000000000000000000000    00000000999999999999999990000000000000000000000000000000000000000000000000000000000000000000
60419100053092701000007100010191000042367018001LIZBETH PALOMIN0000191000042367018STD0000000000000000000000000PN0RR0020241020202410202024102000000000000000000000000000000000000000000000000000000000000000002024102019831109202910310000000000000+0000000000000+0000000000000+000000000000000000000000000000000000000000000000000000000000000000000000000000000000000000000000000000000000000000000+0000000000000+0000000000000+0000000000000+0000000000000+0000000000000+0000000000000+002480014800000014480005309270100006309202410202029103100000000T                   000000000000000000000000                    000000000000000000000000                    000000000000000000000000                    000000000000000000000000 000000000000000000000000000000000    00000000999999999999999990000000000000000000000000000000000000000000000000000000000000000000
60419100053092701000007110010193000123456789001LUISA MEDINA   0000193000123456789STD0000000000000000000000000PN0RR0020241020202410202024102000000000000000000000000000000000000000000000000000000000000000002024102019870826202910310000000000000+0000000000000+0000000000000+000000000000000000000000000000000000000000000000000000000000000000000000000000000000000000000000000000000000000000000+0000000000000+0000000000000+0000000000000+0000000000000+0000000000000+0000000000000+002480014800000014480005309270100006317202410202029103100000000T                   000000000000000000000000                    000000000000000000000000                    000000000000000000000000                    000000000000000000000000 000000000000000000000000000000000    00000000999999999999999990000000000000000000000000000000000000000000000000000000000000000000
60419100053092701000007120010191000006009468001PEDRO CHAFLOQUE0000191000006009468STD000000                    D RR3020241020202410202024102000000000000000000000000000000000000000000000000000000000000000002024102019560412202902280000000009722+0000000000000+0000000000000+000000000000000000000000000000000000000000000000000000000000000000000000000000000000000000000000000000000000000000000+0000000000000+0000000000000+0000000000000+0000000009722+0000000000000+0000000972200+00248001480000000000                   000000000000000000000000                    000000000000000000000000                    000000000000000000000000                    000000000000000000000000                    000000000000000000000000 000000000000000000000000000000000    00000000999999999999999990000000000000000000000000000000000000000000000000002024102120241023
60419100053092701000007130010191000007601347001DEMETRIO MANDUJ0000191000007601347STD000000                    D RR0520241020202410202024102000000000000000000000000000000000000000000000000000000000000000002024102019441017202902280000000007000+0000000000000+0000000000000+000000000000000000000000000000000000000000000000000000000000000000000000000000000000000000000000000000000000000000000+0000000000000+0000000000000+0000000000000+0000000007000+0000000000000+0000000700000+00248001480000000000                   000000000000000000000000                    000000000000000000000000                    000000000000000000000000                    000000000000000000000000                    000000000000000000000000 000000000000000000000000000000000    00000000999999999999999990000000000000000000000000000000000000000000000000002024102120241029
60419100053092701000007150010191000007818155001BETTSSY MONTERO0000191000007818155STD0000000000000000000000000PN0RR0020241021202410212024102100000000000000000000000000000000000000000000000000000000000000002024102119620624202910310000000000000+0000000000000+0000000000000+000000000000000000000000000000000000000000000000000000000000000000000000000000000000000000000000000000000000000000000+0000000000000+0000000000000+0000000000000+0000000000000+0000000000000+0000000000000+002480014800000001530005309270100006333202410212029103100000000T                   000000000000000000000000                    000000000000000000000000                    000000000000000000000000                    000000000000000000000000 000000000000000000000000000000000    00000000999999999999999990000000000000000000000000000000000000000000000000000000000000000000
60419100053092701000007170010191000065555570001EDITH CANTU    0000191000065555570STD0000000000000000000000000PN0RR0020241023202410232024102300000000000000000000000000000000000000000000000000000000000000002024102319810114202910310000000000000+0000000000000+0000000000000+000000000000000000000000000000000000000000000000000000000000000000000000000000000000000000000000000000000000000000000+0000000000000+0000000000000+0000000000000+0000000000000+0000000000000+0000000000000+002480014800000012660005309270100006341202410232029103100000000T0005309270100006382202410242029103100000000T                   000000000000000000000000                    000000000000000000000000                    000000000000000000000000 000000000000000000000000000000000    00000000999999999999999990000000000000000000000000000000000000000000000000000000000000000000
60419100053092701000007180010191000009478479001MARIA SUAREZ   0000191000009478479STD0000000000000000000000000PN0RR0020241123202402102024022500000000000000000000000000000000000000000000000000000000000000002024090519740305202902280000000009000+0000000000000+0000000000000+000000000000000000000000000000000000000000000000000000000000000000000000000000000000000000000000000000000000000000000+0000000000000+0000000000000+0000000000000+0000000000000+0000000000000+0000000000000+00248001480000003215                   000000000000000000000000                    000000000000000000000000                    000000000000000000000000                    000000000000000000000000                    000000000000000000000000 000000000000000000000000000000000    00000000999999999999999990321500000000000000000000000000000000000000000000002024112320241130
60419100053092701000007190010191000007918156001BETTSSY MONTERO0000191000007918156STD0000000000000000000000000PN0RR0020241024202410242024102400000000000000000000000000000000000000000000000000000000000000002024102419620624202910310000000000000+0000000000000+0000000000000+000000000000000000000000000000000000000000000000000000000000000000000000000000000000000000000000000000000000000000000+0000000000000+0000000000000+0000000000000+0000000000000+0000000000000+0000000000000+002480014800000001530005309270100006374202410242029103100000000T                   000000000000000000000000                    000000000000000000000000                    000000000000000000000000                    000000000000000000000000 000000000000000000000000000000000    00000000999999999999999990000000000000000000000000000000000000000000000000000000000000000000
60419100053092701000007200010191000010162096001MARIBEL MEDINA 0000191000010162096STD0000000000000000000000000PN0RR0020241029202410252024102500000000000000000000000000000000000000000000000000000000000000002024030219760523202903310000000004000+0000000000000+0000000000000+000000000000000000000000000000000000000000000000000000000000000000000000000000000000000000000000000000000000000000000+0000000000000+0000000000000+0000000000000+0000000000000+0000000000000+0000000000000+00248001480000001266                   000000000000000000000000                    000000000000000000000000                    000000000000000000000000                    000000000000000000000000                    000000000000000000000000 000000000000000000000000000000000    00000000999999999999999990000000000000000000000000000000000000000000000000002024102920241031
60419100053092701000007210010191000070546986001MARIA VELASQUEZ0000191000070546986STD0000000000000000000000000PN0RR0020241029202410252024102500000000000000000000000000000000000000000000000000000000000000002024111919911001202903310000000008711+0000000000000+0000000000000+000000000000000000000000000000000000000000000000000000000000000000000000000000000000000000000000000000000000000000000+0000000009362+0000000000000+0000000000000+0000000009362+0000000000000+0000000972200+00248001480000001448                   000000000000000000000000                    000000000000000000000000                    000000000000000000000000                    000000000000000000000000                    000000000000000000000000 000000000000000000000000000000000    00000000999999999999999990000000000000000000000000000000000000000000000000002024102920241031
60419100053092701000060100010191000009678954001LUNA SEGURA    0000191000009678954STD000000                    D NN0420240226202410172024030300000000000000000000000020241026202403010000000000000000000000002024101800000000000000000000000002000+0000000000000+0000000000000+000000000000000000000000000000000000000000000000000000000000000000000000000000000000000000000000000000000000000000000+0000000001478+0000000000000+0000000000000+0000000001478+0000000000000+0000000200000+002480014800000000000005309270100000666202402092029022800000000T                   000000000000000000000000                    000000000000000000000000                    000000000000000000000000                    000000000000000000000000 000000000000000000000000000000000    00000000999999999999999990321500000000000000000000000000000000000000000000002024030320251120
60419100053092702000000120010191000041525018002PRUEBA         0000191000041525018STD0000000000000000000000000PD0NN0120231231202312312023123100000000000000000000000020241026202312010000000000000000000000002024010100000000000000000000000001000+0000000000000+0000000000000+000000000000000000000000000000000000000000000000000000000000000000000000000000000000000000000000000000000000000000000+0000000001000+0000000000000+0000000000000+0000000001000+0000000000000+0000000100000+002480014800000000000005309270200000020202312312026013100000000T                   000000000000000000000000                    000000000000000000000000                    000000000000000000000000                    000000000000000000000000 000000000000000000000000000000000    00000000000000000000000000019100000000000000000000000000000000000000000000000000000000000000
60419100053092702000000230010191000009678955002EDUARDO GUERRA 0000191000009678955STD0000000000000000000000000PD0NN1620240209202402162024021600000000000000000000000020241026202402050000000000000000000000002024091919850328202902280000000018000+0000000000000+0000000000000+000000000000000000000000000000000000000000000000000000000000000000000000000000000000000000000000000000000000000000000+0000000018000+0000000000000+0000000000000+0000000000000+0000000000000+0000000000000+000020000100000032150005309270200000335202402092029022800000000T                   000000000000000000000000                    000000000000000000000000                    000000000000000000000000                    000000000000000000000000 000000000000000000000000000000000    00000000SSS000000000000000321500000000000000000000000000000000000000000000002024022620240302
60419100053092702000000240010191000009678956002MARCEL LUNA    0000191000009678956STD0000000000000000000000000PD0NN1920240209202402102024021000000000000000000000000020241026202402190000000000000000000000002024021119830330202902280000000030000+0000000000000+0000000000000+000000000000000000000000000000000000000000000000000000000000000000000000000000000000000000000000000000000000000000000+0000000030000+0000000000000+0000000000000+0000000000000+0000000000000+0000000000000+000020000100000032150005309270200000343202402092029022800000000T                   000000000000000000000000                    000000000000000000000000                    000000000000000000000000                    000000000000000000000000 000000000000000000000000000000000    00000000SSS000000000000000321500000000000000000000000000000000000000000000002024021120250211
60419100053092702000000290010191000009478480002JUAN TELLO     0000191000009478480STD0000000000000000000000000PD0RR0920240210202402142024021400000000000000000000000020240213202402050000000000000000000000002024021519850328202902280000000020000+0000000000000+0000000000000+000000000000000000000000000000000000000000000000000000000000000000000000000000000000000000000000000000000000000000000+0000000020000+0000000000000+0000000000000+0000000000000+0000000000000+0000000000000+002480014800000032150005309270200000392202402102029022800000000T                   000000000000000000000000                    000000000000000000000000                    000000000000000000000000                    000000000000000000000000 000000000000000000000000000000000    00000000999999999999999990321500000000000000000000000000000000000000000000002024021620241218
60419100053092702000000300010191000009478481002MARIO WONG     0000191000009478481STD0000000000000000000000000PN0RR0020240210202402102024021000000000000000000000000000000000000000000000000000000000000000002024021019830330202902280000000000000+0000000000000+0000000000000+000000000000000000000000000000000000000000000000000000000000000000000000000000000000000000000000000000000000000000000+0000000000000+0000000000000+0000000000000+0000000000000+0000000000000+0000000000000+002480014800000032150005309270200000400202402102029022800000000T                   000000000000000000000000                    000000000000000000000000                    000000000000000000000000                    000000000000000000000000 000000000000000000000000000000000    00000000999999999999999990321500000000000000000000000000000000000000000000000000000000000000
60419100053092702000003360010191000009478493002PABLO PAZ      0000191000009478493STD0000000000000000000000000PN0RR0020240212202402122024021200000000000000000000000000000000000000000000000000000000000000002024021219850328202902280000000000000+0000000000000+0000000000000+000000000000000000000000000000000000000000000000000000000000000000000000000000000000000000000000000000000000000000000+0000000000000+0000000000000+0000000000000+0000000000000+0000000000000+0000000000000+002480014800000012890005309270200002984202402122029022800000000T                   000000000000000000000000                    000000000000000000000000                    000000000000000000000000                    000000000000000000000000 000000000000000000000000000000000    00000000999999999999999990321500000000000000000000000000000000000000000000000000000000000000
60419100053092702000003370010191000009478505002SAUL TORERO    0000191000009478505STD0000000000000000000000000PN0RR0020240212202402122024021200000000000000000000000000000000000000000000000000000000000000002024021219850328202902280000000000000+0000000000000+0000000000000+000000000000000000000000000000000000000000000000000000000000000000000000000000000000000000000000000000000000000000000+0000000000000+0000000000000+0000000000000+0000000000000+0000000000000+0000000000000+002480014800000012890005309270200002992202402122029022800000000T                   000000000000000000000000                    000000000000000000000000                    000000000000000000000000                    000000000000000000000000 000000000000000000000000000000000    00000000999999999999999990321500000000000000000000000000000000000000000000000000000000000000
60419100053092702000003380010191000009478506002MARLON WINTER  0000191000009478506STD0000000000000000000000000PN0RR0020240212202402122024021200000000000000000000000000000000000000000000000000000000000000002024021219830330202902280000000000000+0000000000000+0000000000000+000000000000000000000000000000000000000000000000000000000000000000000000000000000000000000000000000000000000000000000+0000000000000+0000000000000+0000000000000+0000000000000+0000000000000+0000000000000+002480014800000012890005309270200003008202402122029022800000000T                   000000000000000000000000                    000000000000000000000000                    000000000000000000000000                    000000000000000000000000 000000000000000000000000000000000    00000000999999999999999990321500000000000000000000000000000000000000000000000000000000000000
60419100053092702000003390010191000009478518002JUAN PILLA     0000191000009478518STD0000000000000000000000000PN0RR0020240212202402122024021200000000000000000000000000000000000000000000000000000000000000002024021219850328202902280000000000000+0000000000000+0000000000000+000000000000000000000000000000000000000000000000000000000000000000000000000000000000000000000000000000000000000000000+0000000000000+0000000000000+0000000000000+0000000000000+0000000000000+0000000000000+002480014800000012890005309270200003016202402122029022800000000T                   000000000000000000000000                    000000000000000000000000                    000000000000000000000000                    000000000000000000000000 000000000000000000000000000000000    00000000999999999999999990321500000000000000000000000000000000000000000000000000000000000000
60419100053092702000003400010191000009478519002MARGARITO WONG 0000191000009478519STD0000000000000000000000000PN0RR0020240212202402122024021200000000000000000000000000000000000000000000000000000000000000002024021219830330202902280000000000000+0000000000000+0000000000000+000000000000000000000000000000000000000000000000000000000000000000000000000000000000000000000000000000000000000000000+0000000000000+0000000000000+0000000000000+0000000000000+0000000000000+0000000000000+002480014800000012890005309270200003024202402122029022800000000T                   000000000000000000000000                    000000000000000000000000                    000000000000000000000000                    000000000000000000000000 000000000000000000000000000000000    00000000999999999999999990321500000000000000000000000000000000000000000000000000000000000000
60419100053092702000003410010191000009478531002LUCAS PAREDEZ  0000191000009478531STD0000000000000000000000000PN0RR0020240212202402122024021200000000000000000000000000000000000000000000000000000000000000002024021219850328202902280000000000000+0000000000000+0000000000000+000000000000000000000000000000000000000000000000000000000000000000000000000000000000000000000000000000000000000000000+0000000000000+0000000000000+0000000000000+0000000000000+0000000000000+0000000000000+002480014800000012890005309270200003032202402122029022800000000T                   000000000000000000000000                    000000000000000000000000                    000000000000000000000000                    000000000000000000000000 000000000000000000000000000000000    00000000999999999999999990321500000000000000000000000000000000000000000000000000000000000000
60419100053092702000003420010191000009478532002ROCIO VIZCARRA 0000191000009478532STD0000000000000000000000000PN0RR0020240212202402122024021200000000000000000000000000000000000000000000000000000000000000002024021219830330202902280000000000000+0000000000000+0000000000000+000000000000000000000000000000000000000000000000000000000000000000000000000000000000000000000000000000000000000000000+0000000000000+0000000000000+0000000000000+0000000000000+0000000000000+0000000000000+002480014800000012890005309270200003040202402122029022800000000T                   000000000000000000000000                    000000000000000000000000                    000000000000000000000000                    000000000000000000000000 000000000000000000000000000000000    00000000999999999999999990321500000000000000000000000000000000000000000000000000000000000000
60419100053092702000003440010191000009478543002MICHAEL TORINO 0000191000009478543STD0000000000000000000000000PN0RR0020240212202402122024021200000000000000000000000000000000000000000000000000000000000000002024021219850328202902280000000000000+0000000000000+0000000000000+000000000000000000000000000000000000000000000000000000000000000000000000000000000000000000000000000000000000000000000+0000000000000+0000000000000+0000000000000+0000000000000+0000000000000+0000000000000+002480014800000012890005309270200003057202402122029022800000000T                   000000000000000000000000                    000000000000000000000000                    000000000000000000000000                    000000000000000000000000 000000000000000000000000000000000    00000000999999999999999990321500000000000000000000000000000000000000000000000000000000000000
60419100053092702000003450010191000009478544002GRISELDA VACA  0000191000009478544STD0000000000000000000000000PN0RR0020240212202402122024021200000000000000000000000000000000000000000000000000000000000000002024021219830330202902280000000000000+0000000000000+0000000000000+000000000000000000000000000000000000000000000000000000000000000000000000000000000000000000000000000000000000000000000+0000000000000+0000000000000+0000000000000+0000000000000+0000000000000+0000000000000+002480014800000012890005309270200003065202402122029022800000000T                   000000000000000000000000                    000000000000000000000000                    000000000000000000000000                    000000000000000000000000 000000000000000000000000000000000    00000000999999999999999990321500000000000000000000000000000000000000000000000000000000000000
60419100053092702000003460010191000009478555002LUCAS CHAVEZ   0000191000009478555STD0000000000000000000000000PN0RR0020240212202402122024021200000000000000000000000000000000000000000000000000000000000000002024021219850328202902280000000000000+0000000000000+0000000000000+000000000000000000000000000000000000000000000000000000000000000000000000000000000000000000000000000000000000000000000+0000000000000+0000000000000+0000000000000+0000000000000+0000000000000+0000000000000+002480014800000012890005309270200003073202402122029022800000000T                   000000000000000000000000                    000000000000000000000000                    000000000000000000000000                    000000000000000000000000 000000000000000000000000000000000    00000000999999999999999990321500000000000000000000000000000000000000000000000000000000000000
60419100053092702000003470010191000009478556002VANESSA VARGAS 0000191000009478556STD0000000000000000000000000PN0RR0020240212202402122024021200000000000000000000000000000000000000000000000000000000000000002024021219830330202902280000000000000+0000000000000+0000000000000+000000000000000000000000000000000000000000000000000000000000000000000000000000000000000000000000000000000000000000000+0000000000000+0000000000000+0000000000000+0000000000000+0000000000000+0000000000000+002480014800000012890005309270200003081202402122029022800000000T                   000000000000000000000000                    000000000000000000000000                    000000000000000000000000                    000000000000000000000000 000000000000000000000000000000000    00000000999999999999999990321500000000000000000000000000000000000000000000000000000000000000
60419100053092702000003480010191000009478567002MIRKO TALAVERA 0000191000009478567STD0000000000000000000000000PN0RR0020240212202402122024021200000000000000000000000000000000000000000000000000000000000000002024021219850328202902280000000000000+0000000000000+0000000000000+000000000000000000000000000000000000000000000000000000000000000000000000000000000000000000000000000000000000000000000+0000000000000+0000000000000+0000000000000+0000000000000+0000000000000+0000000000000+002480014800000012890005309270200003099202402122029022800000000T                   000000000000000000000000                    000000000000000000000000                    000000000000000000000000                    000000000000000000000000 000000000000000000000000000000000    00000000999999999999999990321500000000000000000000000000000000000000000000000000000000000000
60419100053092702000003490010191000009478568002VERENISE ROSALE0000191000009478568STD0000000000000000000000000PN0RR0020240212202402122024021200000000000000000000000000000000000000000000000000000000000000002024021219830330202902280000000000000+0000000000000+0000000000000+000000000000000000000000000000000000000000000000000000000000000000000000000000000000000000000000000000000000000000000+0000000000000+0000000000000+0000000000000+0000000000000+0000000000000+0000000000000+002480014800000012890005309270200003107202402122029022800000000T                   000000000000000000000000                    000000000000000000000000                    000000000000000000000000                    000000000000000000000000 000000000000000000000000000000000    00000000999999999999999990321500000000000000000000000000000000000000000000000000000000000000
60419100053092702000003510010191000009478579002KENNETH WONG   0000191000009478579STD0000000000000000000000000PN0RR0020240212202402122024021200000000000000000000000000000000000000000000000000000000000000002024021219850328202902280000000000000+0000000000000+0000000000000+000000000000000000000000000000000000000000000000000000000000000000000000000000000000000000000000000000000000000000000+0000000000000+0000000000000+0000000000000+0000000000000+0000000000000+0000000000000+002480014800000012890005309270200003115202402122029022800000000T                   000000000000000000000000                    000000000000000000000000                    000000000000000000000000                    000000000000000000000000 000000000000000000000000000000000    00000000999999999999999990321500000000000000000000000000000000000000000000000000000000000000
60419100053092702000003520010191000009478580002ROMULO VARILLAS0000191000009478580STD0000000000000000000000000PN0RR0020240212202402122024021200000000000000000000000000000000000000000000000000000000000000002024021219830330202902280000000000000+0000000000000+0000000000000+000000000000000000000000000000000000000000000000000000000000000000000000000000000000000000000000000000000000000000000+0000000000000+0000000000000+0000000000000+0000000000000+0000000000000+0000000000000+002480014800000012890005309270200003123202402122029022800000000T                   000000000000000000000000                    000000000000000000000000                    000000000000000000000000                    000000000000000000000000 000000000000000000000000000000000    00000000999999999999999990321500000000000000000000000000000000000000000000000000000000000000
60419100053092702000003530010191000009478591002DINO LEE       0000191000009478591STD0000000000000000000000000PN0RR0020240212202402122024021200000000000000000000000000000000000000000000000000000000000000002024021219850328202902280000000000000+0000000000000+0000000000000+000000000000000000000000000000000000000000000000000000000000000000000000000000000000000000000000000000000000000000000+0000000000000+0000000000000+0000000000000+0000000000000+0000000000000+0000000000000+002480014800000012890005309270200003131202402122029022800000000T                   000000000000000000000000                    000000000000000000000000                    000000000000000000000000                    000000000000000000000000 000000000000000000000000000000000    00000000999999999999999990321500000000000000000000000000000000000000000000000000000000000000
60419100053092702000003540010191000009478592002MARCIA KOO     0000191000009478592STD0000000000000000000000000PN0RR0020240212202402122024021200000000000000000000000000000000000000000000000000000000000000002024021219830330202902280000000000000+0000000000000+0000000000000+000000000000000000000000000000000000000000000000000000000000000000000000000000000000000000000000000000000000000000000+0000000000000+0000000000000+0000000000000+0000000000000+0000000000000+0000000000000+002480014800000012890005309270200003149202402122029022800000000T                   000000000000000000000000                    000000000000000000000000                    000000000000000000000000                    000000000000000000000000 000000000000000000000000000000000    00000000999999999999999990321500000000000000000000000000000000000000000000000000000000000000
60419100053092702000003860010191000009478605002PABLO PAZ      0000191000009478605STD0000000000000000000000000PN0RR0020240213202402132024021300000000000000000000000000000000000000000000000000000000000000002024021319850328202902280000000000000+0000000000000+0000000000000+000000000000000000000000000000000000000000000000000000000000000000000000000000000000000000000000000000000000000000000+0000000000000+0000000000000+0000000000000+0000000000000+0000000000000+0000000000000+002480014800000012890005309270200003438202402132029022800000000T                   000000000000000000000000                    000000000000000000000000                    000000000000000000000000                    000000000000000000000000 000000000000000000000000000000000    00000000999999999999999990321500000000000000000000000000000000000000000000000000000000000000
60419100053092702000003870010191000009478617002SAUL SOTERO    0000191000009478617STD0000000000000000000000000PN0RR0020240213202402132024021300000000000000000000000000000000000000000000000000000000000000002024021319850328202902280000000000000+0000000000000+0000000000000+000000000000000000000000000000000000000000000000000000000000000000000000000000000000000000000000000000000000000000000+0000000000000+0000000000000+0000000000000+0000000000000+0000000000000+0000000000000+002480014800000012890005309270200003446202402132029022800000000T                   000000000000000000000000                    000000000000000000000000                    000000000000000000000000                    000000000000000000000000 000000000000000000000000000000000    00000000999999999999999990321500000000000000000000000000000000000000000000000000000000000000
60419100053092702000003880010191000009478618002MARLON STUAR   0000191000009478618STD0000000000000000000000000PN0RR0020240213202402132024021300000000000000000000000000000000000000000000000000000000000000002024021319830330202902280000000000000+0000000000000+0000000000000+000000000000000000000000000000000000000000000000000000000000000000000000000000000000000000000000000000000000000000000+0000000000000+0000000000000+0000000000000+0000000000000+0000000000000+0000000000000+002480014800000012890005309270200003453202402132029022800000000T                   000000000000000000000000                    000000000000000000000000                    000000000000000000000000                    000000000000000000000000 000000000000000000000000000000000    00000000999999999999999990321500000000000000000000000000000000000000000000000000000000000000
