01820241024142051000000500000000029500000000050000000002950000000010                                                                                                                                                                       *
11919100000001234567000530927010000001300002024010101654000530927010000002100000000010000000001910000000000000000000000000NP DB REVERSAL                2089000000000                0000000      000000000000000031310191 000000000       *
11919100000001234567000530927010000001300002024010101652000530927010000002100000000010000000001910000000000000000000000000REPEAT N-P DB                 1088000000000                0000000      202410240000000031310191 000000000       *
11900000000000000000000530927010000007600002024101801654000530927010000112800000000001400000000000000000000000000000000000NP DB REVERSAL                2089000000000  999999999999990000000      000000000000000031310000 000000000       *
11900000000000000000000530927010000007600002024101801652000530927010000112800000000001400000000000000000000000000000000000REPEAT N-P DB                 1088000000000  999999999999990000000      000000000000000031310000 000000000       *
11900000000000000000000530927010000007600002024101901654000530927010000112800000000004000000000000000000000000000000000000NP DB REVERSAL                2089000000000  999999999999990000000      000000000000000031310000 000000000       *
11900000000000000000000530927010000007600002024101901652000530927010000112800000000004000000000000000000000000000000000000REPEAT N-P DB                 1088000000000  999999999999990000000      000000000000000031310000 000000000       *
11900000000000000000000530927010000007600002024101901654000530927010000112800000000004100000000000000000000000000000000000NP DB REVERSAL                2089000000000  999999999999990000000      000000000000000031310000 000000000       *
11900000000000000000000530927010000007600002024101901652000530927010000112800000000004100000000000000000000000000000000000REPEAT N-P DB                 1088000000000  999999999999990000000      000000000000000031310000 000000000       *
11921500000000000000000530927010000056000002024021301654000530927010000522800000000010000000002150000000000000000000000000NP DB REVERSAL                2089000000000  999999999999990000000      000000000000000031313215 000000000       *
11921500000000000000000530927010000056000002024021301652000530927010000522800000000010000000002150000000000000000000000000REPEAT N-P DB                 1088000000000  999999999999990000000      000000000000000031313215 000000000       *
