6041910005309270100006010                   001LUNA SEGURA    0000191000009678954STD000000                    D RR0020240226202402262024022600000000000000000000000000000000000000000000000000000000000000000000000000000000000000000000000000000+0000000000000+0000000000000+000000000000000000000000000000000000000000000000000000000000000000000000000000000000000000000000000000000000000000000+0000000000000+0000000000000+0000000000000+0000000000000+0000000000000+0000000000000+00248001480000000000                   000000000000000000000000                    000000000000000000000000                    000000000000000000000000                    000000000000000000000000                    000000000000000000000000 000000000000000000000000000000000    00000000999999999999999990321500000000000000000000000000000000000000000000002024022320250225
6041910005310130100007052                   011KATIA MORALES  0000191000009678960STD000000                    D RR4020240217202402172024021700000000000000000000000000000000000000000000000000000000000000000000000000000000000000000000000010000+0000000000000+0000000000000+000000000000000000000000000000000000000000000000000000000000000000000000000000000000000000000000000000000000000000000+0000000000000+0000000000000+0000000000000+0000000000000+0000000000000+0000000000000+00248001480000000000                   000000000000000000000000                    000000000000000000000000                    000000000000000000000000                    000000000000000000000000                    000000000000000000000000 000000000000000000000000000000000    00000000999999999999999990321500000000000000000000000000000000000000000000002024021820240220
6041910005310130300003448                   013PAUL LOPEZ     0000191000009678962STD000000                    D RR0020240220202402202024022000000000000000000000000000000000000000000000000000000000000000000000000000000000000000000000000000000+0000000000000+0000000000000+000000000000000000000000000000000000000000000000000000000000000000000000000000000000000000000000000000000000000000000+0000000000000+0000000000000+0000000000000+0000000000000+0000000000000+0000000000000+00248001480000000000                   000000000000000000000000                    000000000000000000000000                    000000000000000000000000                    000000000000000000000000                    000000000000000000000000 000000000000000000000000000000000    00000000999999999999999990321500000000000000000000000000000000000000000000002024021820240220
60419100053092701000000130010191000041525017001PRUEBA         0000191000041525017STD0000000000000000000000000PA0NN0820231231202312312023123100000000000000000000000020240301202402082024030820240101000000002024010100000000000000000000000001000+0000000100000+0000000100000+000000000000000000000000000000000000000000000000000000000000000000000000000000000000000000000000000000000000000100000+0000000000000+0000000100000+0000000100000+0000000000000+0000000100000+0000000100000+002480014800000000000005309270100000021202312312026013100000000T                   000000000000000000000000                    000000000000000000000000                    000000000000000000000000                    000000000000000000000000 100000000000000000000000000000000    00000000000000000000000000019100000000000000000000000000000000000000000000002024010120240201
60419100053092701000000240010191000009678953001ALAN GARCES    0000191000009678953STD0000000000000000000000000PD0NN0520240209202402122024021200000000000000000000000020240301202402050000000000000000000000002024021319840330202902280000000010000+0000000000000+0000000000000+000000000000000000000000000000000000000000000000000000000000000000000000000000000000000000000000000000000000000000000+0000000010000+0000000000000+0000000000000+0000000000000+0000000000000+0000000000000+000020000100000032150005309270100000658202402092029022800000000T                   000000000000000000000000                    000000000000000000000000                    000000000000000000000000                    000000000000000000000000 000000000000000000000000000000000    00000000SSS000000000000000321500000000000000000000000000000000000000000000002024021420240214
60419100053092701000000250010191000009678954001LUNA SEGURA    0000191000009678954STD0000000000000000000000000PD0NN0420240209202402102024021000000000000000000000000020240301202402040000000000000000000000002024021119740305202902280000000010000+0000000000000+0000000000000+000000000000000000000000000000000000000000000000000000000000000000000000000000000000000000000000000000000000000000000+0000000010000+0000000000000+0000000000000+0000000000000+0000000000000+0000000000000+000020000100000032150005309270100000666202402092029022800000000T                   000000000000000000000000                    000000000000000000000000                    000000000000000000000000                    000000000000000000000000 000000000000000000000000000000000    00000000SSS000000000000000321500000000000000000000000000000000000000000000002024021220240430
60419100053092701000000570010191000009478477001JOEL MERINO    0000191000009478477STD0000000000000000000000000PD0RR0920240210202402252024022500000000000000000000000020240213202402050000000000000000000000002024090519840330202902280000000010000+0000000000000+0000000000000+000000000000000000000000000000000000000000000000000000000000000000000000000000000000000000000000000000000000000000000+0000000010000+0000000000000+0000000000000+0000000000000+0000000000000+0000000000000+002480014800000032150005309270100000955202402102029022800000000T                   000000000000000000000000                    000000000000000000000000                    000000000000000000000000                    000000000000000000000000 000000000000000000000000000000000    00000000999999999999999990321500000000000000000000000000000000000000000000002024022520240302
60419100053092701000000580010191000009478478001CINDY GALESSE  0000191000009478478STD0000000000000000000000000PD0RR1020240210202402252024022500000000000000000000000020240213202402050000000000000000000000002024090519740305202902280000000012000+0000000000000+0000000000000+000000000000000000000000000000000000000000000000000000000000000000000000000000000000000000000000000000000000000000000+0000000012000+0000000000000+0000000000000+0000000000000+0000000000000+0000000000000+002480014800000032150005309270100000963202402102029022800000000T                   000000000000000000000000                    000000000000000000000000                    000000000000000000000000                    000000000000000000000000 000000000000000000000000000000000    00000000999999999999999990321500000000000000000000000000000000000000000000002024022520240303
60419100053092701000000590010191000009478479001MARIA SUAREZ   0000191000009478479STD0000000000000000000000000PN0RR0020240210202402102024022500000000000000000000000000000000000000000000000000000000000000002024090519740305202902280000000000000+0000000000000+0000000000000+000000000000000000000000000000000000000000000000000000000000000000000000000000000000000000000000000000000000000000000+0000000000000+0000000000000+0000000000000+0000000000000+0000000000000+0000000000000+002480014800000032150005309270100000971202402102029022800000000T                   000000000000000000000000                    000000000000000000000000                    000000000000000000000000                    000000000000000000000000 000000000000000000000000000000000    00000000999999999999999990321500000000000000000000000000000000000000000000000000000000000000
60419100053092701000000750010191000032483106001ABIGAIL ARANDA 0000191000032483106STD0000000000000000000000000PA0NN1820240211202402132024021300000000000000000000000020240301202402182024031820240228000000002024021619250820202902280000001000000+0000000150000+0000000150000+000000000000000000000000000000000000000000000000000000000000000000000000000000000000000000000000000000000000000200000+0000000998000+0000000050000+0000000050000+0000000998000+0000000050000+0000100000000+002480014800000000000005309270100001110202402132029022800000000T                   000000000000000000000000                    000000000000000000000000                    000000000000000000000000                    000000000000000000000000 100000000000000000000000000000000    00000000999999999999999990000000000000000000000000000000000000000000000000002024021520240320
60419100053092701000000760010191000070548130001WESLEY PERALTA 0000191000070548130STD0000000000000000000000000PN0RR0020240211202402112024021100000000000000000000000000000000000000000000000000000000000000002024021619900825202902280000000800000+0000000000000+0000000000000+000000000000000000000000000000000000000000000000000000000000000000000000000000000000000000000000000000000000000000000+0000000000000+0000000000000+0000000000000+0000000000000+0000000000000+0000000000000+002480014800000000000005309270100001128202402112029022800000000T                   000000000000000000000000                    000000000000000000000000                    000000000000000000000000                    000000000000000000000000 000000000000000000000000000000000    00000000999999999999999990000000000000000000000000000000000000000000000000000000000000000000
60419100053092701000000770010191000006009468001PEDRO CHAFLOQUE0000191000006009468STD0000000000000000000000000PN0RR0020240211202402112024021100000000000000000000000000000000000000000000000000000000000000002024021619560412202902280000000750000+0000000000000+0000000000000+000000000000000000000000000000000000000000000000000000000000000000000000000000000000000000000000000000000000000000000+0000000000000+0000000000000+0000000000000+0000000000000+0000000000000+0000000000000+002480014800000000000005309270100001136202402112029022800000000T                   000000000000000000000000                    000000000000000000000000                    000000000000000000000000                    000000000000000000000000 000000000000000000000000000000000    00000000999999999999999990000000000000000000000000000000000000000000000000000000000000000000
60419100053092701000000780010191000007601347001DEMETRIO MANDUJ0000191000007601347STD0000000000000000000000000PN0RR0020240211202402112024021100000000000000000000000000000000000000000000000000000000000000002024021619441017202902280000000900000+0000000000000+0000000000000+000000000000000000000000000000000000000000000000000000000000000000000000000000000000000000000000000000000000000000000+0000000000000+0000000000000+0000000000000+0000000000000+0000000000000+0000000000000+002480014800000000000005309270100001144202402112029022800000000T                   000000000000000000000000                    000000000000000000000000                    000000000000000000000000                    000000000000000000000000 000000000000000000000000000000000    00000000999999999999999990000000000000000000000000000000000000000000000000000000000000000000
60419100053092701000000790010191000006578456001EMILIANO SANCHE0000191000006578456STD0000000000000000000000000PN0RR0020240211202402112024021100000000000000000000000000000000000000000000000000000000000000002024021619480718202902280000000458550+0000000000000+0000000000000+000000000000000000000000000000000000000000000000000000000000000000000000000000000000000000000000000000000000000000000+0000000000000+0000000000000+0000000000000+0000000000000+0000000000000+0000000000000+002480014800000000000005309270100001151202402112029022800000000T                   000000000000000000000000                    000000000000000000000000                    000000000000000000000000                    000000000000000000000000 000000000000000000000000000000000    00000000999999999999999990000000000000000000000000000000000000000000000000000000000000000000
60419100053092701000005430010191000009478490001JOSE MESANO    0000191000009478490STD0000000000000000000000000PN0RR0020240212202402122024021200000000000000000000000000000000000000000000000000000000000000002024021219840330202902280000000000000+0000000000000+0000000000000+000000000000000000000000000000000000000000000000000000000000000000000000000000000000000000000000000000000000000000000+0000000000000+0000000000000+0000000000000+0000000000000+0000000000000+0000000000000+002480014800000012890005309270100005061202402122029022800000000T                   000000000000000000000000                    000000000000000000000000                    000000000000000000000000                    000000000000000000000000 000000000000000000000000000000000    00000000999999999999999990321500000000000000000000000000000000000000000000000000000000000000
60419100053092701000005440010191000009478491001CRISTEL GALLARD0000191000009478491STD0000000000000000000000000PN0RR0020240212202402122024021200000000000000000000000000000000000000000000000000000000000000002024021219740305202902280000000000000+0000000000000+0000000000000+000000000000000000000000000000000000000000000000000000000000000000000000000000000000000000000000000000000000000000000+0000000000000+0000000000000+0000000000000+0000000000000+0000000000000+0000000000000+002480014800000012890005309270100005079202402122029022800000000T                   000000000000000000000000                    000000000000000000000000                    000000000000000000000000                    000000000000000000000000 000000000000000000000000000000000    00000000999999999999999990321500000000000000000000000000000000000000000000000000000000000000
60419100053092701000005450010191000009478492001MIRIAM SUAREZ  0000191000009478492STD0000000000000000000000000PN0RR0020240212202402122024021200000000000000000000000000000000000000000000000000000000000000002024021219740305202902280000000000000+0000000000000+0000000000000+000000000000000000000000000000000000000000000000000000000000000000000000000000000000000000000000000000000000000000000+0000000000000+0000000000000+0000000000000+0000000000000+0000000000000+0000000000000+002480014800000012890005309270100005087202402122029022800000000T                   000000000000000000000000                    000000000000000000000000                    000000000000000000000000                    000000000000000000000000 000000000000000000000000000000000    00000000999999999999999990321500000000000000000000000000000000000000000000000000000000000000
60419100053092701000005460010191000009478502001JUAN MURGIA    0000191000009478502STD0000000000000000000000000PN0RR0020240212202402122024021200000000000000000000000000000000000000000000000000000000000000002024021219840330202902280000000000000+0000000000000+0000000000000+000000000000000000000000000000000000000000000000000000000000000000000000000000000000000000000000000000000000000000000+0000000000000+0000000000000+0000000000000+0000000000000+0000000000000+0000000000000+002480014800000012890005309270100005095202402122029022800000000T                   000000000000000000000000                    000000000000000000000000                    000000000000000000000000                    000000000000000000000000 000000000000000000000000000000000    00000000999999999999999990321500000000000000000000000000000000000000000000000000000000000000
60419100053092701000005470010191000009478503001CAROLA ZAPATA  0000191000009478503STD0000000000000000000000000PN0RR0020240212202402122024021200000000000000000000000000000000000000000000000000000000000000002024021219740305202902280000000000000+0000000000000+0000000000000+000000000000000000000000000000000000000000000000000000000000000000000000000000000000000000000000000000000000000000000+0000000000000+0000000000000+0000000000000+0000000000000+0000000000000+0000000000000+002480014800000012890005309270100005103202402122029022800000000T                   000000000000000000000000                    000000000000000000000000                    000000000000000000000000                    000000000000000000000000 000000000000000000000000000000000    00000000999999999999999990321500000000000000000000000000000000000000000000000000000000000000
60419100053092701000005480010191000009478504001JULIA SUCCA    0000191000009478504STD0000000000000000000000000PN0RR0020240212202402122024021200000000000000000000000000000000000000000000000000000000000000002024021219740305202902280000000000000+0000000000000+0000000000000+000000000000000000000000000000000000000000000000000000000000000000000000000000000000000000000000000000000000000000000+0000000000000+0000000000000+0000000000000+0000000000000+0000000000000+0000000000000+002480014800000012890005309270100005111202402122029022800000000T                   000000000000000000000000                    000000000000000000000000                    000000000000000000000000                    000000000000000000000000 000000000000000000000000000000000    00000000999999999999999990321500000000000000000000000000000000000000000000000000000000000000
60419100053092701000005490010191000009478515001MAX MERCURIO   0000191000009478515STD0000000000000000000000000PN0RR0020240212202402122024021200000000000000000000000000000000000000000000000000000000000000002024021219840330202902280000000000000+0000000000000+0000000000000+000000000000000000000000000000000000000000000000000000000000000000000000000000000000000000000000000000000000000000000+0000000000000+0000000000000+0000000000000+0000000000000+0000000000000+0000000000000+002480014800000012890005309270100005129202402122029022800000000T                   000000000000000000000000                    000000000000000000000000                    000000000000000000000000                    000000000000000000000000 000000000000000000000000000000000    00000000999999999999999990321500000000000000000000000000000000000000000000000000000000000000
60419100053092701000005500010191000009478516001URSULA GALLEGOS0000191000009478516STD0000000000000000000000000PN0RR0020240212202402122024021200000000000000000000000000000000000000000000000000000000000000002024021219740305202902280000000000000+0000000000000+0000000000000+000000000000000000000000000000000000000000000000000000000000000000000000000000000000000000000000000000000000000000000+0000000000000+0000000000000+0000000000000+0000000000000+0000000000000+0000000000000+002480014800000012890005309270100005137202402122029022800000000T                   000000000000000000000000                    000000000000000000000000                    000000000000000000000000                    000000000000000000000000 000000000000000000000000000000000    00000000999999999999999990321500000000000000000000000000000000000000000000000000000000000000
60419100053092701000005510010191000009478517001MARIANA SANCHEZ0000191000009478517STD0000000000000000000000000PN0RR0020240212202402122024021200000000000000000000000000000000000000000000000000000000000000002024021219740305202902280000000000000+0000000000000+0000000000000+000000000000000000000000000000000000000000000000000000000000000000000000000000000000000000000000000000000000000000000+0000000000000+0000000000000+0000000000000+0000000000000+0000000000000+0000000000000+002480014800000012890005309270100005145202402122029022800000000T                   000000000000000000000000                    000000000000000000000000                    000000000000000000000000                    000000000000000000000000 000000000000000000000000000000000    00000000999999999999999990321500000000000000000000000000000000000000000000000000000000000000
60419100053092701000005520010191000009478528001GISELA GAMMA   0000191000009478528STD0000000000000000000000000PN0RR0020240212202402122024021200000000000000000000000000000000000000000000000000000000000000002024021219840330202902280000000000000+0000000000000+0000000000000+000000000000000000000000000000000000000000000000000000000000000000000000000000000000000000000000000000000000000000000+0000000000000+0000000000000+0000000000000+0000000000000+0000000000000+0000000000000+002480014800000012890005309270100005152202402122029022800000000T                   000000000000000000000000                    000000000000000000000000                    000000000000000000000000                    000000000000000000000000 000000000000000000000000000000000    00000000999999999999999990321500000000000000000000000000000000000000000000000000000000000000
60419100053092701000005530010191000009478529001MARIA PEREZ    0000191000009478529STD0000000000000000000000000PN0RR0020240212202402122024021200000000000000000000000000000000000000000000000000000000000000002024021219740305202902280000000000000+0000000000000+0000000000000+000000000000000000000000000000000000000000000000000000000000000000000000000000000000000000000000000000000000000000000+0000000000000+0000000000000+0000000000000+0000000000000+0000000000000+0000000000000+002480014800000012890005309270100005160202402122029022800000000T                   000000000000000000000000                    000000000000000000000000                    000000000000000000000000                    000000000000000000000000 000000000000000000000000000000000    00000000999999999999999990321500000000000000000000000000000000000000000000000000000000000000
60419100053092701000005540010191000009478530001RAMON MESA     0000191000009478530STD0000000000000000000000000PN0RR0020240212202402122024021200000000000000000000000000000000000000000000000000000000000000002024021219740305202902280000000000000+0000000000000+0000000000000+000000000000000000000000000000000000000000000000000000000000000000000000000000000000000000000000000000000000000000000+0000000000000+0000000000000+0000000000000+0000000000000+0000000000000+0000000000000+002480014800000012890005309270100005178202402122029022800000000T                   000000000000000000000000                    000000000000000000000000                    000000000000000000000000                    000000000000000000000000 000000000000000000000000000000000    00000000999999999999999990321500000000000000000000000000000000000000000000000000000000000000
60419100053092701000005550010191000009478540001LUCIANA PEREZ  0000191000009478540STD0000000000000000000000000PN0RR0020240212202402122024021200000000000000000000000000000000000000000000000000000000000000002024021219840330202902280000000000000+0000000000000+0000000000000+000000000000000000000000000000000000000000000000000000000000000000000000000000000000000000000000000000000000000000000+0000000000000+0000000000000+0000000000000+0000000000000+0000000000000+0000000000000+002480014800000012890005309270100005186202402122029022800000000T                   000000000000000000000000                    000000000000000000000000                    000000000000000000000000                    000000000000000000000000 000000000000000000000000000000000    00000000999999999999999990321500000000000000000000000000000000000000000000000000000000000000
60419100053092701000005560010191000009478541001URSULA PERALTA 0000191000009478541STD0000000000000000000000000PN0RR0020240212202402122024021200000000000000000000000000000000000000000000000000000000000000002024021219740305202902280000000000000+0000000000000+0000000000000+000000000000000000000000000000000000000000000000000000000000000000000000000000000000000000000000000000000000000000000+0000000000000+0000000000000+0000000000000+0000000000000+0000000000000+0000000000000+002480014800000012890005309270100005194202402122029022800000000T                   000000000000000000000000                    000000000000000000000000                    000000000000000000000000                    000000000000000000000000 000000000000000000000000000000000    00000000999999999999999990321500000000000000000000000000000000000000000000000000000000000000
60419100053092701000005570010191000009478542001MARCOS PERNO   0000191000009478542STD0000000000000000000000000PN0RR0020240212202402122024021200000000000000000000000000000000000000000000000000000000000000002024021219740305202902280000000000000+0000000000000+0000000000000+000000000000000000000000000000000000000000000000000000000000000000000000000000000000000000000000000000000000000000000+0000000000000+0000000000000+0000000000000+0000000000000+0000000000000+0000000000000+002480014800000012890005309270100005202202402122029022800000000T                   000000000000000000000000                    000000000000000000000000                    000000000000000000000000                    000000000000000000000000 000000000000000000000000000000000    00000000999999999999999990321500000000000000000000000000000000000000000000000000000000000000
60419100053092701000005580010191000009478552001CARMELA GARCIA 0000191000009478552STD0000000000000000000000000PN0RR0020240212202402122024021200000000000000000000000000000000000000000000000000000000000000002024021219840330202902280000000000000+0000000000000+0000000000000+000000000000000000000000000000000000000000000000000000000000000000000000000000000000000000000000000000000000000000000+0000000000000+0000000000000+0000000000000+0000000000000+0000000000000+0000000000000+002480014800000012890005309270100005210202402122029022800000000T                   000000000000000000000000                    000000000000000000000000                    000000000000000000000000                    000000000000000000000000 000000000000000000000000000000000    00000000999999999999999990321500000000000000000000000000000000000000000000000000000000000000
60419100053092701000005600010191000009478553001STEFANY ROJAS  0000191000009478553STD0000000000000000000000000PN0RR0020240212202402122024021200000000000000000000000000000000000000000000000000000000000000002024021219740305202902280000000000000+0000000000000+0000000000000+000000000000000000000000000000000000000000000000000000000000000000000000000000000000000000000000000000000000000000000+0000000000000+0000000000000+0000000000000+0000000000000+0000000000000+0000000000000+002480014800000012890005309270100005228202402122029022800000000T                   000000000000000000000000                    000000000000000000000000                    000000000000000000000000                    000000000000000000000000 000000000000000000000000000000000    00000000999999999999999990321500000000000000000000000000000000000000000000000000000000000000
60419100053092701000005610010191000009478554001ELIAS DIAZ     0000191000009478554STD0000000000000000000000000PA0NN1820240212202402132024021300000000000000000000000020240301202402182024031820240213000000002024021419740305202902280000000015000+0000000100000+0000000100000+000000000000000000000000000000000000000000000000000000000000000000000000000000000000000000000000000000000000000100000+0000000014000+0000000100000+0000000100000+0000000000000+0000000000000+0000000000000+002480014800000012890005309270100005236202402132029022800000000T                   000000000000000000000000                    000000000000000000000000                    000000000000000000000000                    000000000000000000000000 100000000000000000000000000000000    00000000999999999999999990321500000000000000000000000000000000000000000000000000000000000000
60419100053092701000005620010191000009478564001MARIA TARAZONA 0000191000009478564STD0000000000000000000000000PN0RR0020240212202402122024021200000000000000000000000000000000000000000000000000000000000000002024021219840330202902280000000000000+0000000000000+0000000000000+000000000000000000000000000000000000000000000000000000000000000000000000000000000000000000000000000000000000000000000+0000000000000+0000000000000+0000000000000+0000000000000+0000000000000+0000000000000+002480014800000012890005309270100005244202402122029022800000000T                   000000000000000000000000                    000000000000000000000000                    000000000000000000000000                    000000000000000000000000 000000000000000000000000000000000    00000000999999999999999990321500000000000000000000000000000000000000000000000000000000000000
60419100053092701000005630010191000009478565001MARY CHAVEZ    0000191000009478565STD0000000000000000000000000PN0RR0020240212202402122024021200000000000000000000000000000000000000000000000000000000000000002024021219740305202902280000000000000+0000000000000+0000000000000+000000000000000000000000000000000000000000000000000000000000000000000000000000000000000000000000000000000000000000000+0000000000000+0000000000000+0000000000000+0000000000000+0000000000000+0000000000000+002480014800000012890005309270100005251202402122029022800000000T                   000000000000000000000000                    000000000000000000000000                    000000000000000000000000                    000000000000000000000000 000000000000000000000000000000000    00000000999999999999999990321500000000000000000000000000000000000000000000000000000000000000
60419100053092701000005640010191000009478566001JUAN TELLO     0000191000009478566STD0000000000000000000000000PN0RR0020240212202402122024021200000000000000000000000000000000000000000000000000000000000000002024021219740305202902280000000000000+0000000000000+0000000000000+000000000000000000000000000000000000000000000000000000000000000000000000000000000000000000000000000000000000000000000+0000000000000+0000000000000+0000000000000+0000000000000+0000000000000+0000000000000+002480014800000012890005309270100005269202402122029022800000000T                   000000000000000000000000                    000000000000000000000000                    000000000000000000000000                    000000000000000000000000 000000000000000000000000000000000    00000000999999999999999990321500000000000000000000000000000000000000000000000000000000000000
60419100053092701000005650010191000009478576001CAROL QUISPE   0000191000009478576STD0000000000000000000000000PN0RR0020240212202402122024021200000000000000000000000000000000000000000000000000000000000000002024021219840330202902280000000000000+0000000000000+0000000000000+000000000000000000000000000000000000000000000000000000000000000000000000000000000000000000000000000000000000000000000+0000000000000+0000000000000+0000000000000+0000000000000+0000000000000+0000000000000+002480014800000012890005309270100005277202402122029022800000000T                   000000000000000000000000                    000000000000000000000000                    000000000000000000000000                    000000000000000000000000 000000000000000000000000000000000    00000000999999999999999990321500000000000000000000000000000000000000000000000000000000000000
60419100053092701000005660010191000009478577001HILDA TAPIA    0000191000009478577STD0000000000000000000000000PN0RR0020240212202402122024021200000000000000000000000000000000000000000000000000000000000000002024021219740305202902280000000000000+0000000000000+0000000000000+000000000000000000000000000000000000000000000000000000000000000000000000000000000000000000000000000000000000000000000+0000000000000+0000000000000+0000000000000+0000000000000+0000000000000+0000000000000+002480014800000012890005309270100005285202402122029022800000000T                   000000000000000000000000                    000000000000000000000000                    000000000000000000000000                    000000000000000000000000 000000000000000000000000000000000    00000000999999999999999990321500000000000000000000000000000000000000000000000000000000000000
60419100053092701000005680010191000009478578001CESAR CARRILLO 0000191000009478578STD0000000000000000000000000PN0RR0020240212202402122024021200000000000000000000000000000000000000000000000000000000000000002024021219740305202902280000000000000+0000000000000+0000000000000+000000000000000000000000000000000000000000000000000000000000000000000000000000000000000000000000000000000000000000000+0000000000000+0000000000000+0000000000000+0000000000000+0000000000000+0000000000000+002480014800000012890005309270100005293202402122029022800000000T                   000000000000000000000000                    000000000000000000000000                    000000000000000000000000                    000000000000000000000000 000000000000000000000000000000000    00000000999999999999999990321500000000000000000000000000000000000000000000000000000000000000
60419100053092701000005690010191000009478589001VANIA JUAREZ   0000191000009478589STD0000000000000000000000000PN0RR0020240212202402122024021200000000000000000000000000000000000000000000000000000000000000002024021219740305202902280000000000000+0000000000000+0000000000000+000000000000000000000000000000000000000000000000000000000000000000000000000000000000000000000000000000000000000000000+0000000000000+0000000000000+0000000000000+0000000000000+0000000000000+0000000000000+002480014800000012890005309270100005301202402122029022800000000T                   000000000000000000000000                    000000000000000000000000                    000000000000000000000000                    000000000000000000000000 000000000000000000000000000000000    00000000999999999999999990321500000000000000000000000000000000000000000000000000000000000000
60419100053092701000005700010191000009478590001CHECHO IBARRA  0000191000009478590STD0000000000000000000000000PN0RR0020240212202402122024021200000000000000000000000000000000000000000000000000000000000000002024021219740305202902280000000000000+0000000000000+0000000000000+000000000000000000000000000000000000000000000000000000000000000000000000000000000000000000000000000000000000000000000+0000000000000+0000000000000+0000000000000+0000000000000+0000000000000+0000000000000+002480014800000012890005309270100005319202402122029022800000000T                   000000000000000000000000                    000000000000000000000000                    000000000000000000000000                    000000000000000000000000 000000000000000000000000000000000    00000000999999999999999990321500000000000000000000000000000000000000000000000000000000000000
60419100053092701000006240010191000009478602001RAUL MERINO    0000191000009478602STD0000000000000000000000000PN0RR1820240213202402132024021300000000000000000000000000000000000000000000000000000000000000002024021519840330202902280000000010000+0000000000000+0000000000000+000000000000000000000000000000000000000000000000000000000000000000000000000000000000000000000000000000000000000000000+0000000000000+0000000000000+0000000000000+0000000000000+0000000000000+0000000000000+002480014800000012890005309270100005806202402132029022800000000T                   000000000000000000000000                    000000000000000000000000                    000000000000000000000000                    000000000000000000000000 000000000000000000000000000000000    00000000999999999999999990321500000000000000000000000000000000000000000000002024021620240218
60419100053092701000006260010191000009478603001CARLA GALENO   0000191000009478603STD0000000000000000000000000PN0RR1020240213202402132024021300000000000000000000000000000000000000000000000000000000000000002024021519740305202902280000000015000+0000000000000+0000000000000+000000000000000000000000000000000000000000000000000000000000000000000000000000000000000000000000000000000000000000000+0000000000000+0000000000000+0000000000000+0000000000000+0000000000000+0000000000000+002480014800000012890005309270100005814202402132029022800000000T                   000000000000000000000000                    000000000000000000000000                    000000000000000000000000                    000000000000000000000000 000000000000000000000000000000000    00000000999999999999999990321500000000000000000000000000000000000000000000002024021620240218
60419100053092701000006270010191000009478604001MARIA SAENZ    0000191000009478604STD0000000000000000000000000PN0RR1220240213202402132024021300000000000000000000000000000000000000000000000000000000000000002024021519740305202902280000000015000+0000000000000+0000000000000+000000000000000000000000000000000000000000000000000000000000000000000000000000000000000000000000000000000000000000000+0000000000000+0000000000000+0000000000000+0000000000000+0000000000000+0000000000000+002480014800000012890005309270100005822202402132029022800000000T                   000000000000000000000000                    000000000000000000000000                    000000000000000000000000                    000000000000000000000000 000000000000000000000000000000000    00000000999999999999999990321500000000000000000000000000000000000000000000002024021620240218
60419100053092701000006280010191000009478614001PEDRO MASO     0000191000009478614STD0000000000000000000000000PN0RR0020240213202402132024021300000000000000000000000000000000000000000000000000000000000000002024021319840330202902280000000000000+0000000000000+0000000000000+000000000000000000000000000000000000000000000000000000000000000000000000000000000000000000000000000000000000000000000+0000000000000+0000000000000+0000000000000+0000000000000+0000000000000+0000000000000+002480014800000012890005309270100005830202402132029022800000000T                   000000000000000000000000                    000000000000000000000000                    000000000000000000000000                    000000000000000000000000 000000000000000000000000000000000    00000000999999999999999990321500000000000000000000000000000000000000000000000000000000000000
60419100053092701000006290010191000009478615001CAROLA ZACAPA  0000191000009478615STD0000000000000000000000000PN0RR0020240213202402132024021300000000000000000000000000000000000000000000000000000000000000002024021319740305202902280000000000000+0000000000000+0000000000000+000000000000000000000000000000000000000000000000000000000000000000000000000000000000000000000000000000000000000000000+0000000000000+0000000000000+0000000000000+0000000000000+0000000000000+0000000000000+002480014800000012890005309270100005848202402132029022800000000T                   000000000000000000000000                    000000000000000000000000                    000000000000000000000000                    000000000000000000000000 000000000000000000000000000000000    00000000999999999999999990321500000000000000000000000000000000000000000000000000000000000000
60419100053092701000006300010191000009478616001JULIA SUMA     0000191000009478616STD0000000000000000000000000PN0RR2620240213202402132024021300000000000000000000000000000000000000000000000000000000000000002024021719740305202902280000000010000+0000000000000+0000000000000+000000000000000000000000000000000000000000000000000000000000000000000000000000000000000000000000000000000000000000000+0000000000000+0000000000000+0000000000000+0000000000000+0000000000000+0000000000000+002480014800000012890005309270100005855202402132029022800000000T                   000000000000000000000000                    000000000000000000000000                    000000000000000000000000                    000000000000000000000000 000000000000000000000000000000000    00000000999999999999999990321500000000000000000000000000000000000000000000002024021920240319
60419100053092701000006310010191000009478627001MAX MALTA      0000191000009478627STD0000000000000000000000000PN0RR2620240213202402132024021300000000000000000000000000000000000000000000000000000000000000002024021719840330202902280000000020000+0000000000000+0000000000000+000000000000000000000000000000000000000000000000000000000000000000000000000000000000000000000000000000000000000000000+0000000000000+0000000000000+0000000000000+0000000000000+0000000000000+0000000000000+002480014800000012890005309270100005863202402132029022800000000T                   000000000000000000000000                    000000000000000000000000                    000000000000000000000000                    000000000000000000000000 000000000000000000000000000000000    00000000999999999999999990321500000000000000000000000000000000000000000000002024021920240319
60419100053092701000006320010191000009478628001URSULA GALLEGOS0000191000009478628STD0000000000000000000000000PN0RR2520240213202402132024021300000000000000000000000000000000000000000000000000000000000000002024021719740305202902280000000015000+0000000000000+0000000000000+000000000000000000000000000000000000000000000000000000000000000000000000000000000000000000000000000000000000000000000+0000000000000+0000000000000+0000000000000+0000000000000+0000000000000+0000000000000+002480014800000012890005309270100005871202402132029022800000000T                   000000000000000000000000                    000000000000000000000000                    000000000000000000000000                    000000000000000000000000 000000000000000000000000000000000    00000000999999999999999990321500000000000000000000000000000000000000000000002024021820240318
60419100053092701000006340010191000009478629001MARIANA SANCHO 0000191000009478629STD0000000000000000000000000PN0RR2620240213202402132024021300000000000000000000000000000000000000000000000000000000000000002024021919740305202902280000000010000+0000000000000+0000000000000+000000000000000000000000000000000000000000000000000000000000000000000000000000000000000000000000000000000000000000000+0000000000000+0000000000000+0000000000000+0000000000000+0000000000000+0000000000000+002480014800000012890005309270100005889202402132029022800000000T                   000000000000000000000000                    000000000000000000000000                    000000000000000000000000                    000000000000000000000000 000000000000000000000000000000000    00000000999999999999999990321500000000000000000000000000000000000000000000002024021920240319
60419100053092701000006350010191000009478640001GISELA GARRIDO 0000191000009478640STD0000000000000000000000000PN0RR2620240213202402132024021300000000000000000000000000000000000000000000000000000000000000002024021919840330202902280000000020000+0000000000000+0000000000000+000000000000000000000000000000000000000000000000000000000000000000000000000000000000000000000000000000000000000000000+0000000000000+0000000000000+0000000000000+0000000000000+0000000000000+0000000000000+002480014800000012890005309270100005897202402132029022800000000T                   000000000000000000000000                    000000000000000000000000                    000000000000000000000000                    000000000000000000000000 000000000000000000000000000000000    00000000999999999999999990321500000000000000000000000000000000000000000000002024021920240319
60419100053092701000006360010191000009478641001MARIA TORRES   0000191000009478641STD0000000000000000000000000PN0RR2620240213202402132024021300000000000000000000000000000000000000000000000000000000000000002024021919740305202902280000000015000+0000000000000+0000000000000+000000000000000000000000000000000000000000000000000000000000000000000000000000000000000000000000000000000000000000000+0000000000000+0000000000000+0000000000000+0000000000000+0000000000000+0000000000000+002480014800000012890005309270100005905202402132029022800000000T                   000000000000000000000000                    000000000000000000000000                    000000000000000000000000                    000000000000000000000000 000000000000000000000000000000000    00000000999999999999999990321500000000000000000000000000000000000000000000002024021920240319
60419100053092701000006370010191000009478642001RAMON BLADES   0000191000009478642STD0000000000000000000000000PN0RR0020240213202402132024021300000000000000000000000000000000000000000000000000000000000000002024021319740305202902280000000000000+0000000000000+0000000000000+000000000000000000000000000000000000000000000000000000000000000000000000000000000000000000000000000000000000000000000+0000000000000+0000000000000+0000000000000+0000000000000+0000000000000+0000000000000+002480014800000012890005309270100005913202402132029022800000000T                   000000000000000000000000                    000000000000000000000000                    000000000000000000000000                    000000000000000000000000 000000000000000000000000000000000    00000000999999999999999990321500000000000000000000000000000000000000000000000000000000000000
60419100053092701000006450010191000009478423001JOEL MERINO    0000191000009478423STD0000000000000000000000000PN0RR0020240218202402182024021800000000000000000000000000000000000000000000000000000000000000002024021819840330202902280000000000000+0000000000000+0000000000000+000000000000000000000000000000000000000000000000000000000000000000000000000000000000000000000000000000000000000000000+0000000000000+0000000000000+0000000000000+0000000000000+0000000000000+0000000000000+002480014800000012890005309270100005954202402182029022800000000T                   000000000000000000000000                    000000000000000000000000                    000000000000000000000000                    000000000000000000000000 000000000000000000000000000000000    00000000999999999999999990321500000000000000000000000000000000000000000000000000000000000000
60419100053092701000006460010191000009478424001CINDY GALESSE  0000191000009478424STD0000000000000000000000000PN0RR0020240218202402182024021800000000000000000000000000000000000000000000000000000000000000002024021819740305202902280000000000000+0000000000000+0000000000000+000000000000000000000000000000000000000000000000000000000000000000000000000000000000000000000000000000000000000000000+0000000000000+0000000000000+0000000000000+0000000000000+0000000000000+0000000000000+002480014800000012890005309270100005962202402182029022800000000T                   000000000000000000000000                    000000000000000000000000                    000000000000000000000000                    000000000000000000000000 000000000000000000000000000000000    00000000999999999999999990321500000000000000000000000000000000000000000000000000000000000000
60419100053092701000006470010191000009478425001MARIA SUAREZ   0000191000009478425STD0000000000000000000000000PN0RR0020240218202402182024021800000000000000000000000000000000000000000000000000000000000000002024021819740305202902280000000000000+0000000000000+0000000000000+000000000000000000000000000000000000000000000000000000000000000000000000000000000000000000000000000000000000000000000+0000000000000+0000000000000+0000000000000+0000000000000+0000000000000+0000000000000+002480014800000012890005309270100005970202402182029022800000000T                   000000000000000000000000                    000000000000000000000000                    000000000000000000000000                    000000000000000000000000 000000000000000000000000000000000    00000000999999999999999990321500000000000000000000000000000000000000000000000000000000000000
60419100053092701000006480010191000015743653001MARIO NAKAMA   0000191000015743653STD0000000000000000000000000PA0NN0320240223202402292024022900000000000000000000000020240301202402030000000020240301000000002024091619751225202902280000000900000+0000000000000+0000000000000+000000000000000000000000000000000000000000000000000000000000000000000000000000000000000000000000000000000000000589000+0000000894110+0000000180000+0000000589000+0000000003110+0000000589000+0000000900000+002480014800000060010005309270100005988202402232029022800000000T                   000000000000000000000000                    000000000000000000000000                    000000000000000000000000                    000000000000000000000000 000000000000000000000000000000000    00000000999999999999999990000000000000000000000000000000000000000000000000002024090920240926
60419100053092701000006490010191000010135089001KARINA CHAFLOQU0000191000010135089STD0000000000000000000000000PA0NN0320240223202402272024022700000000000000000000000020240301202402030000000020240301000000002024091219740301202902280000000700000+0000000000000+0000000000000+000000000000000000000000000000000000000000000000000000000000000000000000000000000000000000000000000000000000000699000+0000000693010+0000000054000+0000000111000+0000000000010+0000000699000+0000000700000+002480014800000060010005309270100005996202402232029022800000000T                   000000000000000000000000                    000000000000000000000000                    000000000000000000000000                    000000000000000000000000 000000000000000000000000000000000    00000000999999999999999990000000000000000000000000000000000000000000000000002024090920240926
60419100053092701000006500010191000016727214001JORGE BENEL    0000191000016727214STD0000000000000000000000000PA0NN2720240223202402252024022500000000000000000000000020240301202402190000000020240301000000002024022719741115202902280000000010000+0000000000000+0000000000000+000000000000000000000000000000000000000000000000000000000000000000000000000000000000000000000000000000000000000540500+0000000004595+0000000012500+0000000015500+0000000004595+0000000540500+0000001000000+002480014800000060010005309270100006002202402232029022800000000T                   000000000000000000000000                    000000000000000000000000                    000000000000000000000000                    000000000000000000000000 000000000000000000000000000000000    00000000999999999999999990000000000000000000000000000000000000000000000000002024090920240912
6041910005309270100006010                   001LUNA SEGURA    0000191000009678954STD000000                    D RR0020240226202402262024022600000000000000000000000000000000000000000000000000000000000000000000000000000000000000000000000000000+0000000000000+0000000000000+000000000000000000000000000000000000000000000000000000000000000000000000000000000000000000000000000000000000000000000+0000000000000+0000000000000+0000000000000+0000000000000+0000000000000+0000000000000+00248001480000000000                   000000000000000000000000                    000000000000000000000000                    000000000000000000000000                    000000000000000000000000                    000000000000000000000000 000000000000000000000000000000000    00000000999999999999999990321500000000000000000000000000000000000000000000002024022320250225
60419100053092702000000120010191000041525018002PRUEBA         0000191000041525018STD0000000000000000000000000PD0NN0120231231202312312023123100000000000000000000000020240301202312010000000000000000000000002024010100000000000000000000000001000+0000000000000+0000000000000+000000000000000000000000000000000000000000000000000000000000000000000000000000000000000000000000000000000000000000000+0000000001000+0000000000000+0000000000000+0000000001000+0000000000000+0000000100000+002480014800000000000005309270200000020202312312026013100000000T                   000000000000000000000000                    000000000000000000000000                    000000000000000000000000                    000000000000000000000000 000000000000000000000000000000000    00000000000000000000000000019100000000000000000000000000000000000000000000000000000000000000
60419100053092702000000230010191000009678955002EDUARDO GUERRA 0000191000009678955STD0000000000000000000000000PD0NN0820240209202402162024021600000000000000000000000020240301202402050000000000000000000000002024081419850328202902280000000018000+0000000000000+0000000000000+000000000000000000000000000000000000000000000000000000000000000000000000000000000000000000000000000000000000000000000+0000000018000+0000000000000+0000000000000+0000000000000+0000000000000+0000000000000+000020000100000032150005309270200000335202402092029022800000000T                   000000000000000000000000                    000000000000000000000000                    000000000000000000000000                    000000000000000000000000 000000000000000000000000000000000    00000000SSS000000000000000321500000000000000000000000000000000000000000000002024021620250216
60419100053092702000000240010191000009678956002MARCEL LUNA    0000191000009678956STD0000000000000000000000000PD0NN1920240209202402102024021000000000000000000000000020240301202402190000000000000000000000002024021119830330202902280000000030000+0000000000000+0000000000000+000000000000000000000000000000000000000000000000000000000000000000000000000000000000000000000000000000000000000000000+0000000030000+0000000000000+0000000000000+0000000000000+0000000000000+0000000000000+000020000100000032150005309270200000343202402092029022800000000T                   000000000000000000000000                    000000000000000000000000                    000000000000000000000000                    000000000000000000000000 000000000000000000000000000000000    00000000SSS000000000000000321500000000000000000000000000000000000000000000002024021120250211
60419100053092702000000290010191000009478480002JUAN TELLO     0000191000009478480STD0000000000000000000000000PD0RR0920240210202402142024021400000000000000000000000020240213202402050000000000000000000000002024021519850328202902280000000020000+0000000000000+0000000000000+000000000000000000000000000000000000000000000000000000000000000000000000000000000000000000000000000000000000000000000+0000000020000+0000000000000+0000000000000+0000000000000+0000000000000+0000000000000+002480014800000032150005309270200000392202402102029022800000000T                   000000000000000000000000                    000000000000000000000000                    000000000000000000000000                    000000000000000000000000 000000000000000000000000000000000    00000000999999999999999990321500000000000000000000000000000000000000000000002024021620241218
60419100053092702000000300010191000009478481002MARIO WONG     0000191000009478481STD0000000000000000000000000PN0RR0020240210202402102024021000000000000000000000000000000000000000000000000000000000000000002024021019830330202902280000000000000+0000000000000+0000000000000+000000000000000000000000000000000000000000000000000000000000000000000000000000000000000000000000000000000000000000000+0000000000000+0000000000000+0000000000000+0000000000000+0000000000000+0000000000000+002480014800000032150005309270200000400202402102029022800000000T                   000000000000000000000000                    000000000000000000000000                    000000000000000000000000                    000000000000000000000000 000000000000000000000000000000000    00000000999999999999999990321500000000000000000000000000000000000000000000000000000000000000
60419100053092702000003360010191000009478493002PABLO PAZ      0000191000009478493STD0000000000000000000000000PN0RR0020240212202402122024021200000000000000000000000000000000000000000000000000000000000000002024021219850328202902280000000000000+0000000000000+0000000000000+000000000000000000000000000000000000000000000000000000000000000000000000000000000000000000000000000000000000000000000+0000000000000+0000000000000+0000000000000+0000000000000+0000000000000+0000000000000+002480014800000012890005309270200002984202402122029022800000000T                   000000000000000000000000                    000000000000000000000000                    000000000000000000000000                    000000000000000000000000 000000000000000000000000000000000    00000000999999999999999990321500000000000000000000000000000000000000000000000000000000000000
60419100053092702000003370010191000009478505002SAUL TORERO    0000191000009478505STD0000000000000000000000000PN0RR0020240212202402122024021200000000000000000000000000000000000000000000000000000000000000002024021219850328202902280000000000000+0000000000000+0000000000000+000000000000000000000000000000000000000000000000000000000000000000000000000000000000000000000000000000000000000000000+0000000000000+0000000000000+0000000000000+0000000000000+0000000000000+0000000000000+002480014800000012890005309270200002992202402122029022800000000T                   000000000000000000000000                    000000000000000000000000                    000000000000000000000000                    000000000000000000000000 000000000000000000000000000000000    00000000999999999999999990321500000000000000000000000000000000000000000000000000000000000000
60419100053092702000003380010191000009478506002MARLON WINTER  0000191000009478506STD0000000000000000000000000PN0RR0020240212202402122024021200000000000000000000000000000000000000000000000000000000000000002024021219830330202902280000000000000+0000000000000+0000000000000+000000000000000000000000000000000000000000000000000000000000000000000000000000000000000000000000000000000000000000000+0000000000000+0000000000000+0000000000000+0000000000000+0000000000000+0000000000000+002480014800000012890005309270200003008202402122029022800000000T                   000000000000000000000000                    000000000000000000000000                    000000000000000000000000                    000000000000000000000000 000000000000000000000000000000000    00000000999999999999999990321500000000000000000000000000000000000000000000000000000000000000
60419100053092702000003390010191000009478518002JUAN PILLA     0000191000009478518STD0000000000000000000000000PN0RR0020240212202402122024021200000000000000000000000000000000000000000000000000000000000000002024021219850328202902280000000000000+0000000000000+0000000000000+000000000000000000000000000000000000000000000000000000000000000000000000000000000000000000000000000000000000000000000+0000000000000+0000000000000+0000000000000+0000000000000+0000000000000+0000000000000+002480014800000012890005309270200003016202402122029022800000000T                   000000000000000000000000                    000000000000000000000000                    000000000000000000000000                    000000000000000000000000 000000000000000000000000000000000    00000000999999999999999990321500000000000000000000000000000000000000000000000000000000000000
60419100053092702000003400010191000009478519002MARGARITO WONG 0000191000009478519STD0000000000000000000000000PN0RR0020240212202402122024021200000000000000000000000000000000000000000000000000000000000000002024021219830330202902280000000000000+0000000000000+0000000000000+000000000000000000000000000000000000000000000000000000000000000000000000000000000000000000000000000000000000000000000+0000000000000+0000000000000+0000000000000+0000000000000+0000000000000+0000000000000+002480014800000012890005309270200003024202402122029022800000000T                   000000000000000000000000                    000000000000000000000000                    000000000000000000000000                    000000000000000000000000 000000000000000000000000000000000    00000000999999999999999990321500000000000000000000000000000000000000000000000000000000000000
60419100053092702000003410010191000009478531002LUCAS PAREDEZ  0000191000009478531STD0000000000000000000000000PN0RR0020240212202402122024021200000000000000000000000000000000000000000000000000000000000000002024021219850328202902280000000000000+0000000000000+0000000000000+000000000000000000000000000000000000000000000000000000000000000000000000000000000000000000000000000000000000000000000+0000000000000+0000000000000+0000000000000+0000000000000+0000000000000+0000000000000+002480014800000012890005309270200003032202402122029022800000000T                   000000000000000000000000                    000000000000000000000000                    000000000000000000000000                    000000000000000000000000 000000000000000000000000000000000    00000000999999999999999990321500000000000000000000000000000000000000000000000000000000000000
60419100053092702000003420010191000009478532002ROCIO VIZCARRA 0000191000009478532STD0000000000000000000000000PN0RR0020240212202402122024021200000000000000000000000000000000000000000000000000000000000000002024021219830330202902280000000000000+0000000000000+0000000000000+000000000000000000000000000000000000000000000000000000000000000000000000000000000000000000000000000000000000000000000+0000000000000+0000000000000+0000000000000+0000000000000+0000000000000+0000000000000+002480014800000012890005309270200003040202402122029022800000000T                   000000000000000000000000                    000000000000000000000000                    000000000000000000000000                    000000000000000000000000 000000000000000000000000000000000    00000000999999999999999990321500000000000000000000000000000000000000000000000000000000000000
60419100053092702000003440010191000009478543002MICHAEL TORINO 0000191000009478543STD0000000000000000000000000PN0RR0020240212202402122024021200000000000000000000000000000000000000000000000000000000000000002024021219850328202902280000000000000+0000000000000+0000000000000+000000000000000000000000000000000000000000000000000000000000000000000000000000000000000000000000000000000000000000000+0000000000000+0000000000000+0000000000000+0000000000000+0000000000000+0000000000000+002480014800000012890005309270200003057202402122029022800000000T                   000000000000000000000000                    000000000000000000000000                    000000000000000000000000                    000000000000000000000000 000000000000000000000000000000000    00000000999999999999999990321500000000000000000000000000000000000000000000000000000000000000
60419100053092702000003450010191000009478544002GRISELDA VACA  0000191000009478544STD0000000000000000000000000PN0RR0020240212202402122024021200000000000000000000000000000000000000000000000000000000000000002024021219830330202902280000000000000+0000000000000+0000000000000+000000000000000000000000000000000000000000000000000000000000000000000000000000000000000000000000000000000000000000000+0000000000000+0000000000000+0000000000000+0000000000000+0000000000000+0000000000000+002480014800000012890005309270200003065202402122029022800000000T                   000000000000000000000000                    000000000000000000000000                    000000000000000000000000                    000000000000000000000000 000000000000000000000000000000000    00000000999999999999999990321500000000000000000000000000000000000000000000000000000000000000
60419100053092702000003460010191000009478555002LUCAS CHAVEZ   0000191000009478555STD0000000000000000000000000PN0RR0020240212202402122024021200000000000000000000000000000000000000000000000000000000000000002024021219850328202902280000000000000+0000000000000+0000000000000+000000000000000000000000000000000000000000000000000000000000000000000000000000000000000000000000000000000000000000000+0000000000000+0000000000000+0000000000000+0000000000000+0000000000000+0000000000000+002480014800000012890005309270200003073202402122029022800000000T                   000000000000000000000000                    000000000000000000000000                    000000000000000000000000                    000000000000000000000000 000000000000000000000000000000000    00000000999999999999999990321500000000000000000000000000000000000000000000000000000000000000
60419100053092702000003470010191000009478556002VANESSA VARGAS 0000191000009478556STD0000000000000000000000000PN0RR0020240212202402122024021200000000000000000000000000000000000000000000000000000000000000002024021219830330202902280000000000000+0000000000000+0000000000000+000000000000000000000000000000000000000000000000000000000000000000000000000000000000000000000000000000000000000000000+0000000000000+0000000000000+0000000000000+0000000000000+0000000000000+0000000000000+002480014800000012890005309270200003081202402122029022800000000T                   000000000000000000000000                    000000000000000000000000                    000000000000000000000000                    000000000000000000000000 000000000000000000000000000000000    00000000999999999999999990321500000000000000000000000000000000000000000000000000000000000000
60419100053092702000003480010191000009478567002MIRKO TALAVERA 0000191000009478567STD0000000000000000000000000PN0RR0020240212202402122024021200000000000000000000000000000000000000000000000000000000000000002024021219850328202902280000000000000+0000000000000+0000000000000+000000000000000000000000000000000000000000000000000000000000000000000000000000000000000000000000000000000000000000000+0000000000000+0000000000000+0000000000000+0000000000000+0000000000000+0000000000000+002480014800000012890005309270200003099202402122029022800000000T                   000000000000000000000000                    000000000000000000000000                    000000000000000000000000                    000000000000000000000000 000000000000000000000000000000000    00000000999999999999999990321500000000000000000000000000000000000000000000000000000000000000
60419100053092702000003490010191000009478568002VERENISE ROSALE0000191000009478568STD0000000000000000000000000PN0RR0020240212202402122024021200000000000000000000000000000000000000000000000000000000000000002024021219830330202902280000000000000+0000000000000+0000000000000+000000000000000000000000000000000000000000000000000000000000000000000000000000000000000000000000000000000000000000000+0000000000000+0000000000000+0000000000000+0000000000000+0000000000000+0000000000000+002480014800000012890005309270200003107202402122029022800000000T                   000000000000000000000000                    000000000000000000000000                    000000000000000000000000                    000000000000000000000000 000000000000000000000000000000000    00000000999999999999999990321500000000000000000000000000000000000000000000000000000000000000
60419100053092702000003510010191000009478579002KENNETH WONG   0000191000009478579STD0000000000000000000000000PN0RR0020240212202402122024021200000000000000000000000000000000000000000000000000000000000000002024021219850328202902280000000000000+0000000000000+0000000000000+000000000000000000000000000000000000000000000000000000000000000000000000000000000000000000000000000000000000000000000+0000000000000+0000000000000+0000000000000+0000000000000+0000000000000+0000000000000+002480014800000012890005309270200003115202402122029022800000000T                   000000000000000000000000                    000000000000000000000000                    000000000000000000000000                    000000000000000000000000 000000000000000000000000000000000    00000000999999999999999990321500000000000000000000000000000000000000000000000000000000000000
60419100053092702000003520010191000009478580002ROMULO VARILLAS0000191000009478580STD0000000000000000000000000PN0RR0020240212202402122024021200000000000000000000000000000000000000000000000000000000000000002024021219830330202902280000000000000+0000000000000+0000000000000+000000000000000000000000000000000000000000000000000000000000000000000000000000000000000000000000000000000000000000000+0000000000000+0000000000000+0000000000000+0000000000000+0000000000000+0000000000000+002480014800000012890005309270200003123202402122029022800000000T                   000000000000000000000000                    000000000000000000000000                    000000000000000000000000                    000000000000000000000000 000000000000000000000000000000000    00000000999999999999999990321500000000000000000000000000000000000000000000000000000000000000
60419100053092702000003530010191000009478591002DINO LEE       0000191000009478591STD0000000000000000000000000PN0RR0020240212202402122024021200000000000000000000000000000000000000000000000000000000000000002024021219850328202902280000000000000+0000000000000+0000000000000+000000000000000000000000000000000000000000000000000000000000000000000000000000000000000000000000000000000000000000000+0000000000000+0000000000000+0000000000000+0000000000000+0000000000000+0000000000000+002480014800000012890005309270200003131202402122029022800000000T                   000000000000000000000000                    000000000000000000000000                    000000000000000000000000                    000000000000000000000000 000000000000000000000000000000000    00000000999999999999999990321500000000000000000000000000000000000000000000000000000000000000
60419100053092702000003540010191000009478592002MARCIA KOO     0000191000009478592STD0000000000000000000000000PN0RR0020240212202402122024021200000000000000000000000000000000000000000000000000000000000000002024021219830330202902280000000000000+0000000000000+0000000000000+000000000000000000000000000000000000000000000000000000000000000000000000000000000000000000000000000000000000000000000+0000000000000+0000000000000+0000000000000+0000000000000+0000000000000+0000000000000+002480014800000012890005309270200003149202402122029022800000000T                   000000000000000000000000                    000000000000000000000000                    000000000000000000000000                    000000000000000000000000 000000000000000000000000000000000    00000000999999999999999990321500000000000000000000000000000000000000000000000000000000000000
60419100053092702000003860010191000009478605002PABLO PAZ      0000191000009478605STD0000000000000000000000000PN0RR0020240213202402132024021300000000000000000000000000000000000000000000000000000000000000002024021319850328202902280000000000000+0000000000000+0000000000000+000000000000000000000000000000000000000000000000000000000000000000000000000000000000000000000000000000000000000000000+0000000000000+0000000000000+0000000000000+0000000000000+0000000000000+0000000000000+002480014800000012890005309270200003438202402132029022800000000T                   000000000000000000000000                    000000000000000000000000                    000000000000000000000000                    000000000000000000000000 000000000000000000000000000000000    00000000999999999999999990321500000000000000000000000000000000000000000000000000000000000000
60419100053092702000003870010191000009478617002SAUL SOTERO    0000191000009478617STD0000000000000000000000000PN0RR0020240213202402132024021300000000000000000000000000000000000000000000000000000000000000002024021319850328202902280000000000000+0000000000000+0000000000000+000000000000000000000000000000000000000000000000000000000000000000000000000000000000000000000000000000000000000000000+0000000000000+0000000000000+0000000000000+0000000000000+0000000000000+0000000000000+002480014800000012890005309270200003446202402132029022800000000T                   000000000000000000000000                    000000000000000000000000                    000000000000000000000000                    000000000000000000000000 000000000000000000000000000000000    00000000999999999999999990321500000000000000000000000000000000000000000000000000000000000000
60419100053092702000003880010191000009478618002MARLON STUAR   0000191000009478618STD0000000000000000000000000PN0RR0020240213202402132024021300000000000000000000000000000000000000000000000000000000000000002024021319830330202902280000000000000+0000000000000+0000000000000+000000000000000000000000000000000000000000000000000000000000000000000000000000000000000000000000000000000000000000000+0000000000000+0000000000000+0000000000000+0000000000000+0000000000000+0000000000000+002480014800000012890005309270200003453202402132029022800000000T                   000000000000000000000000                    000000000000000000000000                    000000000000000000000000                    000000000000000000000000 000000000000000000000000000000000    00000000999999999999999990321500000000000000000000000000000000000000000000000000000000000000
60419100053092702000003890010191000009478630002JUAN PINO      0000191000009478630STD0000000000000000000000000PN0RR0020240213202402132024021300000000000000000000000000000000000000000000000000000000000000002024021319850328202902280000000000000+0000000000000+0000000000000+000000000000000000000000000000000000000000000000000000000000000000000000000000000000000000000000000000000000000000000+0000000000000+0000000000000+0000000000000+0000000000000+0000000000000+0000000000000+002480014800000012890005309270200003461202402132029022800000000T                   000000000000000000000000                    000000000000000000000000                    000000000000000000000000                    000000000000000000000000 000000000000000000000000000000000    00000000999999999999999990321500000000000000000000000000000000000000000000000000000000000000
60419100053092702000003900010191000009478631002MARGARITO SERVA0000191000009478631STD0000000000000000000000000PN0RR0020240213202402132024021300000000000000000000000000000000000000000000000000000000000000002024021319830330202902280000000000000+0000000000000+0000000000000+000000000000000000000000000000000000000000000000000000000000000000000000000000000000000000000000000000000000000000000+0000000000000+0000000000000+0000000000000+0000000000000+0000000000000+0000000000000+002480014800000012890005309270200003479202402132029022800000000T                   000000000000000000000000                    000000000000000000000000                    000000000000000000000000                    000000000000000000000000 000000000000000000000000000000000    00000000999999999999999990321500000000000000000000000000000000000000000000000000000000000000
60419100053092702000003910010191000009478643002LUCAS DANTE    0000191000009478643STD0000000000000000000000000PN0RR0020240213202402132024021300000000000000000000000000000000000000000000000000000000000000002024021319850328202902280000000000000+0000000000000+0000000000000+000000000000000000000000000000000000000000000000000000000000000000000000000000000000000000000000000000000000000000000+0000000000000+0000000000000+0000000000000+0000000000000+0000000000000+0000000000000+002480014800000012890005309270200003487202402132029022800000000T                   000000000000000000000000                    000000000000000000000000                    000000000000000000000000                    000000000000000000000000 000000000000000000000000000000000    00000000999999999999999990321500000000000000000000000000000000000000000000000000000000000000
60419100053092702000003930010191000009478644002ROCIO VIZO     0000191000009478644STD0000000000000000000000000PN0RR0020240213202402132024021300000000000000000000000000000000000000000000000000000000000000002024021319830330202902280000000000000+0000000000000+0000000000000+000000000000000000000000000000000000000000000000000000000000000000000000000000000000000000000000000000000000000000000+0000000000000+0000000000000+0000000000000+0000000000000+0000000000000+0000000000000+002480014800000012890005309270200003495202402132029022800000000T                   000000000000000000000000                    000000000000000000000000                    000000000000000000000000                    000000000000000000000000 000000000000000000000000000000000    00000000999999999999999990321500000000000000000000000000000000000000000000000000000000000000
60419100053092702000003980010191000009478426002JUAN TELLO     0000191000009478426STD0000000000000000000000000PN0RR2820240218202402182024021800000000000000000000000000000000000000000000000000000000000000002024022819850328202902280000000010000+0000000000000+0000000000000+000000000000000000000000000000000000000000000000000000000000000000000000000000000000000000000000000000000000000000000+0000000000000+0000000000000+0000000000000+0000000000000+0000000000000+0000000000000+002480014800000012890005309270200003529202402182029022800000000T                   000000000000000000000000                    000000000000000000000000                    000000000000000000000000                    000000000000000000000000 000000000000000000000000000000000    00000000999999999999999990321500000000000000000000000000000000000000000000002024022820250221
60419100053092702000003990010191000009478427002MARIO WONG     0000191000009478427STD0000000000000000000000000PN0RR1720240218202402182024021800000000000000000000000000000000000000000000000000000000000000002024022819830330202902280000000030000+0000000000000+0000000000000+000000000000000000000000000000000000000000000000000000000000000000000000000000000000000000000000000000000000000000000+0000000000000+0000000000000+0000000000000+0000000000000+0000000000000+0000000000000+002480014800000012890005309270200003537202402182029022800000000T                   000000000000000000000000                    000000000000000000000000                    000000000000000000000000                    000000000000000000000000 000000000000000000000000000000000    00000000999999999999999990321500000000000000000000000000000000000000000000002024022820240310
60419100053092703000000110010191000041525018003PRUEBA         0000191000041525018STD0000000000000000000000000 D0RR1720231231202402282024022800000000000000000000000020240227202312010000000000000000000000002024022800000000000000000000000015000+0000000000000+0000000000000+000000000000000000000000000000000000000000000000000000000000000000000000000000000000000000000000000000000000000000000+0000000000000+0000000000000+0000000000000+0000000000000+0000000000000+0000000679500+002480014800000000000005309270300000029202312312026013100000000T                   000000000000000000000000                    000000000000000000000000                    000000000000000000000000                    000000000000000000000000 000000000000000000000000000000000    00000000000000000000000000019100000000000000000000000000000000000000000000002024022820240310
60419100053092703000000230010191000009678957003VIOLETA VASQUEZ0000191000009678957STD0000000000000000000000000PD0RR0820240209202402142024021400000000000000000000000020240213202402050000000000000000000000002024021519830330202902280000000022000+0000000000000+0000000000000+000000000000000000000000000000000000000000000000000000000000000000000000000000000000000000000000000000000000000000000+0000000020000+0000000000000+0000000000000+0000000000000+0000000000000+0000000000000+000020000100000032150005309270300000334202402092029022800000000T                   000000000000000000000000                    000000000000000000000000                    000000000000000000000000                    000000000000000000000000 000000000000000000000000000000000    00000000SSS000000000000000321500000000000000000000000000000000000000000000002024021620240216
60419100053092703000000240010191000009678958003LUIS MIRANDA   0000191000009678958STD0000000000000000000000000PD0NN0420240209202402102024021000000000000000000000000020240301202402040000000000000000000000002024081419830330202902280000000040000+0000000000000+0000000000000+000000000000000000000000000000000000000000000000000000000000000000000000000000000000000000000000000000000000000000000+0000000040000+0000000000000+0000000000000+0000000040000+0000000000000+0000004000000+000020000100000032150005309270300000342202402092029022800000000T                   000000000000000000000000                    000000000000000000000000                    000000000000000000000000                    000000000000000000000000 000000000000000000000000000000000    00000000SSS000000000000000321500000000000000000000000000000000000000000000002024021220250212
60419100053092703000000300010191000009478482003VANESSA VARGAS 0000191000009478482STD0000000000000000000000000PD0RR1020240210202402142024021400000000000000000000000020240213202402050000000000000000000000002024021519830330202902280000000015000+0000000000000+0000000000000+000000000000000000000000000000000000000000000000000000000000000000000000000000000000000000000000000000000000000000000+0000000015000+0000000000000+0000000000000+0000000000000+0000000000000+0000000000000+002480014800000032150005309270300000391202402102029022800000000T                   000000000000000000000000                    000000000000000000000000                    000000000000000000000000                    000000000000000000000000 000000000000000000000000000000000    00000000999999999999999990321500000000000000000000000000000000000000000000002024021620241218
60419100053092703000000310010191000009478483003JESUS MESA     0000191000009478483STD0000000000000000000000000PN0RR1720240210202402102024021000000000000000000000000000000000000000000000000000000000000000002024022819830330202902280000000040000+0000000000000+0000000000000+000000000000000000000000000000000000000000000000000000000000000000000000000000000000000000000000000000000000000000000+0000000000000+0000000000000+0000000000000+0000000000000+0000000000000+0000000000000+002480014800000032150005309270300000409202402102029022800000000T                   000000000000000000000000                    000000000000000000000000                    000000000000000000000000                    000000000000000000000000 000000000000000000000000000000000    00000000999999999999999990321500000000000000000000000000000000000000000000002024022820240310
60419100053092703000003540010191000009478495003VIVIANA BARTRA 0000191000009478495STD0000000000000000000000000PN0RR1720240212202402122024021200000000000000000000000000000000000000000000000000000000000000002024022819830330202902280000000045000+0000000000000+0000000000000+000000000000000000000000000000000000000000000000000000000000000000000000000000000000000000000000000000000000000000000+0000000000000+0000000000000+0000000000000+0000000000000+0000000000000+0000000000000+002480014800000012890005309270300003130202402122029022800000000T                   000000000000000000000000                    000000000000000000000000                    000000000000000000000000                    000000000000000000000000 000000000000000000000000000000000    00000000999999999999999990321500000000000000000000000000000000000000000000002024022820240310
60419100053092703000003550010191000009478496003JESUS MENDEZ   0000191000009478496STD0000000000000000000000000PN0RR1720240212202402122024021200000000000000000000000000000000000000000000000000000000000000002024022819830330202902280000000050000+0000000000000+0000000000000+000000000000000000000000000000000000000000000000000000000000000000000000000000000000000000000000000000000000000000000+0000000000000+0000000000000+0000000000000+0000000000000+0000000000000+0000000000000+002480014800000012890005309270300003148202402122029022800000000T                   000000000000000000000000                    000000000000000000000000                    000000000000000000000000                    000000000000000000000000 000000000000000000000000000000000    00000000999999999999999990321500000000000000000000000000000000000000000000002024022820240310
60419100053092703000003560010191000009478507003MACARENA VERGAR0000191000009478507STD0000000000000000000000000PN0RR1720240212202402122024021200000000000000000000000000000000000000000000000000000000000000002024022819830330202902280000000055000+0000000000000+0000000000000+000000000000000000000000000000000000000000000000000000000000000000000000000000000000000000000000000000000000000000000+0000000000000+0000000000000+0000000000000+0000000000000+0000000000000+0000000000000+002480014800000012890005309270300003155202402122029022800000000T                   000000000000000000000000                    000000000000000000000000                    000000000000000000000000                    000000000000000000000000 000000000000000000000000000000000    00000000999999999999999990321500000000000000000000000000000000000000000000002024022820240310
60419100053092703000003570010191000009478508003JUDA MESONES   0000191000009478508STD0000000000000000000000000PN0RR1720240212202402122024021200000000000000000000000000000000000000000000000000000000000000002024022819830330202902280000000060000+0000000000000+0000000000000+000000000000000000000000000000000000000000000000000000000000000000000000000000000000000000000000000000000000000000000+0000000000000+0000000000000+0000000000000+0000000000000+0000000000000+0000000000000+002480014800000012890005309270300003163202402122029022800000000T                   000000000000000000000000                    000000000000000000000000                    000000000000000000000000                    000000000000000000000000 000000000000000000000000000000000    00000000999999999999999990321500000000000000000000000000000000000000000000002024022820240310
60419100053092703000003580010191000009478520003DINA VARGAS    0000191000009478520STD0000000000000000000000000PN0RR1720240212202402122024021200000000000000000000000000000000000000000000000000000000000000002024022819830330202902280000000065000+0000000000000+0000000000000+000000000000000000000000000000000000000000000000000000000000000000000000000000000000000000000000000000000000000000000+0000000000000+0000000000000+0000000000000+0000000000000+0000000000000+0000000000000+002480014800000012890005309270300003171202402122029022800000000T                   000000000000000000000000                    000000000000000000000000                    000000000000000000000000                    000000000000000000000000 000000000000000000000000000000000    00000000999999999999999990321500000000000000000000000000000000000000000000002024022820240310
60419100053092703000003600010191000009478521003JEREMIAS MESA  0000191000009478521STD0000000000000000000000000PN0RR1720240212202402122024021200000000000000000000000000000000000000000000000000000000000000002024022819830330202902280000000070000+0000000000000+0000000000000+000000000000000000000000000000000000000000000000000000000000000000000000000000000000000000000000000000000000000000000+0000000000000+0000000000000+0000000000000+0000000000000+0000000000000+0000000000000+002480014800000012890005309270300003189202402122029022800000000T                   000000000000000000000000                    000000000000000000000000                    000000000000000000000000                    000000000000000000000000 000000000000000000000000000000000    00000000999999999999999990321500000000000000000000000000000000000000000000002024022820240310
60419100053092703000003610010191000009478533003JULIAN MATTOS  0000191000009478533STD0000000000000000000000000PN0RR1720240212202402122024021200000000000000000000000000000000000000000000000000000000000000002024022819830330202902280000000075000+0000000000000+0000000000000+000000000000000000000000000000000000000000000000000000000000000000000000000000000000000000000000000000000000000000000+0000000000000+0000000000000+0000000000000+0000000000000+0000000000000+0000000000000+002480014800000012890005309270300003197202402122029022800000000T                   000000000000000000000000                    000000000000000000000000                    000000000000000000000000                    000000000000000000000000 000000000000000000000000000000000    00000000999999999999999990321500000000000000000000000000000000000000000000002024022820240310
60419100053092703000003620010191000009478534003WILMAR PANTOJA 0000191000009478534STD0000000000000000000000000PN0RR1720240212202402122024021200000000000000000000000000000000000000000000000000000000000000002024022819830330202902280000000080000+0000000000000+0000000000000+000000000000000000000000000000000000000000000000000000000000000000000000000000000000000000000000000000000000000000000+0000000000000+0000000000000+0000000000000+0000000000000+0000000000000+0000000000000+002480014800000012890005309270300003205202402122029022800000000T                   000000000000000000000000                    000000000000000000000000                    000000000000000000000000                    000000000000000000000000 000000000000000000000000000000000    00000000999999999999999990321500000000000000000000000000000000000000000000002024022820240310
60419100053092703000003630010191000009478545003CESAR MESARINE 0000191000009478545STD0000000000000000000000000PN0RR1720240212202402122024021200000000000000000000000000000000000000000000000000000000000000002024022819830330202902280000000085000+0000000000000+0000000000000+000000000000000000000000000000000000000000000000000000000000000000000000000000000000000000000000000000000000000000000+0000000000000+0000000000000+0000000000000+0000000000000+0000000000000+0000000000000+002480014800000012890005309270300003213202402122029022800000000T                   000000000000000000000000                    000000000000000000000000                    000000000000000000000000                    000000000000000000000000 000000000000000000000000000000000    00000000999999999999999990321500000000000000000000000000000000000000000000002024022820240310
60419100053092703000003640010191000009478546003JORGE PANTOJA  0000191000009478546STD0000000000000000000000000PN0RR1720240212202402122024021200000000000000000000000000000000000000000000000000000000000000002024022819830330202902280000000090000+0000000000000+0000000000000+000000000000000000000000000000000000000000000000000000000000000000000000000000000000000000000000000000000000000000000+0000000000000+0000000000000+0000000000000+0000000000000+0000000000000+0000000000000+002480014800000012890005309270300003221202402122029022800000000T                   000000000000000000000000                    000000000000000000000000                    000000000000000000000000                    000000000000000000000000 000000000000000000000000000000000    00000000999999999999999990321500000000000000000000000000000000000000000000002024022820240310
60419100053092703000003650010191000009478557003JESUS MESA     0000191000009478557STD0000000000000000000000000PN0RR1720240212202402122024021200000000000000000000000000000000000000000000000000000000000000002024022819830330202902280000000095000+0000000000000+0000000000000+000000000000000000000000000000000000000000000000000000000000000000000000000000000000000000000000000000000000000000000+0000000000000+0000000000000+0000000000000+0000000000000+0000000000000+0000000000000+002480014800000012890005309270300003239202402122029022800000000T                   000000000000000000000000                    000000000000000000000000                    000000000000000000000000                    000000000000000000000000 000000000000000000000000000000000    00000000999999999999999990321500000000000000000000000000000000000000000000002024022820240310
60419100053092703000003660010191000009478558003JULIO PANTOJA  0000191000009478558STD0000000000000000000000000PN0RR1720240212202402122024021200000000000000000000000000000000000000000000000000000000000000002024022819830330202902280000000005000+0000000000000+0000000000000+000000000000000000000000000000000000000000000000000000000000000000000000000000000000000000000000000000000000000000000+0000000000000+0000000000000+0000000000000+0000000000000+0000000000000+0000000000000+002480014800000012890005309270300003247202402122029022800000000T                   000000000000000000000000                    000000000000000000000000                    000000000000000000000000                    000000000000000000000000 000000000000000000000000000000000    00000000999999999999999990321500000000000000000000000000000000000000000000002024022820240310
60419100053092703000003680010191000009478569003MARCELO SIFUENT0000191000009478569STD0000000000000000000000000PN0RR1720240212202402122024021200000000000000000000000000000000000000000000000000000000000000002024022819830330202902280000000005500+0000000000000+0000000000000+000000000000000000000000000000000000000000000000000000000000000000000000000000000000000000000000000000000000000000000+0000000000000+0000000000000+0000000000000+0000000000000+0000000000000+0000000000000+002480014800000012890005309270300003254202402122029022800000000T                   000000000000000000000000                    000000000000000000000000                    000000000000000000000000                    000000000000000000000000 000000000000000000000000000000000    00000000999999999999999990321500000000000000000000000000000000000000000000002024022820240310
60419100053092703000003690010191000009478570003DUILIO PAZ     0000191000009478570STD0000000000000000000000000PN0RR1720240212202402122024021200000000000000000000000000000000000000000000000000000000000000002024022819830330202902280000000006000+0000000000000+0000000000000+000000000000000000000000000000000000000000000000000000000000000000000000000000000000000000000000000000000000000000000+0000000000000+0000000000000+0000000000000+0000000000000+0000000000000+0000000000000+002480014800000012890005309270300003262202402122029022800000000T                   000000000000000000000000                    000000000000000000000000                    000000000000000000000000                    000000000000000000000000 000000000000000000000000000000000    00000000999999999999999990321500000000000000000000000000000000000000000000002024022820240310
60419100053092703000003700010191000009478581003TOMAS DESSA    0000191000009478581STD0000000000000000000000000PN0RR1720240212202402122024021200000000000000000000000000000000000000000000000000000000000000002024022819830330202902280000000006500+0000000000000+0000000000000+000000000000000000000000000000000000000000000000000000000000000000000000000000000000000000000000000000000000000000000+0000000000000+0000000000000+0000000000000+0000000000000+0000000000000+0000000000000+002480014800000012890005309270300003270202402122029022800000000T                   000000000000000000000000                    000000000000000000000000                    000000000000000000000000                    000000000000000000000000 000000000000000000000000000000000    00000000999999999999999990321500000000000000000000000000000000000000000000002024022820240310
60419100053092703000003710010191000009478582003JULIO PINO     0000191000009478582STD0000000000000000000000000PN0RR1720240212202402122024021200000000000000000000000000000000000000000000000000000000000000002024022819830330202902280000000007000+0000000000000+0000000000000+000000000000000000000000000000000000000000000000000000000000000000000000000000000000000000000000000000000000000000000+0000000000000+0000000000000+0000000000000+0000000000000+0000000000000+0000000000000+002480014800000012890005309270300003288202402122029022800000000T                   000000000000000000000000                    000000000000000000000000                    000000000000000000000000                    000000000000000000000000 000000000000000000000000000000000    00000000999999999999999990321500000000000000000000000000000000000000000000002024022820240310
60419100053092703000003720010191000009478593003IVAN MESA      0000191000009478593STD0000000000000000000000000PN0RR1720240212202402122024021200000000000000000000000000000000000000000000000000000000000000002024022819830330202902280000000007500+0000000000000+0000000000000+000000000000000000000000000000000000000000000000000000000000000000000000000000000000000000000000000000000000000000000+0000000000000+0000000000000+0000000000000+0000000000000+0000000000000+0000000000000+002480014800000012890005309270300003296202402122029022800000000T                   000000000000000000000000                    000000000000000000000000                    000000000000000000000000                    000000000000000000000000 000000000000000000000000000000000    00000000999999999999999990321500000000000000000000000000000000000000000000002024022820240310
60419100053092703000003730010191000009478594003DARIO RIVERA   0000191000009478594STD0000000000000000000000000PN0RR1720240212202402122024021200000000000000000000000000000000000000000000000000000000000000002024022819830330202902280000000008000+0000000000000+0000000000000+000000000000000000000000000000000000000000000000000000000000000000000000000000000000000000000000000000000000000000000+0000000000000+0000000000000+0000000000000+0000000000000+0000000000000+0000000000000+002480014800000012890005309270300003304202402122029022800000000T                   000000000000000000000000                    000000000000000000000000                    000000000000000000000000                    000000000000000000000000 000000000000000000000000000000000    00000000999999999999999990321500000000000000000000000000000000000000000000002024022820240310
60419100053092703000004100010191000009478607003VIVIANA BACA   0000191000009478607STD0000000000000000000000000PN0RR2820240213202402132024021300000000000000000000000000000000000000000000000000000000000000002024090519830330202902280000000010000+0000000000000+0000000000000+000000000000000000000000000000000000000000000000000000000000000000000000000000000000000000000000000000000000000000000+0000000000000+0000000000000+0000000000000+0000000000000+0000000000000+0000000000000+002480014800000012890005309270300003635202402132029022800000000T                   000000000000000000000000                    000000000000000000000000                    000000000000000000000000                    000000000000000000000000 000000000000000000000000000000000    00000000999999999999999990321500000000000000000000000000000000000000000000002024022520250321
60419100053092703000004110010191000009478608003JESUS MENDO    0000191000009478608STD0000000000000000000000000PN0RR2820240213202402132024021300000000000000000000000000000000000000000000000000000000000000002024090519830330202902280000000030000+0000000000000+0000000000000+000000000000000000000000000000000000000000000000000000000000000000000000000000000000000000000000000000000000000000000+0000000000000+0000000000000+0000000000000+0000000000000+0000000000000+0000000000000+002480014800000012890005309270300003643202402132029022800000000T                   000000000000000000000000                    000000000000000000000000                    000000000000000000000000                    000000000000000000000000 000000000000000000000000000000000    00000000999999999999999990321500000000000000000000000000000000000000000000002024022520250321
60419100053092703000004120010191000009478619003MACARENA VEGA  0000191000009478619STD0000000000000000000000000PN0RR0020240213202402132024021300000000000000000000000000000000000000000000000000000000000000002024021319830330202902280000000000000+0000000000000+0000000000000+000000000000000000000000000000000000000000000000000000000000000000000000000000000000000000000000000000000000000000000+0000000000000+0000000000000+0000000000000+0000000000000+0000000000000+0000000000000+002480014800000012890005309270300003650202402132029022800000000T                   000000000000000000000000                    000000000000000000000000                    000000000000000000000000                    000000000000000000000000 000000000000000000000000000000000    00000000999999999999999990321500000000000000000000000000000000000000000000000000000000000000
60419100053092703000004130010191000009478620003JUDA MIU       0000191000009478620STD0000000000000000000000000PN0RR0020240213202402132024021300000000000000000000000000000000000000000000000000000000000000002024021319830330202902280000000000000+0000000000000+0000000000000+000000000000000000000000000000000000000000000000000000000000000000000000000000000000000000000000000000000000000000000+0000000000000+0000000000000+0000000000000+0000000000000+0000000000000+0000000000000+002480014800000012890005309270300003668202402132029022800000000T                   000000000000000000000000                    000000000000000000000000                    000000000000000000000000                    000000000000000000000000 000000000000000000000000000000000    00000000999999999999999990321500000000000000000000000000000000000000000000000000000000000000
60419100053092703000004140010191000009478632003DINA TELLO     0000191000009478632STD0000000000000000000000000PN0RR0020240213202402132024021300000000000000000000000000000000000000000000000000000000000000002024021319830330202902280000000000000+0000000000000+0000000000000+000000000000000000000000000000000000000000000000000000000000000000000000000000000000000000000000000000000000000000000+0000000000000+0000000000000+0000000000000+0000000000000+0000000000000+0000000000000+002480014800000012890005309270300003676202402132029022800000000T                   000000000000000000000000                    000000000000000000000000                    000000000000000000000000                    000000000000000000000000 000000000000000000000000000000000    00000000999999999999999990321500000000000000000000000000000000000000000000000000000000000000
