6041910005309270100006010                   001LUNA SEGURA    0000191000009678954STD000000                    D RR0020240226202402262024022600000000000000000000000000000000000000000000000000000000000000000000000000000000000000000000000000000+0000000000000+0000000000000+000000000000000000000000000000000000000000000000000000000000000000000000000000000000000000000000000000000000000000000+0000000000000+0000000000000+0000000000000+0000000000000+0000000000000+0000000000000+00248001480000000000                   000000000000000000000000                    000000000000000000000000                    000000000000000000000000                    000000000000000000000000                    000000000000000000000000 000000000000000000000000000000000    00000000999999999999999990321500000000000000000000000000000000000000000000002024022320250225
6041910005310130100007052                   011KATIA MORALES  0000191000009678960STD000000                    D RR4020240217202402172024021700000000000000000000000000000000000000000000000000000000000000000000000000000000000000000000000010000+0000000000000+0000000000000+000000000000000000000000000000000000000000000000000000000000000000000000000000000000000000000000000000000000000000000+0000000000000+0000000000000+0000000000000+0000000000000+0000000000000+0000000000000+00248001480000000000                   000000000000000000000000                    000000000000000000000000                    000000000000000000000000                    000000000000000000000000                    000000000000000000000000 000000000000000000000000000000000    00000000999999999999999990321500000000000000000000000000000000000000000000002024021820240220
6041910005310130300003448                   013PAUL LOPEZ     0000191000009678962STD000000                    D RR0020240220202402202024022000000000000000000000000000000000000000000000000000000000000000000000000000000000000000000000000000000+0000000000000+0000000000000+000000000000000000000000000000000000000000000000000000000000000000000000000000000000000000000000000000000000000000000+0000000000000+0000000000000+0000000000000+0000000000000+0000000000000+0000000000000+00248001480000000000                   000000000000000000000000                    000000000000000000000000                    000000000000000000000000                    000000000000000000000000                    000000000000000000000000 000000000000000000000000000000000    00000000999999999999999990321500000000000000000000000000000000000000000000002024021820240220
6041910005309270100006010                   001LUNA SEGURA    0000191000009678954STD000000                    D RR0020240226202402262024022600000000000000000000000000000000000000000000000000000000000000000000000000000000000000000000000000000+0000000000000+0000000000000+000000000000000000000000000000000000000000000000000000000000000000000000000000000000000000000000000000000000000000000+0000000000000+0000000000000+0000000000000+0000000000000+0000000000000+0000000000000+00248001480000000000                   000000000000000000000000                    000000000000000000000000                    000000000000000000000000                    000000000000000000000000                    000000000000000000000000 000000000000000000000000000000000    00000000999999999999999990321500000000000000000000000000000000000000000000002024022320250225
6041910005310130100007052                   011KATIA MORALES  0000191000009678960STD000000                    D RR4020240217202402172024021700000000000000000000000000000000000000000000000000000000000000000000000000000000000000000000000010000+0000000000000+0000000000000+000000000000000000000000000000000000000000000000000000000000000000000000000000000000000000000000000000000000000000000+0000000000000+0000000000000+0000000000000+0000000000000+0000000000000+0000000000000+00248001480000000000                   000000000000000000000000                    000000000000000000000000                    000000000000000000000000                    000000000000000000000000                    000000000000000000000000 000000000000000000000000000000000    00000000999999999999999990321500000000000000000000000000000000000000000000002024021820240220
6041910005310130300003448                   013PAUL LOPEZ     0000191000009678962STD000000                    D RR0020240220202402202024022000000000000000000000000000000000000000000000000000000000000000000000000000000000000000000000000000000+0000000000000+0000000000000+000000000000000000000000000000000000000000000000000000000000000000000000000000000000000000000000000000000000000000000+0000000000000+0000000000000+0000000000000+0000000000000+0000000000000+0000000000000+00248001480000000000                   000000000000000000000000                    000000000000000000000000                    000000000000000000000000                    000000000000000000000000                    000000000000000000000000 000000000000000000000000000000000    00000000999999999999999990321500000000000000000000000000000000000000000000002024021820240220
