202402230500050000000000002590000000000000000000000000000000000000000000000000000000000000000000000000000000000000000000000000000000000000000000000000000000000000000000000000000                       
19100100053092701000000210005309270100000013PPRUEBA                    2026013120240216N202312310000191000041525017PRUEBA                        PRUEBA                        08                       
19100100053092701000006580005309270100000024PALAN GARCES               2029022820240209R202402090000191000009678953GARCES                        ALAN                          0500000967895301         
19100100053092701000006660005309270100000025PLUNA SEGURA               2029022820240209N202402100000191000009678954SEGURA                        LUNA                          0400000967895401         
19100100053092701000009550005309270100000057PJOEL MERINO   TAVARA      2029022820240210R202402100000191000009478477MERINO   TAVARA               JOEL                          0900000947847701         
19100100053092701000009630005309270100000058PCINDY GALESSE  SANCHEZ    2029022820240210R202402100000191000009478478GALESSE  SANCHEZ              CINDY                         1000000947847801         
19100100053092701000009710005309270100000059PMARIA SUAREZ   RIOS       2029022820240210R202402100000191000009478479SUAREZ   RIOS                 MARIA                         0000000947847901         
19100100053092701000011100005309270100000075PABIGAIL ARANDA DE MONTALVO2029022820240211N202402130000191000032483106ARANDA DE MONTALVO            ABIGAIL                       1800003248310601         
19100100053092701000011280005309270100000076PWESLEY PERALTA DELGADO    2029022820240211R202402110000191000070548130PERALTA DELGADO               WESLEY                        0000007054813001         
19100100053092701000011360005309270100000077PPEDRO CHAFLOQUE RAMIREZ   2029022820240211R202408290000191000006009468CHAFLOQUE RAMIREZ             PEDRO PABLO                   0000000600946801         
19100100053092701000011440005309270100000078PDEMETRIO MANDUJANO NEYRA  2029022820240211R202408290000191000007601347MANDUJANO NEYRA               DEMETRIO HUGO                 0000000760134701         
19100100053092701000011510005309270100000079PEMILIANO SANCHEZ ESLAVA   2029022820240211R202408290000191000006578456SANCHEZ ESLAVA                EMILIANO                      0000000657845601         
19100100053092701000050610005309270100000543PJOSE MESANO   TIRADO      2029022820240212R202402120000191000009478490MESANO   TIRADO               JOSE                          0000000947849001         
19100100053092701000050790005309270100000544PCRISTEL GALLARDO SANCHEZ  2029022820240212R202402120000191000009478491GALLARDO SANCHEZ              CRISTEL                       0000000947849101         
19100100053092701000050870005309270100000545PMIRIAM SUAREZ   REPES     2029022820240212R202402120000191000009478492SUAREZ   REPES                MIRIAM                        0000000947849201         
19100100053092701000050950005309270100000546PJUAN MURGIA   TELLO       2029022820240212R202402120000191000009478502MURGIA   TELLO                JUAN                          0000000947850201         
19100100053092701000051030005309270100000547PCAROLA ZAPATA   PINTO     2029022820240212R202402120000191000009478503ZAPATA   PINTO                CAROLA                        0000000947850301         
19100100053092701000051110005309270100000548PJULIA SUCCA    REVOLLEDO  2029022820240212R202402120000191000009478504SUCCA    REVOLLEDO            JULIA                         0000000947850401         
19100100053092701000051290005309270100000549PMAX MERCURIO TAVARA       2029022820240212R202402120000191000009478515MERCURIO TAVARA               MAX                           0000000947851501         
19100100053092701000051370005309270100000550PURSULA GALLEGOS SANCHEZ   2029022820240212R202402120000191000009478516GALLEGOS SANCHEZ              URSULA                        0000000947851601         
19100100053092701000051450005309270100000551PMARIANA SANCHEZ  RAMOS    2029022820240212R202402120000191000009478517SANCHEZ  RAMOS                MARIANA                       0000000947851701         
19100100053092701000051520005309270100000552PGISELA GAMMA    SANCHEZ   2029022820240212R202402120000191000009478528GAMMA    SANCHEZ              GISELA                        0000000947852801         
19100100053092701000051600005309270100000553PMARIA PEREZ    RIOS       2029022820240212R202402120000191000009478529PEREZ    RIOS                 MARIA                         0000000947852901         
19100100053092701000051780005309270100000554PRAMON MESA     JIMENEZ    2029022820240212R202402120000191000009478530MESA     JIMENEZ              RAMON                         0000000947853001         
19100100053092701000051860005309270100000555PLUCIANA PEREZ    SAVIA    2029022820240212R202402120000191000009478540PEREZ    SAVIA                LUCIANA                       0000000947854001         
19100100053092701000051940005309270100000556PURSULA PERALTA  RIOS      2029022820240212R202402120000191000009478541PERALTA  RIOS                 URSULA                        0000000947854101         
19100100053092701000052020005309270100000557PMARCOS PERNO    TORO      2029022820240212R202402120000191000009478542PERNO    TORO                 MARCOS                        0000000947854201         
19100100053092701000052100005309270100000558PCARMELA GARCIA   VASQUEZ  2029022820240212R202402120000191000009478552GARCIA   VASQUEZ              CARMELA                       0000000947855201         
19100100053092701000052280005309270100000560PSTEFANY ROJAS    MAMANI   2029022820240212R202402120000191000009478553ROJAS    MAMANI               STEFANY                       0000000947855301         
19100100053092701000052360005309270100000561PELIAS DIAZ     GONZALEZ   2029022820240212N202402130000191000009478554DIAZ     GONZALEZ             ELIAS                         1800000947855401         
19100100053092701000052440005309270100000562PMARIA TARAZONA CASTILLO   2029022820240212R202402120000191000009478564TARAZONA CASTILLO             MARIA                         0000000947856401         
19100100053092701000052510005309270100000563PMARY CHAVEZ   RIOS        2029022820240212R202402120000191000009478565CHAVEZ   RIOS                 MARY                          0000000947856501         
19100100053092701000052690005309270100000564PJUAN TELLO    JIMENEZ     2029022820240212R202402120000191000009478566TELLO    JIMENEZ              JUAN                          0000000947856601         
19100100053092701000052770005309270100000565PCAROL QUISPE   PEREZ      2029022820240212R202402120000191000009478576QUISPE   PEREZ                CAROL                         0000000947857601         
19100100053092701000052850005309270100000566PHILDA TAPIA    RIOS       2029022820240212R202402120000191000009478577TAPIA    RIOS                 HILDA                         0000000947857701         
19100100053092701000052930005309270100000568PCESAR CARRILLO PAZ        2029022820240212R202402120000191000009478578CARRILLO PAZ                  CESAR                         0000000947857801         
19100100053092701000053010005309270100000569PVANIA JUAREZ   ROA        2029022820240212R202402120000191000009478589JUAREZ   ROA                  VANIA                         0000000947858901         
19100100053092701000053190005309270100000570PCHECHO IBARRA   JIMENEZ   2029022820240212R202402120000191000009478590IBARRA   JIMENEZ              CHECHO                        0000000947859001         
19100100053092701000058060005309270100000624PRAUL MERINO   PINZON      2029022820240213Q202402180000191000009478602MERINO   PINZON               RAUL                          1800000947860201         
19100100053092701000058140005309270100000626PCARLA GALENO   SANCHEZ    2029022820240213X202402180000191000009478603GALENO   SANCHEZ              CARLA                         1000000947860301         
19100100053092701000058220005309270100000627PMARIA SAENZ    ROJAS      2029022820240213E202402180000191000009478604SAENZ    ROJAS                MARIA                         1200000947860401         
19100100053092701000058300005309270100000628PPEDRO MASO     TELLO      2029022820240213X202402150000191000009478614MASO     TELLO                PEDRO                         0000000947861401         
19100100053092701000058480005309270100000629PCAROLA ZACAPA   PINO      2029022820240213Q202402150000191000009478615ZACAPA   PINO                 CAROLA                        0000000947861501         
19100100053092701000058550005309270100000630PJULIA SUMA     RAVELLO    2029022820240213R202402130000191000009478616SUMA     RAVELLO              JULIA                         2600000947861601         
19100100053092701000058630005309270100000631PMAX MALTA    TAVARA       2029022820240213R202402130000191000009478627MALTA    TAVARA               MAX                           2600000947862701         
19100100053092701000058710005309270100000632PURSULA GALLEGOS MURO      2029022820240213R202402130000191000009478628GALLEGOS MURO                 URSULA                        2500000947862801         
19100100053092701000058890005309270100000634PMARIANA SANCHO   RAMIREZ  2029022820240213R202402130000191000009478629SANCHO   RAMIREZ              MARIANA                       2600000947862901         
19100100053092701000058970005309270100000635PGISELA GARRIDO  LEDESMA   2029022820240213R202402130000191000009478640GARRIDO  LEDESMA              GISELA                        2600000947864001         
19100100053092701000059050005309270100000636PMARIA TORRES   CASTILLO   2029022820240213R202402130000191000009478641TORRES   CASTILLO             MARIA                         2600000947864101         
19100100053092701000059130005309270100000637PRAMON BLADES   DEL CARPIO 2029022820240213R202402130000191000009478642BLADES   DEL CARPIO           RAMON                         0000000947864201         
19100100053092701000059540005309270100000645PJOEL MERINO   TAVARA      2029022820240218R202402180000191000009478423MERINO   TAVARA               JOEL                          0000000947842301         
19100100053092701000059620005309270100000646PCINDY GALESSE  SANCHEZ    2029022820240218R202402180000191000009478424GALESSE  SANCHEZ              CINDY                         0000000947842401         
19100100053092701000059700005309270100000647PMARIA SUAREZ   RIOS       2029022820240218R202402180000191000009478425SUAREZ   RIOS                 MARIA                         0000000947842501         
19100100053092701000059880005309270100000648PMARIO NAKAMA BISSO        2029022820240223R202402230000191000015743653NAKAMA BISSO                  MARIO JESUS                   0000001574365301         
19100100053092701000059960005309270100000649PKARINA CHAFLOQUE QUIROZ   2029022820240223R202402230000191000010135089CHAFLOQUE QUIROZ              KARINA ROSA                   0000001013508901         
19100100053092701000060020005309270100000650PJORGE BENEL ZAPATA        2029022820240223R202402230000191000016727214BENEL ZAPATA                  JORGE LUIS                    0000001672721401         
19100200053092702000000200005309270200000012PPRUEBA                    2026013120240216N202312310000191000041525018PRUEBA                        PRUEBA                        01                       
19100200053092702000003350005309270200000023PEDUARDO GUERRA            2029022820240209N202402160000191000009678955GUERRA                        EDUARDO                       0800000967895501         
19100200053092702000003430005309270200000024PMARCEL LUNA               2029022820240209N202402100000191000009678956LUNA                          MARCEL                        1900000967895601         
19100200053092702000003920005309270200000029PJUAN TELLO    JIMENEZ     2029022820240210R202402100000191000009478480TELLO    JIMENEZ              JUAN                          0900000947848001         
19100200053092702000004000005309270200000030PMARIO WONG     LIU        2029022820240210R202402100000191000009478481WONG     LIU                  MARIO                         0000000947848101         
19100200053092702000029840005309270200000336PPABLO PAZ      JIMENEZ    2029022820240212R202402120000191000009478493PAZ      JIMENEZ              PABLO                         0000000947849301         
19100200053092702000029920005309270200000337PSAUL TORERO   JUPITER     2029022820240212R202402120000191000009478505TORERO   JUPITER              SAUL                          0000000947850501         
19100200053092702000030080005309270200000338PMARLON WINTER   LOPEZ     2029022820240212R202402120000191000009478506WINTER   LOPEZ                MARLON                        0000000947850601         
19100200053092702000030160005309270200000339PJUAN PILLA    JIMENEZ     2029022820240212R202402120000191000009478518PILLA    JIMENEZ              JUAN                          0000000947851801         
19100200053092702000030240005309270200000340PMARGARITO WONG     LIU    2029022820240212R202402120000191000009478519WONG     LIU                  MARGARITO                     0000000947851901         
19100200053092702000030320005309270200000341PLUCAS PAREDEZ  LIU        2029022820240212R202402120000191000009478531PAREDEZ  LIU                  LUCAS                         0000000947853101         
19100200053092702000030400005309270200000342PROCIO VIZCARRA MACHAS     2029022820240212R202402120000191000009478532VIZCARRA MACHAS               ROCIO                         0000000947853201         
19100200053092702000030570005309270200000344PMICHAEL TORINO   LEE      2029022820240212R202402120000191000009478543TORINO   LEE                  MICHAEL                       0000000947854301         
19100200053092702000030650005309270200000345PGRISELDA VACA     MATOS   2029022820240212R202402120000191000009478544VACA     MATOS                GRISELDA                      0000000947854401         
19100200053092702000030730005309270200000346PLUCAS CHAVEZ   CASTILLO   2029022820240212R202402120000191000009478555CHAVEZ   CASTILLO             LUCAS                         0000000947855501         
19100200053092702000030810005309270200000347PVANESSA VARGAS   MACHUCA  2029022820240212R202402120000191000009478556VARGAS   MACHUCA              VANESSA                       0000000947855601         
19100200053092702000030990005309270200000348PMIRKO TALAVERA LLAMA      2029022820240212R202402120000191000009478567TALAVERA LLAMA                MIRKO                         0000000947856701         
19100200053092702000031070005309270200000349PVERENISE ROSALES  MENA    2029022820240212R202402120000191000009478568ROSALES  MENA                 VERENISE                      0000000947856801         
19100200053092702000031150005309270200000351PKENNETH WONG     PACORA   2029022820240212R202402120000191000009478579WONG     PACORA               KENNETH                       0000000947857901         
19100200053092702000031230005309270200000352PROMULO VARILLAS ROSALES   2029022820240212R202402120000191000009478580VARILLAS ROSALES              ROMULO                        0000000947858001         
19100200053092702000031310005309270200000353PDINO LEE      CARBAJAL    2029022820240212R202402120000191000009478591LEE      CARBAJAL             DINO                          0000000947859101         
19100200053092702000031490005309270200000354PMARCIA KOO      SIU       2029022820240212R202402120000191000009478592KOO      SIU                  MARCIA                        0000000947859201         
19100200053092702000034380005309270200000386PPABLO PAZ      JIMENEZ    2029022820240213R202402130000191000009478605PAZ      JIMENEZ              PABLO                         0000000947860501         
19100200053092702000034460005309270200000387PSAUL SOTERO   HERRERA     2029022820240213R202402130000191000009478617SOTERO   HERRERA              SAUL                          0000000947861701         
19100200053092702000034530005309270200000388PMARLON STUAR    LINO      2029022820240213R202402130000191000009478618STUAR    LINO                 MARLON                        0000000947861801         
19100200053092702000034610005309270200000389PJUAN PINO     FUSTER      2029022820240213R202402130000191000009478630PINO     FUSTER               JUAN                          0000000947863001         
19100200053092702000034790005309270200000390PMARGARITO SERVAT   LIU    2029022820240213R202402130000191000009478631SERVAT   LIU                  MARGARITO                     0000000947863101         
19100200053092702000034870005309270200000391PLUCAS DANTE    WONG       2029022820240213R202402130000191000009478643DANTE    WONG                 LUCAS                         0000000947864301         
19100200053092702000034950005309270200000393PROCIO VIZO     BACA       2029022820240213R202402130000191000009478644VIZO     BACA                 ROCIO                         0000000947864401         
19100200053092702000035290005309270200000398PJUAN TELLO    JIMENEZ     2029022820240218R202402180000191000009478426TELLO    JIMENEZ              JUAN                          0000000947842601         
19100200053092702000035370005309270200000399PMARIO WONG     LIU        2029022820240218R202402180000191000009478427WONG     LIU                  MARIO                         0000000947842701         
19100300053092703000000290005309270300000011PPRUEBA                    2026013120240216N202312310000191000041525018PRUEBA                        PRUEBA                        01                       
19100300053092703000003340005309270300000023PVIOLETA VASQUEZ           2029022820240209R202402090000191000009678957VASQUEZ                       VIOLETA                       0800000967895701         
19100300053092703000003420005309270300000024PLUIS MIRANDA              2029022820240209N202402160000191000009678958MIRANDA                       LUIS                          0400000967895801         
19100300053092703000003910005309270300000030PVANESSA VARGAS   MACHUCA  2029022820240210R202402100000191000009478482VARGAS   MACHUCA              VANESSA                       1000000947848201         
19100300053092703000004090005309270300000031PJESUS MESA     PACORA     2029022820240210R202402100000191000009478483MESA     PACORA               JESUS                         0000000947848301         
19100300053092703000031300005309270300000354PVIVIANA BARTRA   MEJIA    2029022820240212R202402120000191000009478495BARTRA   MEJIA                VIVIANA                       0000000947849501         
19100300053092703000031480005309270300000355PJESUS MENDEZ   MESA       2029022820240212R202402120000191000009478496MENDEZ   MESA                 JESUS                         0000000947849601         
19100300053092703000031550005309270300000356PMACARENA VERGARA  MACHAS  2029022820240212R202402120000191000009478507VERGARA  MACHAS               MACARENA                      0000000947850701         
19100300053092703000031630005309270300000357PJUDA MESONES  PARIONA     2029022820240212R202402120000191000009478508MESONES  PARIONA              JUDA                          0000000947850801         
19100300053092703000031710005309270300000358PDINA VARGAS   MELCHOR     2029022820240212R202402120000191000009478520VARGAS   MELCHOR              DINA                          0000000947852001         
19100300053092703000031890005309270300000360PJEREMIAS MESA     PINATEA 2029022820240212R202402120000191000009478521MESA     PINATEA              JEREMIAS                      0000000947852101         
19100300053092703000031970005309270300000361PJULIAN MATTOS   PARNA     2029022820240212R202402120000191000009478533MATTOS   PARNA                JULIAN                        0000000947853301         
19100300053092703000032050005309270300000362PWILMAR PANTOJA  ROA       2029022820240212R202402120000191000009478534PANTOJA  ROA                  WILMAR                        0000000947853401         
19100300053092703000032130005309270300000363PCESAR MESARINE PAZ        2029022820240212R202402120000191000009478545MESARINE PAZ                  CESAR                         0000000947854501         
19100300053092703000032210005309270300000364PJORGE PANTOJA  VENTANILLA 2029022820240212R202402120000191000009478546PANTOJA  VENTANILLA           JORGE                         0000000947854601         
19100300053092703000032390005309270300000365PJESUS MESA     PACORA     2029022820240212R202402120000191000009478557MESA     PACORA               JESUS                         0000000947855701         
19100300053092703000032470005309270300000366PJULIO PANTOJA  ZARATE     2029022820240212R202402120000191000009478558PANTOJA  ZARATE               JULIO                         0000000947855801         
19100300053092703000032540005309270300000368PMARCELO SIFUENTESPACORA   2029022820240212R202402120000191000009478569SIFUENTESPACORA               MARCELO                       0000000947856901         
19100300053092703000032620005309270300000369PDUILIO PAZ      KUKURELLO 2029022820240212R202402120000191000009478570PAZ      KUKURELLO            DUILIO                        0000000947857001         
19100300053092703000032700005309270300000370PTOMAS DESSA    DIAZ       2029022820240212R202402120000191000009478581DESSA    DIAZ                 TOMAS                         0000000947858101         
19100300053092703000032880005309270300000371PJULIO PINO     SALAS      2029022820240212R202402120000191000009478582PINO     SALAS                JULIO                         0000000947858201         
19100300053092703000032960005309270300000372PIVAN MESA     KUKURELLO   2029022820240212R202402120000191000009478593MESA     KUKURELLO            IVAN                          0000000947859301         
19100300053092703000033040005309270300000373PDARIO RIVERA   LEE        2029022820240212R202402120000191000009478594RIVERA   LEE                  DARIO                         0000000947859401         
19100300053092703000036350005309270300000410PVIVIANA BACA     MEJIA    2029022820240213R202402130000191000009478607BACA     MEJIA                VIVIANA                       2800000947860701         
19100300053092703000036430005309270300000411PJESUS MENDO    MESA       2029022820240213R202402130000191000009478608MENDO    MESA                 JESUS                         2800000947860801         
19100300053092703000036500005309270300000412PMACARENA VEGA     MENDO   2029022820240213R202402130000191000009478619VEGA     MENDO                MACARENA                      0000000947861901         
19100300053092703000036680005309270300000413PJUDA MIU      PARCO       2029022820240213R202402130000191000009478620MIU      PARCO                JUDA                          0000000947862001         
19100300053092703000036760005309270300000414PDINA TELLO    MESA        2029022820240213R202402130000191000009478632TELLO    MESA                 DINA                          0000000947863201         
19100300053092703000036840005309270300000415PJEREMIAS MICA     PINO    2029022820240213R202402130000191000009478633MICA     PINO                 JEREMIAS                      0000000947863301         
19100300053092703000036920005309270300000416PJULIAN MANSILLA PERES     2029022820240213R202402130000191000009478645MANSILLA PERES                JULIAN                        0000000947864501         
19100300053092703000037000005309270300000418PWILMAR ZUMARAN  REYNOSO   2029022820240213R202402130000191000009478646ZUMARAN  REYNOSO              WILMAR                        0000000947864601         
19100300053092703000037340005309270300000423PVANESSA VARGAS   MACHUCA  2029022820240218R202402180000191000009478428VARGAS   MACHUCA              VANESSA                       0000000947842801         
19100300053092703000037420005309270300000424PJESUS MESA     PACORA     2029022820240218R202402180000191000009478429MESA     PACORA               JESUS                         0000000947842901         
19101100053101301000003210005310130100000023PJAVIER TALLEDO            2029022820240209N202402100000191000009678959TALLEDO                       JAVIER                        0400000967895901         
19101100053101301000003390005310130100000025PKATIA MORALES             2029022820240209N202402100000191000009678960MORALES                       KATIA                         1900000967896001         
19101100053101301000004040005310130100000033PJULIO PANTOJA  ZARATE     2029022820240210R202402100000191000009478484PANTOJA  ZARATE               JULIO                         1100000947848401         
19101100053101301000004120005310130100000034PCARMEN RAVINES  DEL CARPIO2029022820240210R202402100000191000009478485RAVINES  DEL CARPIO           CARMEN                        1200000947848501         
19101100053101301000004200005310130100000035PKATTY MENDIOLA GARCIA     2029022820240210R202402100000191000009478486MENDIOLA GARCIA               KATTY                         0000000947848601         
19101100053101301000036140005310130100000413PGIULIANO PINTO    ZORRILLA2029022820240212R202402120000191000009478497PINTO    ZORRILLA             GIULIANO                      0000000947849701         
19101100053101301000036220005310130100000414PCARMELA RUBIO    DELGADO  2029022820240212R202402120000191000009478498RUBIO    DELGADO              CARMELA                       0000000947849801         
19101100053101301000036300005310130100000415PPATTY MENDEZ   GARECA     2029022820240212R202402120000191000009478499MENDEZ   GARECA               PATTY                         0000000947849901         
19101100053101301000036480005310130100000416PSERAPIO ROJAS    ZARATE   2029022820240212R202402120000191000009478509ROJAS    ZARATE               SERAPIO                       0000000947850901         
19101100053101301000036550005310130100000417PCARMELA RUBIO    DELGADO  2029022820240212R202402120000191000009478510RUBIO    DELGADO              CARMELA                       0000000947851001         
19101100053101301000036630005310130100000418PESTEFANIA RAMIREZ  DEL CUR2029022820240212R202402120000191000009478511RAMIREZ  DEL CURRO            ESTEFANIA                     0000000947851101         
19101100053101301000036710005310130100000419PJESUS POMA     ZARATE     2029022820240212R202402120000191000009478522POMA     ZARATE               JESUS                         0000000947852201         
19101100053101301000036890005310130100000421PROSARIO RAMOS    DURAND   2029022820240212R202402120000191000009478523RAMOS    DURAND               ROSARIO                       0000000947852301         
19101100053101301000036970005310130100000422PMALANIAS MILLAGUI SUECO   2029022820240212R202402120000191000009478526MILLAGUI SUECO                MALANIAS                      0000000947852601         
19101100053101301000037050005310130100000423PCARMIN TELLO    DELGADO   2029022820240212R202402120000191000009478535TELLO    DELGADO              CARMIN                        0000000947853501         
19101100053101301000037130005310130100000424PMIRIAM MENDEZ   GARRIDO   2029022820240212R202402120000191000009478536MENDEZ   GARRIDO              MIRIAM                        0000000947853601         
19101100053101301000037210005310130100000425PKARINA RAVINES  ROSELL    2029022820240212R202402120000191000009478547RAVINES  ROSELL               KARINA                        0000000947854701         
19101100053101301000037390005310130100000426PTEOFILA MENDIOLA PITA     2029022820240212R202402120000191000009478548MENDIOLA PITA                 TEOFILA                       0000000947854801         
19101100053101301000037470005310130100000427PCARMEN RAVINES  DEL CARPIO2029022820240212R202402120000191000009478559RAVINES  DEL CARPIO           CARMEN                        0000000947855901         
19101100053101301000037540005310130100000428PKATTY MENDIOLA GARCIA     2029022820240212R202402120000191000009478560MENDIOLA GARCIA               KATTY                         0000000947856001         
19101100053101301000037620005310130100000429PMARTHA PEREZ    LESCANO   2029022820240212R202402120000191000009478571PEREZ    LESCANO              MARTHA                        0000000947857101         
19101100053101301000037700005310130100000430PDINA MERINO   SOCRATES    2029022820240212R202402120000191000009478572MERINO   SOCRATES             DINA                          0000000947857201         
19101100053101301000037880005310130100000431PJULIA MONTOYA  DEL NILO   2029022820240212R202402120000191000009478583MONTOYA  DEL NILO             JULIA                         0000000947858301         
19101100053101301000037960005310130100000432PROCIO MIRO     GARCIA     2029022820240212R202402120000191000009478584MIRO     GARCIA               ROCIO                         0000000947858401         
19101100053101301000038040005310130100000433PLUCIA RIOJA    DEL POZO   2029022820240212R202402120000191000009478595RIOJA    DEL POZO             LUCIA                         0000000947859501         
19101100053101301000038120005310130100000434PROSARIO MENA     TELLO    2029022820240212R202402120000191000009478596MENA     TELLO                ROSARIO                       0000000947859601         
19101100053101301000042240005310130100000480PGIULIANO PINO     ZOGA    2029022820240213R202402130000191000009478609PINO     ZOGA                 GIULIANO                      0800000947860901         
19101100053101301000042320005310130100000481PCARMELA RUPA     DELGADO  2029022820240213R202402130000191000009478610RUPA     DELGADO              CARMELA                       1500000947861001         
19101100053101301000042400005310130100000482PPATTY MESA     TAVARA     2029022820240213R202402130000191000009478611MESA     TAVARA               PATTY                         1300000947861101         
19101100053101301000042570005310130100000483PSERAPIO ROA      ZAENS    2029022820240213R202402130000191000009478621ROA      ZAENS                SERAPIO                       0000000947862101         
19101100053101301000042650005310130100000484PCARMELA CASTRO   DELGADO  2029022820240213R202402130000191000009478622CASTRO   DELGADO              CARMELA                       0000000947862201         
19101100053101301000042730005310130100000485PESTEFANIA PEREZ    PRADO  2029022820240213R202402130000191000009478623PEREZ    PRADO                ESTEFANIA                     2700000947862301         
19101100053101301000042810005310130100000486PJESUS PASOS    ZOSA       2029022820240213R202402130000191000009478634PASOS    ZOSA                 JESUS                         0000000947863401         
19101100053101301000042990005310130100000488PROSARIO DENEGRI  DUAARTE  2029022820240213R202402130000191000009478635DENEGRI  DUAARTE              ROSARIO                       0000000947863501         
19101100053101301000043070005310130100000489PMALANIAS MORENO   MUNOZ   2029022820240213R202402130000191000009478638MORENO   MUNOZ                MALANIAS                      2700000947863801         
19101100053101301000043150005310130100000490PMIRIAM ZARATE   BENDEZU   2029022820240213R202402130000191000000000000ZARATE   BENDEZU              MIRIAM                        0000000000000001         
19101100053101301000062860005310130100000709PCARLOS MESA     PINZON    2029022820240214R202402140000191000009478651MESA     PINZON               CARLOS                        0000000947865101         
19101100053101301000062940005310130100000710PKARINA GARZA    SANCHEZ   2029022820240214R202402140000191000009478652GARZA    SANCHEZ              KARINA                        0000000947865201         
19101100053101301000063020005310130100000711PMARIELA SANTOS   ROJAS    2029022820240214R202402140000191000009478653SANTOS   ROJAS                MARIELA                       0000000947865301         
19101100053101301000063100005310130100000712PJUAN POTRO    JIMENEZ     2029022820240214R202402140000191000009478654POTRO    JIMENEZ              JUAN                          0000000947865401         
19101100053101301000063280005310130100000713PMARIANO SERPA    LEE      2029022820240214R202402140000191000009478655SERPA    LEE                  MARIANO                       0000000947865501         
19101100053101301000063360005310130100000714PTATIANA SALAZAR  MEJIA    2029022820240214R202402140000191000009478656SALAZAR  MEJIA                TATIANA                       0000000947865601         
19101100053101301000063440005310130100000715PTOMAS MORENO   MESA       2029022820240214R202402140000191000009478657MORENO   MESA                 TOMAS                         0000000947865701         
19101100053101301000063510005310130100000716PJAVIER PEREZ    ZOGA      2029022820240214R202402140000191000009478658PEREZ    ZOGA                 JAVIER                        0000000947865801         
19101100053101301000063690005310130100000717PANGELA ROA      DELGADO   2029022820240214R202402140000191000009478659ROA      DELGADO              ANGELA                        0000000947865901         
19101100053101301000063770005310130100000718PPARIS NUA      TAVARA     2029022820240214R202402140000191000009478660NUA      TAVARA               PARIS                         0000000947866001         
19101100053101301000063850005310130100000720PMARCO POMA     MENA       2029022820240214R202402140000191000009478661POMA     MENA                 MARCO                         0000000947866101         
19101100053101301000063930005310130100000721PTOBIAS MILLA    ROSADO    2029022820240214R202402140000191000009478662MILLA    ROSADO               TOBIAS                        0000000947866201         
19101100053101301000064010005310130100000722PJULIO AQUINO   TELLO      2029022820240214R202402140000191000009478663AQUINO   TELLO                JULIO                         0000000947866301         
19101100053101301000064190005310130100000723PKAREN ZADIAZ   PINO       2029022820240214R202402140000191000009478664ZADIAZ   PINO                 KAREN                         0000000947866401         
19101100053101301000064270005310130100000724PRINA SAENZ    RAVELLO     2029022820240214R202402140000191000009478665SAENZ    RAVELLO              RINA                          0000000947866501         
19101100053101301000064350005310130100000725PSANTIAGO SOLORZANOHERRERA 2029022820240214R202402140000191000009478666SOLORZANOHERRERA              SANTIAGO                      0000000947866601         
19101100053101301000064430005310130100000726PMARIO SILVA    LINO       2029022820240214R202402140000191000009478667SILVA    LINO                 MARIO                         0000000947866701         
19101100053101301000064500005310130100000728PMARINA SALAS    MENDO     2029022820240214R202402140000191000009478668SALAS    MENDO                MARINA                        0000000947866801         
19101100053101301000064680005310130100000729PJUAN PRADO    PAZ         2029022820240214R202402140000191000009478669PRADO    PAZ                  JUAN                          0000000947866901         
19101100053101301000064760005310130100000730PTOMAS RODRIGUEZSALAS      2029022820240214R202402140000191000009478670RODRIGUEZSALAS                TOMAS                         0000000947867001         
19101100053101301000064840005310130100000731PANA CASO     DELGADO      2029022820240214R202402140000191000009478671CASO     DELGADO              ANA                           0000000947867101         
19101100053101301000064920005310130100000732PESTELA PINO     PRADO     2029022820240214R202402140000191000009478672PINO     PRADO                ESTELA                        0000000947867201         
19101100053101301000065000005310130100000733PAMY COPELLO  GUTIERRES    2029022820240214R202402140000191000009478673COPELLO  GUTIERRES            AMY                           0000000947867301         
19101100053101301000065180005310130100000734PPAUL PINTO    GUERRERO    2029022820240214R202402140000191000009478674PINTO    GUERRERO             PAUL                          0000000947867401         
19101100053101301000065260005310130100000736PJOEL MESA     CASTRO      2029022820240214R202402140000191000009478675MESA     CASTRO               JOEL                          0000000947867501         
19101100053101301000065340005310130100000737PMAXIMILIANO MASA     TAVAR2029022820240214R202402140000191000009478676MASA     TAVARA               MAXIMILIANO                   0000000947867601         
19101100053101301000065420005310130100000738PVALERIA GALENO   MURO     2029022820240214R202402140000191000009478677GALENO   MURO                 VALERIA                       0000000947867701         
19101100053101301000065590005310130100000739PMARIELLA SANTOS   RAMIREZ 2029022820240214R202402140000191000009478678SANTOS   RAMIREZ              MARIELLA                      0000000947867801         
19101100053101301000065670005310130100000740PJOEL PEREZ    FUSTER      2029022820240214R202402140000191000009478679PEREZ    FUSTER               JOEL                          0000000947867901         
19101100053101301000065750005310130100000741PDARIO SENKO    LEE        2029022820240214R202402140000191000009478680SENKO    LEE                  DARIO                         0000000947868001         
19101100053101301000065830005310130100000742PCARMEN TASSO    MURGIA    2029022820240214R202402140000191000009478681TASSO    MURGIA               CARMEN                        0000000947868101         
19101100053101301000065910005310130100000744PJEFRI TORO     PINO       2029022820240214R202402140000191000009478682TORO     PINO                 JEFRI                         0000000947868201         
19101100053101301000066090005310130100000745PJEREMIAS RIOS     ZOSA    2029022820240214R202402140000191000009478683RIOS     ZOSA                 JEREMIAS                      0000000947868301         
19101100053101301000066170005310130100000746PDANIELA DESSA    DUAARTE  2029022820240214R202402140000191000009478684DESSA    DUAARTE              DANIELA                       0000000947868401         
19101100053101301000066250005310130100000747PKAREN SIU      GARAY      2029022820240214R202402140000191000009478685SIU      GARAY                KAREN                         0000000947868501         
19101100053101301000066330005310130100000748PPEDRO COLLADO  SEGURA     2029022820240214R202402140000191000009478686COLLADO  SEGURA               PEDRO                         0000000947868601         
19101100053101301000066410005310130100000749PJORGE MONROY   SOTO       2029022820240214R202402140000191000009478687MONROY   SOTO                 JORGE                         0000000947868701         
19101100053101301000066580005310130100000751PLUCIO POZO     PAZ        2029022820240214R202402140000191000009478688POZO     PAZ                  LUCIO                         0000000947868801         
19101100053101301000066660005310130100000752PLUCIA TAVARA   LECCA      2029022820240214R202402140000191000009478689TAVARA   LECCA                LUCIA                         0000000947868901         
19101100053101301000066740005310130100000753PMERCEDES CARPIO   CASTILLO2029022820240214R202402140000191000009478690CARPIO   CASTILLO             MERCEDES                      0000000947869001         
19101100053101301000066820005310130100000754PALDO WARTHON  DELGADO     2029022820240214R202402140000191000009478691WARTHON  DELGADO              ALDO                          0000000947869101         
19101100053101301000066900005310130100000755PPEDRO DANTE    WONG       2029022820240214R202402140000191000009478692DANTE    WONG                 PEDRO                         0000000947869201         
19101100053101301000067080005310130100000756PROSMERY VIZO     BACA     2029022820240214R202402140000191000009478693VIZO     BACA                 ROSMERY                       0000000947869301         
19101100053101301000067160005310130100000757PJULIO MANSILLA PERES      2029022820240214R202402140000191000009478694MANSILLA PERES                JULIO                         0000000947869401         
19101100053101301000067240005310130100000758PWILLLIAM ZUMARAN  REYNOSO 2029022820240214R202402140000191000009478695ZUMARAN  REYNOSO              WILLLIAM                      0000000947869501         
19101100053101301000067320005310130100000759PCARMEN FERRO    DEZA      2029022820240214R202402140000191000009478696FERRO    DEZA                 CARMEN                        0000000947869601         
19101100053101301000067400005310130100000760PMARY ZARATE   BENDEZU     2029022820240214R202402140000191000009478697ZARATE   BENDEZU              MARY                          0000000947869701         
19101100053101301000067570005310130100000761PRODRIGO PERLA    ARAUJO   2029022820240214R202402140000191000009478698PERLA    ARAUJO               RODRIGO                       0000000947869801         
19101100053101301000067650005310130100000762PMARIO SOTO     SANCHEZ    2029022820240214R202402140000191000009478699SOTO     SANCHEZ              MARIO                         0000000947869901         
19101100053101301000067730005310130100000861PCARLOS SEGURA   PINZON    2029022820240215R202402150000191000009478651MESA     PINZON               CARLOS                        0000000947865101         
19101100053101301000067810005310130100000862PKARINA SANCHEZ  SANCHEZ   2029022820240215R202402150000191000009478652GARZA    SANCHEZ              KARINA                        0000000947865201         
19101100053101301000067990005310130100000863PKAREN ZARAVIA  ARANAEZ    2029022820240215R202402150000191000009478652GARZA    SANCHEZ              KARINA                        0000000947865201         
19101100053101301000068070005310130100000864PCARLOS SANCHEZ  SUSANIBAR 2029022820240215R202402150000191000009478652GARZA    SANCHEZ              KARINA                        0000000947865201         
19101100053101301000070370005310130100000890PKARINA SANCHEZ  SANCHEZ   2029022820240217R202402170000191000009478918SANCHEZ  SANCHEZ              KARINA                        0000000947891801         
19101100053101301000070450005310130100000892PCARLOS SANCHEZ  SUSANIBAR 2029022820240217R202402170000191000009478920SANCHEZ  SUSANIBAR            CARLOS                        0000000947892001         
19101100053101301000071100005310130100000903PKARINA SANCHEZ  SANCHEZ   2029022820240218R202402180000191000009478921SANCHEZ  SANCHEZ              KARINA                        0000000947892101         
19101100053101301000071280005310130100000904PCARLOS SANCHEZ  SUSANIBAR 2029022820240218R202402180000191000009478922SANCHEZ  SUSANIBAR            CARLOS                        0000000947892201         
19101100053101301000071360005310130100000905PJULIO PANTOJA  ZARATE     2029022820240218R202402180000191000009478430PANTOJA  ZARATE               JULIO                         0000000947843001         
19101100053101301000071440005310130100000906PCARMEN RAVINES  DEL CARPIO2029022820240218R202402180000191000009478431RAVINES  DEL CARPIO           CARMEN                        0000000947843101         
19101100053101301000071510005310130100000907PKATTY MENDIOLA GARCIA     2029022820240218R202402180000191000009478432MENDIOLA GARCIA               KATTY                         0000000947843201         
19101200053101302000001630005310130200000022PEDSON SANCHEZ             2029022820240209R202402090000191000009678961SANCHEZ                       EDSON                         0800000967896101         
19101200053101302000001970005310130200000026PPABLO PAREDEZ  INGA       2029022820240210N202402130000191000009478487PAREDEZ  INGA                 PABLO                         1800000947848701         
19101200053101302000015670005310130200000187PPITER PITA     INGARUCA   2029022820240212R202402120000191000009478500PITA     INGARUCA             PITER                         0000000947850001         
19101200053101302000015750005310130200000188PVIVIANA MENDIOLA GARATE   2029022820240212R202402120000191000009478512MENDIOLA GARATE               VIVIANA                       0000000947851201         
19101200053101302000015830005310130200000190PKATTY MENDIOLA GARCIA     2029022820240212R202402120000191000009478524MENDIOLA GARCIA               KATTY                         0000000947852401         
19101200053101302000015910005310130200000191PPEDRO PAZ      ARAUJO     2029022820240212R202402120000191000009478537PAZ      ARAUJO               PEDRO                         0000000947853701         
19101200053101302000016090005310130200000192PLUIS PEREZ    PIZARRO     2029022820240212R202402120000191000009478549PEREZ    PIZARRO              LUIS                          0000000947854901         
19101200053101302000016170005310130200000193PPABLO PAREDEZ  INGA       2029022820240212R202402120000191000009478561PAREDEZ  INGA                 PABLO                         0000000947856101         
19101200053101302000016250005310130200000194PFRANCISCO RAVELLO  PAZ    2029022820240212R202402120000191000009478573RAVELLO  PAZ                  FRANCISCO                     0000000947857301         
19101200053101302000016330005310130200000195PJULIAN PAYTA    INGA      2029022820240212R202402120000191000009478585PAYTA    INGA                 JULIAN                        0000000947858501         
19101200053101302000016410005310130200000196PPABLO PERES    CHUNGA     2029022820240212R202402120000191000009478597PERES    CHUNGA               PABLO                         0000000947859701         
19101200053101302000017730005310130200000211PPITER PITIN    MENA       2029022820240213R202402130000191000009478612PITIN    MENA                 PITER                         2500000947861201         
19101200053101302000017810005310130200000212PVIVIANA MINA     GUTIERRES2029022820240213R202402130000191000009478624MINA     GUTIERRES            VIVIANA                       2500000947862401         
19101200053101302000017990005310130200000214PKATTY VACA     GARRIDO    2029022820240213R202402130000191000009478636VACA     GARRIDO              KATTY                         2500000947863601         
19101200053101302000018150005310130200000217PPABLO PAREDEZ  INGA       2029022820240218R202402180000191000009478433PAREDEZ  INGA                 PABLO                         0000000947843301         
19101200053101302000018230005310130200000026A00000001JAQUELINESEGURAMAR2029022820240222R202402220000191000009478487PAREDEZ  INGA                 PABLO                         1800000947848701         
19101300053101303000001620005310130300000023PPAUL LOPEZ                2029022820240209N202402100000191000009678962LOPEZ                         PAUL                          0400000967896201         
19101300053101303000002380005310130300000031PPEDRO MILLAGUI SIU        2029022820240210R202402100000191000009478488MILLAGUI SIU                  PEDRO                         1000000947848801         
19101300053101303000002460005310130300000032PPEDRO MILLAGUI SIU        2029022820240210N202402130000191000009478488MILLAGUI SIU                  PEDRO                         1800000947848801         
19101300053101303000002530005310130300000033PPEDRO MILLAGUI SIU        2029022820240210N202402130000191000009478488MILLAGUI SIU                  PEDRO                         1800000947848801         
19101300053101303000029940005310130300000357PPABLO MILLA    ESCANOA    2029022820240212R202402120000191000009478501MILLA    ESCANOA              PABLO                         0000000947850101         
19101300053101303000030000005310130300000358PPITER PANDURO  IGUANA     2029022820240212R202402120000191000009478513PANDURO  IGUANA               PITER                         0000000947851301         
19101300053101303000030180005310130300000359PPAUL RANCIO   SULCA       2029022820240212R202402120000191000009478514RANCIO   SULCA                PAUL                          0000000947851401         
19101300053101303000030260005310130300000361PPERICO IANES    INGA      2029022820240212R202402120000191000009478525IANES    INGA                 PERICO                        0000000947852501         
19101300053101303000030340005310130300000362PJUDA MERCURIO TANG        2029022820240212R202402120000191000009478527MERCURIO TANG                 JUDA                          0000000947852701         
19101300053101303000030420005310130300000363PMARIANO MENDEZ   SIU      2029022820240212R202402120000191000009478538MENDEZ   SIU                  MARIANO                       0000000947853801         
19101300053101303000030590005310130300000364PPABLO MESA     TORNAOLA   2029022820240212R202402120000191000009478539MESA     TORNAOLA             PABLO                         0000000947853901         
19101300053101303000030670005310130300000365PMARTIN SUAREZ   PERON     2029022820240212R202402120000191000009478550SUAREZ   PERON                MARTIN                        0000000947855001         
19101300053101303000030750005310130300000366PRAUL FLOREZ   HUAMAN      2029022820240212R202402120000191000009478551FLOREZ   HUAMAN               RAUL                          0000000947855101         
19101300053101303000030830005310130300000367PPEDRO MILLAGUI SIU        2029022820240212R202402120000191000009478562MILLAGUI SIU                  PEDRO                         0000000947856201         
19101300053101303000030910005310130300000368PPIERO GUARDIA  RIVADENEYRA2029022820240212R202402120000191000009478563GUARDIA  RIVADENEYRA          PIERO                         0000000947856301         
19101300053101303000031090005310130300000369PPABLO MINA     TELLO      2029022820240212R202402120000191000009478574MINA     TELLO                PABLO                         0000000947857401         
19101300053101303000031170005310130300000370PMARIO BARAKUS  MERINO     2029022820240212R202402120000191000009478575BARAKUS  MERINO               MARIO                         0000000947857501         
19101300053101303000031250005310130300000371PSANDRO MILLAGUI REVOREDO  2029022820240212R202402120000191000009478586MILLAGUI REVOREDO             SANDRO                        0000000947858601         
19101300053101303000031330005310130300000372PGEORGE CLEMENTE TAVARA    2029022820240212R202402120000191000009478587CLEMENTE TAVARA               GEORGE                        0000000947858701         
19101300053101303000031410005310130300000373PJOSUE MITO     DURAND     2029022820240212R202402120000191000009478598MITO     DURAND               JOSUE                         0000000947859801         
19101300053101303000031580005310130300000374PIVAN CRUZ     CRUZ        2029022820240212R202402120000191000009478599CRUZ     CRUZ                 IVAN                          0000000947859901         
19101300053101303000031660005310130300000375PJOSE PERALES  MESA        2029022820240212R202402120000191000009478601PERALES  MESA                 JOSE LUIS                     0000000947860101         
19101300053101303000033720005310130300000399PPABLO MILPA    ROSADO     2029022820240213R202402130000191000009478613MILPA    ROSADO               PABLO                         2600000947861301         
19101300053101303000033800005310130300000400PPITER PANTOJA  GUERRERO   2029022820240213R202402130000191000009478625PANTOJA  GUERRERO             PITER                         2600000947862501         
19101300053101303000033980005310130300000401PPAUL MERINO   CASTRO      2029022820240213R202402130000191000009478626MERINO   CASTRO               PAUL                          2600000947862601         
19101300053101303000034060005310130300000403PPERICO ILLANES  SEGURA    2029022820240213Z202402150000191000009478637ILLANES  SEGURA               PERICO                        2800000947863701         
19101300053101303000034140005310130300000404PJUDA PAZ      PAZ         2029022820240213Q202402150000191000009478639PAZ      PAZ                  JUDA                          0000000947863901         
19101300053101303000034300005310130300000407PPEDRO MILLAGUI SIU        2029022820240218R202402180000191000009478434MILLAGUI SIU                  PEDRO                         0000000947843401         
