E000000011820240001310585819424001CUENTA CERRADA                
E000000011820240004780850984338001CUENTA CERRADA                
E000000011820240008990484058055001CUENTA CERRADA                
E000000011820240004620323072172006NUMERO DOCUMENTO NO CORRESPONDE
E000000011820240002550756043107001CUENTA CERRADA                
E000000011820240004210092913376001CUENTA CERRADA                
E000000011820240004310905035672001CUENTA CERRADA                
E000000011820240007300853457396001CUENTA CERRADA                
C000008
