H00000001182024120300000000000011000000000245000
G20240001310585819424000200020012030716744200000000000000301019202410162024101702   S/.0000000002000000100000000000040185963LINEA DE CREDITO                                                                            
G20240004780850984338000200030012030716744200000000000000301019202410162024101702   S/.0000000003000000100000000000041612254LINEA DE CREDITO                                                                            
G20240008990484058055000100030012013137064500000000000000299294202410152024101702   S/.0000000002500000100000000000025658341LINEA DE CREDITO                                                                            
G20240006610248789632000200030012013138010100000000000000281859202410152024101702   S/.0000000002500000100000000000040081091LINEA DE CREDITO                                                                            
G20240004620323072172000300030012013138010100000000000000281859202410162024101802   S/.0000000001500000400000000000000093373LINEA DE CREDITO
G20240002550756043107000100030012030716744200000000000000301019202410162024101802   S/.0000000001500000400000000000123456789LINEA DE CREDITO                                                                            
G20240007480273156219000300030012013138010100000000000000281859202410162024101802   S/.0000000001500000100000000000041047729LINEA DE CREDITO                                                                            
G20240002340901798055000300030012013138010100000000000000281859202410162024102402   S/.0000000002500000100000000000010271202LINEA DE CREDITO                                                                            
G20240004210092913376000200020012030716744200000000000000301019202410162024102402   S/.0000000002500000100000000000006629603LINEA DE CREDITO                                                                            
G20240004310905035672000200020012013137064500000000000000299294202410172024101802   S/.0000000002500000100000000000006801952LINEA DE CREDITO                                                                            
G20240007300853457396000300010012013137064500000000000000299294202410162024101802   S/.0000000002500000100000000000007718154LINEA DE CREDITO                                                                            
