01820240302212436000000200000000020000000000020000000002000000000004                                                                                                                                                                       *
11919100000001234567000530927010000001300002024010101654000530927010000002100000000010000000001910000000000000000000000000NP DB REVERSAL                2089000000000                0000000      000000000000000031310191 000000000       *
11919100000001234567000530927010000001300002024010101652000530927010000002100000000010000000001910000000000000000000000000REPEAT N-P DB                 1088000000000                0000000      202403020000000031310191 000000000       *
11921500000000000000000530927010000056000002024021301654000530927010000522800000000010000000002150000000000000000000000000NP DB REVERSAL                2089000000000  999999999999990000000      000000000000000031313215 000000000       *
11921500000000000000000530927010000056000002024021301652000530927010000522800000000010000000002150000000000000000000000000REPEAT N-P DB                 1088000000000  999999999999990000000      000000000000000031313215 000000000       *
